{
  "contractName": "BlockStorage",
  "abi": [
    {
      "inputs": [
        {
          "internalType": "uint256",
          "name": "_currentEpoch",
          "type": "uint256"
        },
        {
          "internalType": "uint256",
          "name": "_difficulty",
          "type": "uint256"
        },
        {
          "internalType": "uint256",
          "name": "_variance",
          "type": "uint256"
        }
      ],
      "stateMutability": "nonpayable",
      "type": "constructor"
    },
    {
      "anonymous": false,
      "inputs": [
        {
          "indexed": true,
          "internalType": "uint256",
          "name": "epoch",
          "type": "uint256"
        },
        {
          "indexed": true,
          "internalType": "uint256",
          "name": "duration",
          "type": "uint256"
        }
      ],
      "name": "EpochDurationSet",
      "type": "event"
    },
    {
      "anonymous": false,
      "inputs": [
        {
          "indexed": true,
          "internalType": "uint256",
          "name": "epoch",
          "type": "uint256"
        },
        {
          "indexed": false,
          "internalType": "uint256",
          "name": "difficulty",
          "type": "uint256"
        },
        {
          "indexed": false,
          "internalType": "uint256",
          "name": "ts",
          "type": "uint256"
        }
      ],
      "name": "NewEpoch",
      "type": "event"
    },
    {
      "anonymous": false,
      "inputs": [
        {
          "indexed": true,
          "internalType": "uint256",
          "name": "hashId",
          "type": "uint256"
        },
        {
          "indexed": true,
          "internalType": "uint256",
          "name": "epoch",
          "type": "uint256"
        },
        {
          "indexed": true,
          "internalType": "address",
          "name": "account",
          "type": "address"
        },
        {
          "indexed": false,
          "internalType": "uint256",
          "name": "ts",
          "type": "uint256"
        },
        {
          "indexed": false,
          "internalType": "bytes",
          "name": "_bytes",
          "type": "bytes"
        }
      ],
      "name": "NewHash",
      "type": "event"
    },
    {
      "anonymous": false,
      "inputs": [
        {
          "indexed": true,
          "internalType": "address",
          "name": "previousOwner",
          "type": "address"
        },
        {
          "indexed": true,
          "internalType": "address",
          "name": "newOwner",
          "type": "address"
        }
      ],
      "name": "OwnershipTransferred",
      "type": "event"
    },
    {
      "anonymous": false,
      "inputs": [
        {
          "indexed": true,
          "internalType": "uint256",
          "name": "epoch",
          "type": "uint256"
        },
        {
          "indexed": true,
          "internalType": "uint256",
          "name": "difficulty",
          "type": "uint256"
        }
      ],
      "name": "TargetDifficultySet",
      "type": "event"
    },
    {
      "inputs": [],
      "name": "DIFFICULTY_ADJUSTMENT",
      "outputs": [
        {
          "internalType": "uint256",
          "name": "",
          "type": "uint256"
        }
      ],
      "stateMutability": "view",
      "type": "function",
      "constant": true
    },
    {
      "inputs": [],
      "name": "TARGET_BLOCK_TIME_S",
      "outputs": [
        {
          "internalType": "uint256",
          "name": "",
          "type": "uint256"
        }
      ],
      "stateMutability": "view",
      "type": "function",
      "constant": true
    },
    {
      "inputs": [
        {
          "internalType": "uint256",
          "name": "",
          "type": "uint256"
        }
      ],
      "name": "addressesByHashId",
      "outputs": [
        {
          "internalType": "address",
          "name": "",
          "type": "address"
        }
      ],
      "stateMutability": "view",
      "type": "function",
      "constant": true
    },
    {
      "inputs": [
        {
          "internalType": "bytes32",
          "name": "",
          "type": "bytes32"
        }
      ],
      "name": "addressesByKey",
      "outputs": [
        {
          "internalType": "address",
          "name": "",
          "type": "address"
        }
      ],
      "stateMutability": "view",
      "type": "function",
      "constant": true
    },
    {
      "inputs": [],
      "name": "currentEpoch",
      "outputs": [
        {
          "internalType": "uint256",
          "name": "",
          "type": "uint256"
        }
      ],
      "stateMutability": "view",
      "type": "function",
      "constant": true
    },
    {
      "inputs": [],
      "name": "currentEpochTs",
      "outputs": [
        {
          "internalType": "uint256",
          "name": "",
          "type": "uint256"
        }
      ],
      "stateMutability": "view",
      "type": "function",
      "constant": true
    },
    {
      "inputs": [],
      "name": "currentHashId",
      "outputs": [
        {
          "internalType": "uint256",
          "name": "",
          "type": "uint256"
        }
      ],
      "stateMutability": "view",
      "type": "function",
      "constant": true
    },
    {
      "inputs": [],
      "name": "difficulty",
      "outputs": [
        {
          "internalType": "uint256",
          "name": "",
          "type": "uint256"
        }
      ],
      "stateMutability": "view",
      "type": "function",
      "constant": true
    },
    {
      "inputs": [],
      "name": "epochDurationSec",
      "outputs": [
        {
          "internalType": "uint256",
          "name": "",
          "type": "uint256"
        }
      ],
      "stateMutability": "view",
      "type": "function",
      "constant": true
    },
    {
      "inputs": [],
      "name": "epochHashCounter",
      "outputs": [
        {
          "internalType": "uint256",
          "name": "",
          "type": "uint256"
        }
      ],
      "stateMutability": "view",
      "type": "function",
      "constant": true
    },
    {
      "inputs": [
        {
          "internalType": "address",
          "name": "",
          "type": "address"
        },
        {
          "internalType": "uint256",
          "name": "",
          "type": "uint256"
        }
      ],
      "name": "hashIdsByAddress",
      "outputs": [
        {
          "internalType": "uint256",
          "name": "",
          "type": "uint256"
        }
      ],
      "stateMutability": "view",
      "type": "function",
      "constant": true
    },
    {
      "inputs": [
        {
          "internalType": "uint256",
          "name": "",
          "type": "uint256"
        }
      ],
      "name": "hashRecords",
      "outputs": [
        {
          "internalType": "bytes",
          "name": "",
          "type": "bytes"
        }
      ],
      "stateMutability": "view",
      "type": "function",
      "constant": true
    },
    {
      "inputs": [],
      "name": "owner",
      "outputs": [
        {
          "internalType": "address",
          "name": "",
          "type": "address"
        }
      ],
      "stateMutability": "view",
      "type": "function",
      "constant": true
    },
    {
      "inputs": [
        {
          "internalType": "address",
          "name": "",
          "type": "address"
        }
      ],
      "name": "recordCount",
      "outputs": [
        {
          "internalType": "uint256",
          "name": "",
          "type": "uint256"
        }
      ],
      "stateMutability": "view",
      "type": "function",
      "constant": true
    },
    {
      "inputs": [],
      "name": "renounceOwnership",
      "outputs": [],
      "stateMutability": "nonpayable",
      "type": "function"
    },
    {
      "inputs": [],
      "name": "targetDifficulty",
      "outputs": [
        {
          "internalType": "uint256",
          "name": "",
          "type": "uint256"
        }
      ],
      "stateMutability": "view",
      "type": "function",
      "constant": true
    },
    {
      "inputs": [
        {
          "internalType": "address",
          "name": "newOwner",
          "type": "address"
        }
      ],
      "name": "transferOwnership",
      "outputs": [],
      "stateMutability": "nonpayable",
      "type": "function"
    },
    {
      "inputs": [],
      "name": "variance",
      "outputs": [
        {
          "internalType": "uint256",
          "name": "",
          "type": "uint256"
        }
      ],
      "stateMutability": "view",
      "type": "function",
      "constant": true
    },
    {
      "inputs": [
        {
          "internalType": "uint256",
          "name": "_epochDurationSec",
          "type": "uint256"
        }
      ],
      "name": "setEpochDurationSec",
      "outputs": [],
      "stateMutability": "nonpayable",
      "type": "function"
    },
    {
      "inputs": [
        {
          "internalType": "uint256",
          "name": "_targetDifficulty",
          "type": "uint256"
        }
      ],
      "name": "setTargetDifficulty",
      "outputs": [],
      "stateMutability": "nonpayable",
      "type": "function"
    },
    {
      "inputs": [],
      "name": "doHousekeeping",
      "outputs": [],
      "stateMutability": "nonpayable",
      "type": "function"
    },
    {
      "inputs": [
        {
          "internalType": "address",
          "name": "_address",
          "type": "address"
        },
        {
          "components": [
            {
              "internalType": "uint8",
              "name": "c",
              "type": "uint8"
            },
            {
              "internalType": "uint32",
              "name": "m",
              "type": "uint32"
            },
            {
              "internalType": "uint8",
              "name": "t",
              "type": "uint8"
            },
            {
              "internalType": "uint8",
              "name": "v",
              "type": "uint8"
            },
            {
              "internalType": "bytes32",
              "name": "k",
              "type": "bytes32"
            },
            {
              "internalType": "bytes",
              "name": "s",
              "type": "bytes"
            }
          ],
          "internalType": "struct BlockStorage.HashRecord",
          "name": "r",
          "type": "tuple"
        }
      ],
      "name": "storeNewRecord",
      "outputs": [],
      "stateMutability": "nonpayable",
      "type": "function"
    },
    {
      "inputs": [
        {
          "internalType": "address",
          "name": "_address",
          "type": "address"
        },
        {
          "internalType": "uint8",
          "name": "c",
          "type": "uint8"
        },
        {
          "internalType": "uint32",
          "name": "m",
          "type": "uint32"
        },
        {
          "internalType": "uint8",
          "name": "t",
          "type": "uint8"
        },
        {
          "internalType": "uint8",
          "name": "v",
          "type": "uint8"
        },
        {
          "internalType": "bytes32",
          "name": "k",
          "type": "bytes32"
        },
        {
          "internalType": "bytes",
          "name": "s",
          "type": "bytes"
        }
      ],
      "name": "storeNewRecordData",
      "outputs": [],
      "stateMutability": "nonpayable",
      "type": "function"
    },
    {
      "inputs": [
        {
          "internalType": "address",
          "name": "_address",
          "type": "address"
        },
        {
          "internalType": "bytes",
          "name": "_bytes",
          "type": "bytes"
        }
      ],
      "name": "storeNewRecordBytes",
      "outputs": [],
      "stateMutability": "nonpayable",
      "type": "function"
    },
    {
      "inputs": [
        {
          "internalType": "address[]",
          "name": "addresses",
          "type": "address[]"
        },
        {
          "internalType": "bytes[]",
          "name": "bb",
          "type": "bytes[]"
        }
      ],
      "name": "bulkStoreNewRecords",
      "outputs": [],
      "stateMutability": "nonpayable",
      "type": "function"
    },
    {
      "inputs": [
        {
          "internalType": "address",
          "name": "_address",
          "type": "address"
        },
        {
          "components": [
            {
              "internalType": "uint8",
              "name": "c",
              "type": "uint8"
            },
            {
              "internalType": "uint32",
              "name": "m",
              "type": "uint32"
            },
            {
              "internalType": "uint8",
              "name": "t",
              "type": "uint8"
            },
            {
              "internalType": "uint8",
              "name": "v",
              "type": "uint8"
            },
            {
              "internalType": "bytes32",
              "name": "k",
              "type": "bytes32"
            },
            {
              "internalType": "bytes",
              "name": "s",
              "type": "bytes"
            }
          ],
          "internalType": "struct BlockStorage.HashRecord[]",
          "name": "hh",
          "type": "tuple[]"
        }
      ],
      "name": "bulkStoreRecordsInc",
      "outputs": [],
      "stateMutability": "nonpayable",
      "type": "function"
    },
    {
      "inputs": [
        {
          "internalType": "address",
          "name": "_address",
          "type": "address"
        },
        {
          "internalType": "bytes[]",
          "name": "bb",
          "type": "bytes[]"
        }
      ],
      "name": "bulkStoreRecordBytesInc",
      "outputs": [],
      "stateMutability": "nonpayable",
      "type": "function"
    },
    {
      "inputs": [
        {
          "internalType": "address",
          "name": "_address",
          "type": "address"
        },
        {
          "internalType": "uint256[]",
          "name": "_hasIds",
          "type": "uint256[]"
        },
        {
          "components": [
            {
              "internalType": "uint8",
              "name": "c",
              "type": "uint8"
            },
            {
              "internalType": "uint32",
              "name": "m",
              "type": "uint32"
            },
            {
              "internalType": "uint8",
              "name": "t",
              "type": "uint8"
            },
            {
              "internalType": "uint8",
              "name": "v",
              "type": "uint8"
            },
            {
              "internalType": "bytes32",
              "name": "k",
              "type": "bytes32"
            },
            {
              "internalType": "bytes",
              "name": "s",
              "type": "bytes"
            }
          ],
          "internalType": "struct BlockStorage.HashRecord[]",
          "name": "hh",
          "type": "tuple[]"
        }
      ],
      "name": "bulkStoreRecords",
      "outputs": [],
      "stateMutability": "nonpayable",
      "type": "function"
    },
    {
      "inputs": [
        {
          "internalType": "address",
          "name": "_address",
          "type": "address"
        },
        {
          "internalType": "uint256[]",
          "name": "_hasIds",
          "type": "uint256[]"
        },
        {
          "internalType": "bytes[]",
          "name": "bb",
          "type": "bytes[]"
        }
      ],
      "name": "bulkStoreRecordBytes",
      "outputs": [],
      "stateMutability": "nonpayable",
      "type": "function"
    },
    {
      "inputs": [
        {
          "internalType": "address",
          "name": "_address",
          "type": "address"
        },
        {
          "internalType": "uint256",
          "name": "_index",
          "type": "uint256"
        }
      ],
      "name": "getBytesLen",
      "outputs": [
        {
          "internalType": "uint256",
          "name": "len",
          "type": "uint256"
        }
      ],
      "stateMutability": "view",
      "type": "function",
      "constant": true
    },
    {
      "inputs": [
        {
          "internalType": "address",
          "name": "_address",
          "type": "address"
        },
        {
          "internalType": "uint256",
          "name": "_idx",
          "type": "uint256"
        }
      ],
      "name": "decodeRecordBytes",
      "outputs": [
        {
          "internalType": "uint8",
          "name": "c",
          "type": "uint8"
        },
        {
          "internalType": "uint32",
          "name": "m",
          "type": "uint32"
        },
        {
          "internalType": "uint8",
          "name": "t",
          "type": "uint8"
        },
        {
          "internalType": "uint8",
          "name": "v",
          "type": "uint8"
        },
        {
          "internalType": "bytes32",
          "name": "k",
          "type": "bytes32"
        },
        {
          "internalType": "bytes",
          "name": "s",
          "type": "bytes"
        }
      ],
      "stateMutability": "view",
      "type": "function",
      "constant": true
    },
    {
      "inputs": [
        {
          "internalType": "uint256",
          "name": "_hashId",
          "type": "uint256"
        }
      ],
      "name": "decodeRecordBytes",
      "outputs": [
        {
          "internalType": "uint8",
          "name": "c",
          "type": "uint8"
        },
        {
          "internalType": "uint32",
          "name": "m",
          "type": "uint32"
        },
        {
          "internalType": "uint8",
          "name": "t",
          "type": "uint8"
        },
        {
          "internalType": "uint8",
          "name": "v",
          "type": "uint8"
        },
        {
          "internalType": "bytes32",
          "name": "k",
          "type": "bytes32"
        },
        {
          "internalType": "bytes",
          "name": "s",
          "type": "bytes"
        }
      ],
      "stateMutability": "view",
      "type": "function",
      "constant": true
    },
    {
      "inputs": [
        {
          "internalType": "bytes",
          "name": "_data",
          "type": "bytes"
        }
      ],
      "name": "decodeRecordBytes",
      "outputs": [
        {
          "internalType": "uint8",
          "name": "c",
          "type": "uint8"
        },
        {
          "internalType": "uint32",
          "name": "m",
          "type": "uint32"
        },
        {
          "internalType": "uint8",
          "name": "t",
          "type": "uint8"
        },
        {
          "internalType": "uint8",
          "name": "v",
          "type": "uint8"
        },
        {
          "internalType": "bytes32",
          "name": "k",
          "type": "bytes32"
        },
        {
          "internalType": "bytes",
          "name": "s",
          "type": "bytes"
        }
      ],
      "stateMutability": "pure",
      "type": "function",
      "constant": true
    },
    {
      "inputs": [
        {
          "internalType": "address",
          "name": "_address",
          "type": "address"
        }
      ],
      "name": "getHashIdsByAddress",
      "outputs": [
        {
          "internalType": "uint256[]",
          "name": "ids",
          "type": "uint256[]"
        }
      ],
      "stateMutability": "view",
      "type": "function",
      "constant": true
    },
    {
      "inputs": [
        {
          "internalType": "address",
          "name": "_address",
          "type": "address"
        }
      ],
      "name": "getRecordsByAddress",
      "outputs": [
        {
          "components": [
            {
              "internalType": "uint8",
              "name": "c",
              "type": "uint8"
            },
            {
              "internalType": "uint32",
              "name": "m",
              "type": "uint32"
            },
            {
              "internalType": "uint8",
              "name": "t",
              "type": "uint8"
            },
            {
              "internalType": "uint8",
              "name": "v",
              "type": "uint8"
            },
            {
              "internalType": "bytes32",
              "name": "k",
              "type": "bytes32"
            },
            {
              "internalType": "bytes",
              "name": "s",
              "type": "bytes"
            }
          ],
          "internalType": "struct BlockStorage.HashRecord[]",
          "name": "recs",
          "type": "tuple[]"
        }
      ],
      "stateMutability": "view",
      "type": "function",
      "constant": true
    }
  ],
  "bytecode": "0x60806040526014600655610258600755620186a06008553480156200002357600080fd5b5060405162001f0338038062001f038339810160408190526200004691620000ed565b62000051336200009d565b600083116200006257600162000064565b825b600a5581620000765760085462000078565b815b600c5542600b55806200008e5760065462000090565b805b600655506200011c915050565b600080546001600160a01b038381166001600160a01b0319831681178455604051919092169283917f8be0079c531659141344cd1fd0a4f28419497f9722a3daafe3b4186f6b6457e09190a35050565b6000806000606084860312156200010357600080fd5b8351925060208401519150604084015190509250925092565b611dd7806200012c6000396000f3fe608060405234801561001057600080fd5b50600436106101b05760003560e01c806385ae2fb7116100f557806385ae2fb7146103085780638b2db16e146103105780638da5cb5b14610319578063a3d2216d14610321578063a5cdb7e51461034c578063a6def3111461035f578063a9abec5b14610388578063ad88bb2714610391578063ba63245d146103b1578063c78d90d4146103d1578063cb48c1b6146103e4578063cf81e899146103f7578063d7580ce91461040a578063db658b0f1461041d578063e16165311461043d578063ee5f883214610450578063f1d46f3714610463578063f2fde38b1461046c57600080fd5b8062f7e6ee146101b557806306ffc5ea146101ca5780630747b9c1146101e65780630927ea0c1461020b5780630e86b75e146102145780630ff99d5914610227578063151b8f4e1461022f57806319cae4621461023857806327b50bfa146102415780632c292d7a1461025457806345fbbb8c1461026757806347efe9ab1461028757806369685c3614610290578063715018a6146102d157806374811f6f146102d957806376671808146102ec578063799f6335146102f5575b600080fd5b6101c86101c33660046114ea565b61047f565b005b6101d360095481565b6040519081526020015b60405180910390f35b6101f96101f4366004611571565b6105ce565b6040516101dd969594939291906115e1565b6101d36107d081565b6101c8610222366004611693565b61061b565b6101d3600181565b6101d360075481565b6101d3600c5481565b6101d361024f366004611571565b61066e565b6101c8610262366004611732565b610731565b61027a6102753660046117b2565b6108c9565b6040516101dd91906117cd565b6101d3600d5481565b6102b961029e366004611811565b6005602052600090815260409020546001600160a01b031681565b6040516001600160a01b0390911681526020016101dd565b6101c861099d565b6101c86102e7366004611811565b6109b1565b6101d3600a5481565b6101c8610303366004611811565b610a07565b6101c8610a93565b6101d360085481565b6102b9610bc6565b6101d361032f366004611571565b600260209081526000928352604080842090915290825290205481565b6101c861035a36600461182a565b610bd5565b6102b961036d366004611811565b6004602052600090815260409020546001600160a01b031681565b6101d3600b5481565b6103a461039f3660046117b2565b610c2f565b6040516101dd919061187c565b6101d36103bf3660046117b2565b60036020526000908152604090205481565b6101c86103df36600461192b565b610df9565b6101c86103f236600461192b565b610e47565b6101f9610405366004611811565b610edb565b6101f9610418366004611986565b610f9d565b61043061042b366004611811565b611046565b6040516101dd9190611a36565b6101c861044b366004611a49565b6110e0565b6101c861045e366004611732565b611161565b6101d360065481565b6101c861047a3660046117b2565b6111ae565b8281146104cf5760405162461bcd60e51b81526020600482015260196024820152780b062744082e4e4c2f24098cadccee8d0409ad2e6dac2e8c6d603b1b60448201526064015b60405180910390fd5b8261050e5760405162461bcd60e51b815260206004820152600f60248201526e58313a20456d70747920417272617960881b60448201526064016104c6565b60005b818110156105c7576105b585858381811061052e5761052e611a9d565b905060200201602081019061054391906117b2565b60096000815461055290611ac9565b918290555085858581811061056957610569611a9d565b905060200281019061057b9190611ae2565b8080601f01602080910402602001604051908101604052809392919081815260200183838082843760009201919091525061122792505050565b806105bf81611ac9565b915050610511565b5050505050565b6001600160a01b0382166000908152600260209081526040808320848452909152812054819081908190819060609061060690610edb565b949d939c50919a509850965090945092505050565b6106648860096000815461062e90611ac9565b9182905550604051610650908b908b908b908b908b908b908b90602001611b28565b604051602081830303815290604052611227565b5050505050505050565b6001600160a01b038216600090815260026020908152604080832084845282528083205483526001909152812080548291906106a990611b86565b80601f01602080910402602001604051908101604052809291908181526020018280546106d590611b86565b80156107225780601f106106f757610100808354040283529160200191610722565b820191906000526020600020905b81548152906001019060200180831161070557829003601f168201915b50509251979650505050505050565b60005b818110156108c1576108ae8686868481811061075257610752611a9d565b9050602002013585858581811061076b5761076b611a9d565b905060200281019061077d9190611bc0565b61078b906020810190611be0565b86868681811061079d5761079d611a9d565b90506020028101906107af9190611bc0565b6107c0906040810190602001611bfb565b8787878181106107d2576107d2611a9d565b90506020028101906107e49190611bc0565b6107f5906060810190604001611be0565b88888881811061080757610807611a9d565b90506020028101906108199190611bc0565b61082a906080810190606001611be0565b89898981811061083c5761083c611a9d565b905060200281019061084e9190611bc0565b608001358a8a8a81811061086457610864611a9d565b90506020028101906108769190611bc0565b6108849060a0810190611ae2565b60405160200161089a9796959493929190611b28565b6040516020818303038152906040526112e0565b50806108b981611ac9565b915050610734565b505050505050565b6001600160a01b038116600090815260036020526040902054606090806001600160401b038111156108fd576108fd611970565b604051908082528060200260200182016040528015610926578160200160208202803683370190505b50915060005b81811015610996576001600160a01b038416600090815260026020526040812090610958836001611c16565b81526020019081526020016000205483828151811061097957610979611a9d565b60209081029190910101528061098e81611ac9565b91505061092c565b5050919050565b6109a56113f0565b6109af600061144f565b565b6109b96113f0565b60008111610a025760405162461bcd60e51b815260206004820152601660248201527558313a20496c6c6567616c20446966666963756c747960501b60448201526064016104c6565b600855565b610a0f6113f0565b60008111610a5c5760405162461bcd60e51b815260206004820152601a6024820152792c189d1024b63632b3b0b61022b837b1b410223ab930ba34b7b760311b60448201526064016104c6565b6007819055600a546040518291907f361d876894ff3854d2e192162a59a0ce8d9e27637af1302a2b8af18e3b007b2490600090a350565b600754600b54610aa39042611c2f565b11156109af5742600b55600a8054906000610abd83611ac9565b919050555060006001600754610ad39190611c42565b9050600060646006546064610ae89190611c2f565b610af29084611c64565b610afc9190611c42565b9050600060646006546064610b119190611c16565b610b1b9085611c64565b610b259190611c42565b905081600d541015610b50576107d0600c6000828254610b459190611c2f565b90915550610b749050565b80600d541115610b74576107d0600c6000828254610b6e9190611c16565b90915550505b6000600d55600a54600c54600b546040517f3bb7b347508b7c148ec2094ac60d2e3d8b7595421025643f08b45cb78b326b5892610bb992908252602082015260400190565b60405180910390a2505050565b6000546001600160a01b031690565b610c2a83600960008154610be890611ac9565b91905081905584848080601f01602080910402602001604051908101604052809392919081815260200183838082843760009201919091525061122792505050565b505050565b6001600160a01b038116600090815260036020526040902054606090806001600160401b03811115610c6357610c63611970565b604051908082528060200260200182016040528015610cc557816020015b6040805160c081018252600080825260208083018290529282018190526060808301829052608083019190915260a08201528252600019909201910181610c815790505b50915060005b81811015610996576001600160a01b038416600090815260026020526040812081610cf7846001611c16565b8152602001908152602001600020549050610d1181610edb565b898881518110610d2357610d23611a9d565b60200260200101516000018a8981518110610d4057610d40611a9d565b60200260200101516020018b8a81518110610d5d57610d5d611a9d565b60200260200101516040018c8b81518110610d7a57610d7a611a9d565b60200260200101516060018d8c81518110610d9757610d97611a9d565b60200260200101516080018e8d81518110610db457610db4611a9d565b602090810291909101015160a001959095529490935260ff948516909352938316905263ffffffff909316909252911690525080610df181611ac9565b915050610ccb565b60005b81811015610e4157610e2e84600960008154610e1790611ac9565b918290555085858581811061076b5761076b611a9d565b5080610e3981611ac9565b915050610dfc565b50505050565b60005b81811015610e4157610ec884600960008154610e6590611ac9565b9182905550858585818110610e7c57610e7c611a9d565b9050602002810190610e8e9190611ae2565b8080601f0160208091040260200160405190810160405280939291908181526020018383808284376000920191909152506112e092505050565b5080610ed381611ac9565b915050610e4a565b60008060008060006060610f89600160008981526020019081526020016000208054610f0690611b86565b80601f0160208091040260200160405190810160405280929190818152602001828054610f3290611b86565b8015610f7f5780601f10610f5457610100808354040283529160200191610f7f565b820191906000526020600020905b815481529060010190602001808311610f6257829003601f168201915b5050505050610f9d565b949c939b5091995097509550909350915050565b80516001820151600583015160068401516007850151602780870151949593949293919291606091610fcf9082611c2f565b6001600160401b03811115610fe657610fe6611970565b6040519080825280601f01601f191660200182016040528015611010576020820181803683370190505b509150602082016027820360005b8181101561103957806028018b01518184015360010161101e565b5050505091939550919395565b6001602052600090815260409020805461105f90611b86565b80601f016020809104026020016040519081016040528092919081815260200182805461108b90611b86565b80156110d85780601f106110ad576101008083540402835291602001916110d8565b820191906000526020600020905b8154815290600101906020018083116110bb57829003601f168201915b505050505081565b61115d826009600081546110f390611ac9565b91829055506111056020850185611be0565b6111156040860160208701611bfb565b6111256060870160408801611be0565b6111356080880160608901611be0565b608088013561114760a08a018a611ae2565b6040516020016106509796959493929190611b28565b5050565b60005b818110156108c15761119b8686868481811061118257611182611a9d565b90506020020135858585818110610e7c57610e7c611a9d565b50806111a681611ac9565b915050611164565b6111b66113f0565b6001600160a01b03811661121b5760405162461bcd60e51b815260206004820152602660248201527f4f776e61626c653a206e6577206f776e657220697320746865207a65726f206160448201526564647265737360d01b60648201526084016104c6565b6112248161144f565b50565b6112328383836112e0565b61127c5760405162461bcd60e51b815260206004820152601b60248201527a58313a204475706c696361746520486173684964206f72204b657960281b60448201526064016104c6565b826001600160a01b0316600a54837fdf1fb391c3157eb3593a71fda03f806f05c81bd9d74426918a759f34fd9117a342856040516112bb929190611c7b565b60405180910390a4600d80549060006112d383611ac9565b9190505550610c2a610a93565b6000828152600460205260408120546001600160a01b031615611305575060006113e9565b600061131083610f9d565b506000818152600560205260409020549095506001600160a01b0316159350611341925050505760009150506113e9565b60008481526001602052604090206113598482611ce2565b506001600160a01b038516600090815260026020908152604080832060039092528220805487939190829061138d90611ac9565b9182905550815260208082019290925260409081016000908120939093558683526004825280832080546001600160a01b038a166001600160a01b03199182168117909255948452600590925290912080549092161790555060015b9392505050565b336113f9610bc6565b6001600160a01b0316146109af5760405162461bcd60e51b815260206004820181905260248201527f4f776e61626c653a2063616c6c6572206973206e6f7420746865206f776e657260448201526064016104c6565b600080546001600160a01b038381166001600160a01b0319831681178455604051919092169283917f8be0079c531659141344cd1fd0a4f28419497f9722a3daafe3b4186f6b6457e09190a35050565b60008083601f8401126114b157600080fd5b5081356001600160401b038111156114c857600080fd5b6020830191508360208260051b85010111156114e357600080fd5b9250929050565b6000806000806040858703121561150057600080fd5b84356001600160401b038082111561151757600080fd5b6115238883890161149f565b9096509450602087013591508082111561153c57600080fd5b506115498782880161149f565b95989497509550505050565b80356001600160a01b038116811461156c57600080fd5b919050565b6000806040838503121561158457600080fd5b61158d83611555565b946020939093013593505050565b6000815180845260005b818110156115c1576020818501810151868301820152016115a5565b506000602082860101526020601f19601f83011685010191505092915050565b60ff8716815263ffffffff8616602082015260ff8516604082015260ff8416606082015282608082015260c060a0820152600061162160c083018461159b565b98975050505050505050565b803560ff8116811461156c57600080fd5b803563ffffffff8116811461156c57600080fd5b60008083601f84011261166457600080fd5b5081356001600160401b0381111561167b57600080fd5b6020830191508360208285010111156114e357600080fd5b60008060008060008060008060e0898b0312156116af57600080fd5b6116b889611555565b97506116c660208a0161162d565b96506116d460408a0161163e565b95506116e260608a0161162d565b94506116f060808a0161162d565b935060a0890135925060c08901356001600160401b0381111561171257600080fd5b61171e8b828c01611652565b999c989b5096995094979396929594505050565b60008060008060006060868803121561174a57600080fd5b61175386611555565b945060208601356001600160401b038082111561176f57600080fd5b61177b89838a0161149f565b9096509450604088013591508082111561179457600080fd5b506117a18882890161149f565b969995985093965092949392505050565b6000602082840312156117c457600080fd5b6113e982611555565b6020808252825182820181905260009190848201906040850190845b81811015611805578351835292840192918401916001016117e9565b50909695505050505050565b60006020828403121561182357600080fd5b5035919050565b60008060006040848603121561183f57600080fd5b61184884611555565b925060208401356001600160401b0381111561186357600080fd5b61186f86828701611652565b9497909650939450505050565b60006020808301818452808551808352604092508286019150828160051b87010184880160005b8381101561191d57888303603f190185528151805160ff90811685528882015163ffffffff168986015287820151811688860152606080830151909116908501526080808201519085015260a09081015160c0918501829052906119098186018361159b565b9689019694505050908601906001016118a3565b509098975050505050505050565b60008060006040848603121561194057600080fd5b61194984611555565b925060208401356001600160401b0381111561196457600080fd5b61186f8682870161149f565b634e487b7160e01b600052604160045260246000fd5b60006020828403121561199857600080fd5b81356001600160401b03808211156119af57600080fd5b818401915084601f8301126119c357600080fd5b8135818111156119d5576119d5611970565b604051601f8201601f19908116603f011681019083821181831017156119fd576119fd611970565b81604052828152876020848701011115611a1657600080fd5b826020860160208301376000928101602001929092525095945050505050565b6020815260006113e9602083018461159b565b60008060408385031215611a5c57600080fd5b611a6583611555565b915060208301356001600160401b03811115611a8057600080fd5b830160c08186031215611a9257600080fd5b809150509250929050565b634e487b7160e01b600052603260045260246000fd5b634e487b7160e01b600052601160045260246000fd5b600060018201611adb57611adb611ab3565b5060010190565b6000808335601e19843603018112611af957600080fd5b8301803591506001600160401b03821115611b1357600080fd5b6020019150368190038213156114e357600080fd5b6001600160f81b031960f889811b821683526001600160e01b031960e08a901b16600184015287811b8216600584015286901b1660068201526007810184905260008284602784013750600091016027019081529695505050505050565b600181811c90821680611b9a57607f821691505b602082108103611bba57634e487b7160e01b600052602260045260246000fd5b50919050565b6000823560be19833603018112611bd657600080fd5b9190910192915050565b600060208284031215611bf257600080fd5b6113e98261162d565b600060208284031215611c0d57600080fd5b6113e98261163e565b80820180821115611c2957611c29611ab3565b92915050565b81810381811115611c2957611c29611ab3565b600082611c5f57634e487b7160e01b600052601260045260246000fd5b500490565b8082028115828204841417611c2957611c29611ab3565b828152604060208201526000611c94604083018461159b565b949350505050565b601f821115610c2a57600081815260208120601f850160051c81016020861015611cc35750805b601f850160051c820191505b818110156108c157828155600101611ccf565b81516001600160401b03811115611cfb57611cfb611970565b611d0f81611d098454611b86565b84611c9c565b602080601f831160018114611d445760008415611d2c5750858301515b600019600386901b1c1916600185901b1785556108c1565b600085815260208120601f198616915b82811015611d7357888601518255948401946001909101908401611d54565b5085821015611d915787850151600019600388901b60f8161c191681555b5050505050600190811b0190555056fea26469706673582212207e618818401f1d232a29a80e944fce27595bdcbc10aa659391f4eaf3aea3c50664736f6c63430008140033",
  "immutableReferences": {},
  "source": "// SPDX-License-Identifier: MIT\npragma solidity ^0.8.20;\npragma abicoder v2;  // Enable ABI coder v2\n\nimport \"@openzeppelin/contracts/access/Ownable.sol\";\n\ncontract BlockStorage is Ownable {\n    struct HashRecord {\n        uint8 c;\n        uint32 m;\n        uint8 t;\n        uint8 v;\n        bytes32 k;\n        bytes s;\n    }\n\n    uint256 public constant TARGET_BLOCK_TIME_S = 1;\n    uint256 public constant DIFFICULTY_ADJUSTMENT = 2_000;\n\n    // hash ID => hash record\n    mapping(uint256 => bytes) public hashRecords;\n    // address => idx => hash ID\n    mapping(address => mapping(uint256 => uint256)) public hashIdsByAddress;\n    // address => record counter\n    mapping(address => uint256) public recordCount;\n    // hash ID => account address\n    mapping(uint256 => address) public addressesByHashId;\n    // key => account address\n    mapping(bytes32 => address) public addressesByKey;\n    // hourly timestamp => hash ID => account address\n    // mapping(uint256 => mapping(uint256 => address)) public hourlyRecords;\n\n    uint256 public variance = 20;               // is set in constructor\n    uint256 public epochDurationSec = 600;      // is set by authority\n    // uint256 public epochDurationSec = 3_600;       // is set by authority\n    uint256 public targetDifficulty = 100_000;  // is set by authority\n    uint256 public currentHashId;               // increments with each new Hash\n    uint256 public currentEpoch;                // increments every epoch\n    uint256 public currentEpochTs;              // is set every epoch\n    uint256 public difficulty;                  // ie set every epoch\n    uint256 public epochHashCounter;            // resets every epoch\n\n    constructor(uint256 _currentEpoch, uint256 _difficulty, uint256 _variance) {\n        currentEpoch = _currentEpoch > 0 ? _currentEpoch : 1;\n        difficulty = _difficulty > 0 ? _difficulty : targetDifficulty;\n        currentEpochTs = block.timestamp;\n        variance = _variance > 0 ? _variance : variance;\n    }\n\n    event NewHash(uint256 indexed hashId, uint256 indexed epoch, address indexed account, uint256 ts, bytes _bytes);\n    event NewEpoch(uint256 indexed epoch, uint256 difficulty, uint256 ts);\n    event EpochDurationSet(uint256 indexed epoch, uint256 indexed duration);\n    event TargetDifficultySet(uint256 indexed epoch, uint256 indexed difficulty);\n\n    function setEpochDurationSec(uint256 _epochDurationSec) external onlyOwner {\n        require(_epochDurationSec > 0, 'X1: Illegal Epoch Duration');\n        epochDurationSec = _epochDurationSec;\n        emit EpochDurationSet(currentEpoch, _epochDurationSec);\n    }\n\n    function setTargetDifficulty(uint256 _targetDifficulty) external onlyOwner {\n        require(_targetDifficulty > 0, 'X1: Illegal Difficulty');\n        targetDifficulty = _targetDifficulty;\n    }\n\n    function doHousekeeping() public {\n        if (block.timestamp - currentEpochTs > epochDurationSec) {\n            currentEpochTs = block.timestamp;\n            currentEpoch++;\n            uint256 targetHashCount = epochDurationSec / TARGET_BLOCK_TIME_S;\n            uint256 lowerBound = targetHashCount * (100 - variance) / 100;\n            uint256 upperBound = targetHashCount * (100 + variance) / 100;\n            if (epochHashCounter < lowerBound) {\n                difficulty -= DIFFICULTY_ADJUSTMENT;\n            } else if (epochHashCounter > upperBound) {\n                difficulty += DIFFICULTY_ADJUSTMENT;\n            }\n            epochHashCounter = 0;\n            emit NewEpoch(currentEpoch, difficulty, currentEpochTs);\n        }\n    }\n\n    function _storeRecord(address _address, uint256 _hashId, bytes memory _bytes) internal returns (bool) {\n        if (addressesByHashId[_hashId] != address(0)) return false;\n        ( , , , , bytes32 k, ) = decodeRecordBytes(_bytes);\n        if (addressesByKey[k] != address(0)) return false;\n\n        hashRecords[_hashId] = _bytes;\n        hashIdsByAddress[_address][++recordCount[_address]] = _hashId;\n        addressesByHashId[_hashId] = _address;\n        addressesByKey[k] = _address;\n        return true;\n    }\n\n    function _storeNewRecord(address _address, uint256 _hashId, bytes memory _bytes) internal {\n        require(_storeRecord(_address, _hashId, _bytes), 'X1: Duplicate HashId or Key');\n        emit NewHash(_hashId, currentEpoch, _address, block.timestamp, _bytes);\n        epochHashCounter++;\n        // this is done as the last step to avoid using new epoch values\n        doHousekeeping();   // check / start new epoch if required\n    }\n\n    function storeNewRecord(address _address, HashRecord calldata r) external {\n        _storeNewRecord(_address, ++currentHashId, abi.encodePacked(r.c, r.m, r.t, r.v, r.k, r.s));\n    }\n\n    function storeNewRecordData(address _address, uint8 c, uint32 m, uint8 t, uint8 v, bytes32 k, bytes calldata s) external {\n        _storeNewRecord(_address, ++currentHashId, abi.encodePacked(c, m, t, v, k, s));\n    }\n\n    function storeNewRecordBytes(address _address, bytes calldata _bytes) external {\n        _storeNewRecord(_address, ++currentHashId, _bytes);\n    }\n\n    function bulkStoreNewRecords(address[] calldata addresses, bytes[] calldata bb) external {\n        require(addresses.length == bb.length, 'X1: Array Length Mismatch');\n        require(addresses.length > 0, 'X1: Empty Array');\n        for (uint i = 0; i < bb.length; i++) {\n            _storeNewRecord(addresses[i], ++currentHashId, bb[i]);\n        }\n    }\n\n    function bulkStoreRecordsInc(address _address, HashRecord[] calldata hh) external {\n        for (uint i = 0; i < hh.length; i++) {\n            _storeRecord(_address, ++currentHashId, abi.encodePacked(hh[i].c, hh[i].m, hh[i].t, hh[i].v, hh[i].k, hh[i].s));\n        }\n    }\n\n    function bulkStoreRecordBytesInc(address _address, bytes[] calldata bb) external {\n        for (uint i = 0; i < bb.length; i++) {\n            _storeRecord(_address, ++currentHashId, bb[i]);\n        }\n    }\n\n    function bulkStoreRecords(address _address, uint256[] calldata _hasIds, HashRecord[] calldata hh) external {\n        for (uint i = 0; i < hh.length; i++) {\n            _storeRecord(_address, _hasIds[i], abi.encodePacked(hh[i].c, hh[i].m, hh[i].t, hh[i].v, hh[i].k, hh[i].s));\n        }\n    }\n\n    function bulkStoreRecordBytes(address _address, uint256[] calldata _hasIds, bytes[] calldata bb) external {\n        for (uint i = 0; i < bb.length; i++) {\n            _storeRecord(_address, _hasIds[i], bb[i]);\n        }\n    }\n\n    function getBytesLen(address _address, uint256 _index) external view returns (uint len) {\n        bytes memory _data = hashRecords[hashIdsByAddress[_address][_index]];\n        assembly {\n            len := mload(_data)\n        }\n    }\n\n    function decodeRecordBytes(bytes memory _data)\n        public\n        pure\n        returns (uint8 c, uint32 m, uint8 t, uint8 v, bytes32 k, bytes memory s)\n    {\n        uint len;\n        assembly {\n            len := mload(_data)\n            c := mload(add(_data, 1))\n            m := mload(add(_data, 5))\n            t := mload(add(_data, 6))\n            v := mload(add(_data, 7))\n            k := mload(add(_data, 39))\n        }\n        s = new bytes(len - 39);\n        assembly {\n        // Skip the first 32 bytes reserved for the length of the memory array\n            let offset := add(s, 0x20)\n            let count := sub(len, 39)\n            for { let i := 0} lt(i, count) { i := add(i, 1) } {\n                mstore8(add(offset, i), mload(add(_data, add(40, i))))\n            }\n        }\n    }\n\n    function decodeRecordBytes(uint256 _hashId)\n        public\n        view\n        returns (uint8 c, uint32 m, uint8 t, uint8 v, bytes32 k, bytes memory s)\n    {\n        return decodeRecordBytes(hashRecords[_hashId]);\n    }\n\n    function decodeRecordBytes(address _address, uint256 _idx)\n        public\n        view\n        returns (uint8 c, uint32 m, uint8 t, uint8 v, bytes32 k, bytes memory s)\n    {\n        return decodeRecordBytes(hashIdsByAddress[_address][_idx]);\n    }\n\n    function getHashIdsByAddress(address _address) public view returns (uint256[] memory ids) {\n        uint256 count = recordCount[_address];\n        ids = new uint256[](count);\n        for (uint i = 0; i < count; i++) {\n            ids[i] = hashIdsByAddress[_address][i+1];\n        }\n    }\n\n    function getRecordsByAddress(address _address) public view returns (HashRecord[] memory recs) {\n        uint256 count = recordCount[_address];\n        recs = new HashRecord[](count);\n        for (uint i = 0; i < count; i++) {\n            uint256 hashId = hashIdsByAddress[_address][i+1];\n            (recs[i].c, recs[i].m, recs[i].t, recs[i].v, recs[i].k, recs[i].s) = decodeRecordBytes(hashId);\n        }\n    }\n}\n",
  "sourcePath": "/Users/lbelyaev/dev/x1-block-storage/contracts/BlockStorage.sol",
  "compiler": {
    "name": "solc",
    "version": "0.8.20+commit.a1b79de6.Emscripten.clang"
  },
  "schemaVersion": "3.4.16",
  "updatedAt": "2023-12-15T01:42:11.415Z",
  "networkType": "ethereum",
  "devdoc": {
    "kind": "dev",
    "methods": {
      "owner()": {
        "details": "Returns the address of the current owner."
      },
      "renounceOwnership()": {
        "details": "Leaves the contract without owner. It will not be possible to call `onlyOwner` functions. Can only be called by the current owner. NOTE: Renouncing ownership will leave the contract without an owner, thereby disabling any functionality that is only available to the owner."
      },
      "transferOwnership(address)": {
        "details": "Transfers ownership of the contract to a new account (`newOwner`). Can only be called by the current owner."
      }
    },
    "version": 1
  },
  "userdoc": {
    "kind": "user",
    "methods": {},
    "version": 1
  }
}