{
  "contractName": "BlockStorage",
  "abi": [
    {
      "inputs": [
        {
          "internalType": "uint256",
          "name": "_currentEpoch",
          "type": "uint256"
        },
        {
          "internalType": "uint256",
          "name": "_difficulty",
          "type": "uint256"
        }
      ],
      "stateMutability": "nonpayable",
      "type": "constructor"
    },
    {
      "anonymous": false,
      "inputs": [
        {
          "indexed": true,
          "internalType": "uint256",
          "name": "epoch",
          "type": "uint256"
        },
        {
          "indexed": false,
          "internalType": "uint256",
          "name": "reward",
          "type": "uint256"
        },
        {
          "indexed": false,
          "internalType": "uint256",
          "name": "ts",
          "type": "uint256"
        }
      ],
      "name": "BaseRewardSet",
      "type": "event"
    },
    {
      "anonymous": false,
      "inputs": [
        {
          "indexed": true,
          "internalType": "uint256",
          "name": "epoch",
          "type": "uint256"
        },
        {
          "indexed": true,
          "internalType": "uint256",
          "name": "adjustment",
          "type": "uint256"
        }
      ],
      "name": "DifficultyAdjustmentSet",
      "type": "event"
    },
    {
      "anonymous": false,
      "inputs": [
        {
          "indexed": true,
          "internalType": "uint256",
          "name": "epoch",
          "type": "uint256"
        },
        {
          "indexed": true,
          "internalType": "uint256",
          "name": "difficulty",
          "type": "uint256"
        }
      ],
      "name": "DifficultySet",
      "type": "event"
    },
    {
      "anonymous": false,
      "inputs": [
        {
          "indexed": true,
          "internalType": "uint256",
          "name": "epoch",
          "type": "uint256"
        },
        {
          "indexed": true,
          "internalType": "uint256",
          "name": "duration",
          "type": "uint256"
        }
      ],
      "name": "EpochDurationSet",
      "type": "event"
    },
    {
      "anonymous": false,
      "inputs": [
        {
          "indexed": true,
          "internalType": "uint256",
          "name": "epoch",
          "type": "uint256"
        },
        {
          "indexed": false,
          "internalType": "uint256",
          "name": "difficulty",
          "type": "uint256"
        },
        {
          "indexed": false,
          "internalType": "uint256",
          "name": "ts",
          "type": "uint256"
        }
      ],
      "name": "NewEpoch",
      "type": "event"
    },
    {
      "anonymous": false,
      "inputs": [
        {
          "indexed": true,
          "internalType": "uint256",
          "name": "hashId",
          "type": "uint256"
        },
        {
          "indexed": true,
          "internalType": "uint256",
          "name": "epoch",
          "type": "uint256"
        },
        {
          "indexed": true,
          "internalType": "address",
          "name": "account",
          "type": "address"
        },
        {
          "indexed": false,
          "internalType": "uint256",
          "name": "ts",
          "type": "uint256"
        },
        {
          "indexed": false,
          "internalType": "bytes",
          "name": "_bytes",
          "type": "bytes"
        }
      ],
      "name": "NewHash",
      "type": "event"
    },
    {
      "anonymous": false,
      "inputs": [
        {
          "indexed": true,
          "internalType": "uint256",
          "name": "logId",
          "type": "uint256"
        },
        {
          "indexed": true,
          "internalType": "uint256",
          "name": "epoch",
          "type": "uint256"
        },
        {
          "indexed": true,
          "internalType": "uint256",
          "name": "ts",
          "type": "uint256"
        },
        {
          "indexed": false,
          "internalType": "uint256",
          "name": "count",
          "type": "uint256"
        },
        {
          "indexed": false,
          "internalType": "bytes",
          "name": "_bytes",
          "type": "bytes"
        }
      ],
      "name": "NewHashLog",
      "type": "event"
    },
    {
      "anonymous": false,
      "inputs": [
        {
          "indexed": true,
          "internalType": "address",
          "name": "previousOwner",
          "type": "address"
        },
        {
          "indexed": true,
          "internalType": "address",
          "name": "newOwner",
          "type": "address"
        }
      ],
      "name": "OwnershipTransferred",
      "type": "event"
    },
    {
      "anonymous": false,
      "inputs": [
        {
          "indexed": false,
          "internalType": "address",
          "name": "account",
          "type": "address"
        }
      ],
      "name": "Paused",
      "type": "event"
    },
    {
      "anonymous": false,
      "inputs": [
        {
          "indexed": false,
          "internalType": "address",
          "name": "account",
          "type": "address"
        }
      ],
      "name": "Unpaused",
      "type": "event"
    },
    {
      "anonymous": false,
      "inputs": [
        {
          "indexed": true,
          "internalType": "uint256",
          "name": "epoch",
          "type": "uint256"
        },
        {
          "indexed": true,
          "internalType": "uint256",
          "name": "variance",
          "type": "uint256"
        }
      ],
      "name": "VarianceSet",
      "type": "event"
    },
    {
      "inputs": [],
      "name": "AUTHORS",
      "outputs": [
        {
          "internalType": "string",
          "name": "",
          "type": "string"
        }
      ],
      "stateMutability": "view",
      "type": "function",
      "constant": true
    },
    {
      "inputs": [],
      "name": "BASE_REWARD",
      "outputs": [
        {
          "internalType": "uint256",
          "name": "",
          "type": "uint256"
        }
      ],
      "stateMutability": "view",
      "type": "function",
      "constant": true
    },
    {
      "inputs": [],
      "name": "BASE_REWARD_INTERVAL_S",
      "outputs": [
        {
          "internalType": "uint256",
          "name": "",
          "type": "uint256"
        }
      ],
      "stateMutability": "view",
      "type": "function",
      "constant": true
    },
    {
      "inputs": [],
      "name": "DEFAULT_DIFFICULTY",
      "outputs": [
        {
          "internalType": "uint256",
          "name": "",
          "type": "uint256"
        }
      ],
      "stateMutability": "view",
      "type": "function",
      "constant": true
    },
    {
      "inputs": [],
      "name": "GENESIS_TS",
      "outputs": [
        {
          "internalType": "uint256",
          "name": "",
          "type": "uint256"
        }
      ],
      "stateMutability": "view",
      "type": "function",
      "constant": true
    },
    {
      "inputs": [],
      "name": "GENESIS_TWEET",
      "outputs": [
        {
          "internalType": "string",
          "name": "",
          "type": "string"
        }
      ],
      "stateMutability": "view",
      "type": "function",
      "constant": true
    },
    {
      "inputs": [],
      "name": "TARGET_BLOCK_TIME_S",
      "outputs": [
        {
          "internalType": "uint256",
          "name": "",
          "type": "uint256"
        }
      ],
      "stateMutability": "view",
      "type": "function",
      "constant": true
    },
    {
      "inputs": [
        {
          "internalType": "uint256",
          "name": "",
          "type": "uint256"
        }
      ],
      "name": "addressesByHashId",
      "outputs": [
        {
          "internalType": "address",
          "name": "",
          "type": "address"
        }
      ],
      "stateMutability": "view",
      "type": "function",
      "constant": true
    },
    {
      "inputs": [
        {
          "internalType": "bytes32",
          "name": "",
          "type": "bytes32"
        }
      ],
      "name": "addressesByKey",
      "outputs": [
        {
          "internalType": "address",
          "name": "",
          "type": "address"
        }
      ],
      "stateMutability": "view",
      "type": "function",
      "constant": true
    },
    {
      "inputs": [],
      "name": "currentEpoch",
      "outputs": [
        {
          "internalType": "uint256",
          "name": "",
          "type": "uint256"
        }
      ],
      "stateMutability": "view",
      "type": "function",
      "constant": true
    },
    {
      "inputs": [],
      "name": "currentEpochTs",
      "outputs": [
        {
          "internalType": "uint256",
          "name": "",
          "type": "uint256"
        }
      ],
      "stateMutability": "view",
      "type": "function",
      "constant": true
    },
    {
      "inputs": [],
      "name": "currentHashId",
      "outputs": [
        {
          "internalType": "uint256",
          "name": "",
          "type": "uint256"
        }
      ],
      "stateMutability": "view",
      "type": "function",
      "constant": true
    },
    {
      "inputs": [],
      "name": "currentLogId",
      "outputs": [
        {
          "internalType": "uint256",
          "name": "",
          "type": "uint256"
        }
      ],
      "stateMutability": "view",
      "type": "function",
      "constant": true
    },
    {
      "inputs": [],
      "name": "currentReward",
      "outputs": [
        {
          "internalType": "uint256",
          "name": "",
          "type": "uint256"
        }
      ],
      "stateMutability": "view",
      "type": "function",
      "constant": true
    },
    {
      "inputs": [],
      "name": "currentRewardTs",
      "outputs": [
        {
          "internalType": "uint256",
          "name": "",
          "type": "uint256"
        }
      ],
      "stateMutability": "view",
      "type": "function",
      "constant": true
    },
    {
      "inputs": [],
      "name": "difficulty",
      "outputs": [
        {
          "internalType": "uint256",
          "name": "",
          "type": "uint256"
        }
      ],
      "stateMutability": "view",
      "type": "function",
      "constant": true
    },
    {
      "inputs": [],
      "name": "difficultyAdjustment",
      "outputs": [
        {
          "internalType": "uint256",
          "name": "",
          "type": "uint256"
        }
      ],
      "stateMutability": "view",
      "type": "function",
      "constant": true
    },
    {
      "inputs": [],
      "name": "epochDurationSec",
      "outputs": [
        {
          "internalType": "uint256",
          "name": "",
          "type": "uint256"
        }
      ],
      "stateMutability": "view",
      "type": "function",
      "constant": true
    },
    {
      "inputs": [],
      "name": "epochHashCounter",
      "outputs": [
        {
          "internalType": "uint256",
          "name": "",
          "type": "uint256"
        }
      ],
      "stateMutability": "view",
      "type": "function",
      "constant": true
    },
    {
      "inputs": [
        {
          "internalType": "address",
          "name": "",
          "type": "address"
        },
        {
          "internalType": "uint256",
          "name": "",
          "type": "uint256"
        }
      ],
      "name": "hashIdsByAddress",
      "outputs": [
        {
          "internalType": "uint256",
          "name": "",
          "type": "uint256"
        }
      ],
      "stateMutability": "view",
      "type": "function",
      "constant": true
    },
    {
      "inputs": [
        {
          "internalType": "uint256",
          "name": "",
          "type": "uint256"
        }
      ],
      "name": "hashRecords",
      "outputs": [
        {
          "internalType": "bytes",
          "name": "",
          "type": "bytes"
        }
      ],
      "stateMutability": "view",
      "type": "function",
      "constant": true
    },
    {
      "inputs": [],
      "name": "owner",
      "outputs": [
        {
          "internalType": "address",
          "name": "",
          "type": "address"
        }
      ],
      "stateMutability": "view",
      "type": "function",
      "constant": true
    },
    {
      "inputs": [],
      "name": "paused",
      "outputs": [
        {
          "internalType": "bool",
          "name": "",
          "type": "bool"
        }
      ],
      "stateMutability": "view",
      "type": "function",
      "constant": true
    },
    {
      "inputs": [
        {
          "internalType": "address",
          "name": "",
          "type": "address"
        }
      ],
      "name": "recordCount",
      "outputs": [
        {
          "internalType": "uint256",
          "name": "",
          "type": "uint256"
        }
      ],
      "stateMutability": "view",
      "type": "function",
      "constant": true
    },
    {
      "inputs": [],
      "name": "renounceOwnership",
      "outputs": [],
      "stateMutability": "nonpayable",
      "type": "function"
    },
    {
      "inputs": [
        {
          "internalType": "address",
          "name": "newOwner",
          "type": "address"
        }
      ],
      "name": "transferOwnership",
      "outputs": [],
      "stateMutability": "nonpayable",
      "type": "function"
    },
    {
      "inputs": [],
      "name": "variance",
      "outputs": [
        {
          "internalType": "uint256",
          "name": "",
          "type": "uint256"
        }
      ],
      "stateMutability": "view",
      "type": "function",
      "constant": true
    },
    {
      "inputs": [
        {
          "internalType": "uint256",
          "name": "_variance",
          "type": "uint256"
        }
      ],
      "name": "setVariance",
      "outputs": [],
      "stateMutability": "nonpayable",
      "type": "function"
    },
    {
      "inputs": [
        {
          "internalType": "uint256",
          "name": "_epochDurationSec",
          "type": "uint256"
        }
      ],
      "name": "setEpochDurationSec",
      "outputs": [],
      "stateMutability": "nonpayable",
      "type": "function"
    },
    {
      "inputs": [
        {
          "internalType": "uint256",
          "name": "_difficulty",
          "type": "uint256"
        }
      ],
      "name": "setDifficulty",
      "outputs": [],
      "stateMutability": "nonpayable",
      "type": "function"
    },
    {
      "inputs": [
        {
          "internalType": "uint256",
          "name": "_difficultyAdjustment",
          "type": "uint256"
        }
      ],
      "name": "setDifficultyAdjustment",
      "outputs": [],
      "stateMutability": "nonpayable",
      "type": "function"
    },
    {
      "inputs": [],
      "name": "lockDifficulty",
      "outputs": [],
      "stateMutability": "nonpayable",
      "type": "function"
    },
    {
      "inputs": [],
      "name": "unlockDifficulty",
      "outputs": [],
      "stateMutability": "nonpayable",
      "type": "function"
    },
    {
      "inputs": [],
      "name": "doFullHousekeeping",
      "outputs": [],
      "stateMutability": "nonpayable",
      "type": "function"
    },
    {
      "inputs": [],
      "name": "doHousekeeping",
      "outputs": [],
      "stateMutability": "nonpayable",
      "type": "function"
    },
    {
      "inputs": [
        {
          "components": [
            {
              "internalType": "uint8",
              "name": "c",
              "type": "uint8"
            },
            {
              "internalType": "uint32",
              "name": "m",
              "type": "uint32"
            },
            {
              "internalType": "uint8",
              "name": "t",
              "type": "uint8"
            },
            {
              "internalType": "uint8",
              "name": "v",
              "type": "uint8"
            },
            {
              "internalType": "bytes32",
              "name": "k",
              "type": "bytes32"
            },
            {
              "internalType": "bytes",
              "name": "s",
              "type": "bytes"
            }
          ],
          "internalType": "struct BlockStorage.HashRecord",
          "name": "r",
          "type": "tuple"
        }
      ],
      "name": "storeNewRecord",
      "outputs": [],
      "stateMutability": "nonpayable",
      "type": "function"
    },
    {
      "inputs": [
        {
          "internalType": "address",
          "name": "_address",
          "type": "address"
        },
        {
          "components": [
            {
              "internalType": "uint8",
              "name": "c",
              "type": "uint8"
            },
            {
              "internalType": "uint32",
              "name": "m",
              "type": "uint32"
            },
            {
              "internalType": "uint8",
              "name": "t",
              "type": "uint8"
            },
            {
              "internalType": "uint8",
              "name": "v",
              "type": "uint8"
            },
            {
              "internalType": "bytes32",
              "name": "k",
              "type": "bytes32"
            },
            {
              "internalType": "bytes",
              "name": "s",
              "type": "bytes"
            }
          ],
          "internalType": "struct BlockStorage.HashRecord",
          "name": "r",
          "type": "tuple"
        }
      ],
      "name": "storeNewRecord",
      "outputs": [],
      "stateMutability": "nonpayable",
      "type": "function"
    },
    {
      "inputs": [
        {
          "internalType": "address",
          "name": "_address",
          "type": "address"
        },
        {
          "internalType": "uint8",
          "name": "c",
          "type": "uint8"
        },
        {
          "internalType": "uint32",
          "name": "m",
          "type": "uint32"
        },
        {
          "internalType": "uint8",
          "name": "t",
          "type": "uint8"
        },
        {
          "internalType": "uint8",
          "name": "v",
          "type": "uint8"
        },
        {
          "internalType": "bytes32",
          "name": "k",
          "type": "bytes32"
        },
        {
          "internalType": "bytes",
          "name": "s",
          "type": "bytes"
        }
      ],
      "name": "storeNewRecordData",
      "outputs": [],
      "stateMutability": "nonpayable",
      "type": "function"
    },
    {
      "inputs": [
        {
          "internalType": "uint8",
          "name": "c",
          "type": "uint8"
        },
        {
          "internalType": "uint32",
          "name": "m",
          "type": "uint32"
        },
        {
          "internalType": "uint8",
          "name": "t",
          "type": "uint8"
        },
        {
          "internalType": "uint8",
          "name": "v",
          "type": "uint8"
        },
        {
          "internalType": "bytes32",
          "name": "k",
          "type": "bytes32"
        },
        {
          "internalType": "bytes",
          "name": "s",
          "type": "bytes"
        }
      ],
      "name": "storeNewRecordData",
      "outputs": [],
      "stateMutability": "nonpayable",
      "type": "function"
    },
    {
      "inputs": [
        {
          "internalType": "address",
          "name": "_address",
          "type": "address"
        },
        {
          "internalType": "bytes",
          "name": "_bytes",
          "type": "bytes"
        }
      ],
      "name": "storeNewRecordBytes",
      "outputs": [],
      "stateMutability": "nonpayable",
      "type": "function"
    },
    {
      "inputs": [
        {
          "internalType": "bytes",
          "name": "_bytes",
          "type": "bytes"
        }
      ],
      "name": "storeNewRecordBytes",
      "outputs": [],
      "stateMutability": "nonpayable",
      "type": "function"
    },
    {
      "inputs": [
        {
          "internalType": "address[]",
          "name": "addresses",
          "type": "address[]"
        },
        {
          "internalType": "bytes[]",
          "name": "bb",
          "type": "bytes[]"
        }
      ],
      "name": "bulkStoreNewRecordsInc",
      "outputs": [],
      "stateMutability": "nonpayable",
      "type": "function"
    },
    {
      "inputs": [
        {
          "internalType": "address[]",
          "name": "addresses",
          "type": "address[]"
        },
        {
          "internalType": "bytes[]",
          "name": "bb",
          "type": "bytes[]"
        }
      ],
      "name": "bulkStoreRecordBytes",
      "outputs": [],
      "stateMutability": "nonpayable",
      "type": "function"
    },
    {
      "inputs": [
        {
          "internalType": "bytes[]",
          "name": "bb",
          "type": "bytes[]"
        }
      ],
      "name": "logStoreRecordBytes",
      "outputs": [],
      "stateMutability": "nonpayable",
      "type": "function"
    },
    {
      "inputs": [
        {
          "internalType": "bytes",
          "name": "blob",
          "type": "bytes"
        }
      ],
      "name": "logStoreRecordBlob",
      "outputs": [],
      "stateMutability": "nonpayable",
      "type": "function"
    },
    {
      "inputs": [
        {
          "internalType": "address",
          "name": "_address",
          "type": "address"
        },
        {
          "internalType": "uint256",
          "name": "_index",
          "type": "uint256"
        }
      ],
      "name": "getBytesLen",
      "outputs": [
        {
          "internalType": "uint256",
          "name": "len",
          "type": "uint256"
        }
      ],
      "stateMutability": "view",
      "type": "function",
      "constant": true
    },
    {
      "inputs": [
        {
          "internalType": "address",
          "name": "_address",
          "type": "address"
        },
        {
          "internalType": "uint256",
          "name": "_idx",
          "type": "uint256"
        }
      ],
      "name": "decodeRecordBytes",
      "outputs": [
        {
          "internalType": "uint8",
          "name": "c",
          "type": "uint8"
        },
        {
          "internalType": "uint32",
          "name": "m",
          "type": "uint32"
        },
        {
          "internalType": "uint8",
          "name": "t",
          "type": "uint8"
        },
        {
          "internalType": "uint8",
          "name": "v",
          "type": "uint8"
        },
        {
          "internalType": "bytes32",
          "name": "k",
          "type": "bytes32"
        },
        {
          "internalType": "bytes",
          "name": "s",
          "type": "bytes"
        }
      ],
      "stateMutability": "view",
      "type": "function",
      "constant": true
    },
    {
      "inputs": [
        {
          "internalType": "uint256",
          "name": "_hashId",
          "type": "uint256"
        }
      ],
      "name": "decodeRecordBytes",
      "outputs": [
        {
          "internalType": "uint8",
          "name": "c",
          "type": "uint8"
        },
        {
          "internalType": "uint32",
          "name": "m",
          "type": "uint32"
        },
        {
          "internalType": "uint8",
          "name": "t",
          "type": "uint8"
        },
        {
          "internalType": "uint8",
          "name": "v",
          "type": "uint8"
        },
        {
          "internalType": "bytes32",
          "name": "k",
          "type": "bytes32"
        },
        {
          "internalType": "bytes",
          "name": "s",
          "type": "bytes"
        }
      ],
      "stateMutability": "view",
      "type": "function",
      "constant": true
    },
    {
      "inputs": [
        {
          "internalType": "bytes",
          "name": "_data",
          "type": "bytes"
        }
      ],
      "name": "decodeRecordBytes",
      "outputs": [
        {
          "internalType": "uint8",
          "name": "c",
          "type": "uint8"
        },
        {
          "internalType": "uint32",
          "name": "m",
          "type": "uint32"
        },
        {
          "internalType": "uint8",
          "name": "t",
          "type": "uint8"
        },
        {
          "internalType": "uint8",
          "name": "v",
          "type": "uint8"
        },
        {
          "internalType": "bytes32",
          "name": "k",
          "type": "bytes32"
        },
        {
          "internalType": "bytes",
          "name": "s",
          "type": "bytes"
        }
      ],
      "stateMutability": "pure",
      "type": "function",
      "constant": true
    },
    {
      "inputs": [
        {
          "internalType": "address",
          "name": "_address",
          "type": "address"
        }
      ],
      "name": "getHashIdsByAddress",
      "outputs": [
        {
          "internalType": "uint256[]",
          "name": "ids",
          "type": "uint256[]"
        }
      ],
      "stateMutability": "view",
      "type": "function",
      "constant": true
    },
    {
      "inputs": [
        {
          "internalType": "address",
          "name": "_address",
          "type": "address"
        }
      ],
      "name": "getRecordsByAddress",
      "outputs": [
        {
          "components": [
            {
              "internalType": "uint8",
              "name": "c",
              "type": "uint8"
            },
            {
              "internalType": "uint32",
              "name": "m",
              "type": "uint32"
            },
            {
              "internalType": "uint8",
              "name": "t",
              "type": "uint8"
            },
            {
              "internalType": "uint8",
              "name": "v",
              "type": "uint8"
            },
            {
              "internalType": "bytes32",
              "name": "k",
              "type": "bytes32"
            },
            {
              "internalType": "bytes",
              "name": "s",
              "type": "bytes"
            }
          ],
          "internalType": "struct BlockStorage.HashRecord[]",
          "name": "recs",
          "type": "tuple[]"
        }
      ],
      "stateMutability": "view",
      "type": "function",
      "constant": true
    }
  ],
  "bytecode": "0x608060405260146006556102586007556107d0600855678ac7230489e800006009556364facf5a600a556001600b556001600c553480156200004057600080fd5b50604051620026dc380380620026dc8339810160408190526200006391620000fc565b6200006e33620000ac565b6000805460ff60a01b1916905581620000895760016200008b565b815b600d55806200009e57620186a0620000a0565b805b600f5550620001219050565b600080546001600160a01b038381166001600160a01b0319831681178455604051919092169283917f8be0079c531659141344cd1fd0a4f28419497f9722a3daafe3b4186f6b6457e09190a35050565b600080604083850312156200011057600080fd5b505080516020909101519092909150565b6125ab80620001316000396000f3fe608060405234801561001057600080fd5b50600436106102615760003560e01c8063799f63351161014d578063799f63351461041757806385ae2fb71461042a57806389dec8f7146104325780638da5cb5b14610445578063a23c0f501461044d578063a2a61a3714610460578063a3d2216d14610473578063a5cdb7e51461049e578063a65bbc57146104b1578063a6def311146104c4578063a9abec5b146104ed578063ad88bb27146104f6578063b61e887814610516578063ba3ec74114610521578063ba63245d1461054c578063cf65fdcc1461056c578063cf81e8991461057f578063d7580ce914610592578063db658b0f146105a5578063decf8c24146105b8578063e1616531146105c1578063e23e3e19146105d4578063ebce4b73146105e7578063f1d46f37146105f0578063f2fde38b146105f9578063f6a197651461060c57600080fd5b806301595fa61461026657806306ffc5ea146102705780630747b9c11461028c57806307621eca146102b15780630e86b75e146102ba5780630ff99d59146102cd578063151b8f4e146102d557806315d934ce146102de57806319cae462146102e957806322009af6146102f257806327b50bfa1461030157806345fbbb8c1461031457806347efe9ab146103345780634d376aee1461033d578063559f442e1461035257806357575826146103655780635c975abb14610378578063602512e114610390578063609be203146103a357806362d20fb7146103ad578063646e1c4f146103b557806369685c36146103bd578063715018a6146103f3578063725e2055146103fb578063766718081461040e575b600080fd5b61026e610615565b005b610279600b5481565b6040519081526020015b60405180910390f35b61029f61029a366004611a67565b610627565b60405161028396959493929190611ad7565b61027960095481565b61026e6102c8366004611b90565b610674565b610279600181565b61027960075481565b6102796301e1338081565b610279600f5481565b610279678ac7230489e8000081565b61027961030f366004611a67565b6106c7565b610327610322366004611c2f565b61078a565b6040516102839190611c4a565b61027960105481565b61034561085e565b6040516102839190611c8e565b61026e610360366004611ce5565b61087a565b61026e610373366004611d50565b610a3b565b610380610ae1565b6040519015158152602001610283565b61026e61039e366004611d50565b610af1565b610279620186a081565b61026e610b79565b61026e610c80565b6103e66103cb366004611d50565b6005602052600090815260409020546001600160a01b031681565b6040516102839190611d69565b61026e610c90565b61026e610409366004611d7d565b610ca2565b610279600d5481565b61026e610425366004611d50565b610d20565b61026e610dac565b61026e610440366004611dbe565b610e20565b6103e6610ee0565b61026e61045b366004611d50565b610eef565b61026e61046e366004611df3565b610f81565b610279610481366004611a67565b600260209081526000928352604080842090915290825290205481565b61026e6104ac366004611e82565b610f9d565b61026e6104bf366004611eec565b610ff7565b6103e66104d2366004611d50565b6004602052600090815260409020546001600160a01b031681565b610279600e5481565b610509610504366004611c2f565b611077565b6040516102839190611f28565b6102796364facf5a81565b6103456040518060400160405280600c81526020016b2036b92530b1b5a632bb34b760a11b81525081565b61027961055a366004611c2f565b60036020526000908152604090205481565b61026e61057a366004611ce5565b611241565b61029f61058d366004611d50565b6112f2565b61029f6105a0366004611fed565b6113b4565b6103456105b3366004611d50565b61145d565b610279600c5481565b61026e6105cf36600461209d565b6114f7565b61026e6105e2366004611d7d565b61150e565b61027960085481565b61027960065481565b61026e610607366004611c2f565b611521565b610279600a5481565b61061d611597565b6106256115f6565b565b6001600160a01b0382166000908152600260209081526040808320848452909152812054819081908190819060609061065f906112f2565b949d939c50919a509850965090945092505050565b6106bd88600b6000815461068790612100565b91829055506040516106a9908b908b908b908b908b908b908b90602001612119565b604051602081830303815290604052611650565b5050505050505050565b6001600160a01b0382166000908152600260209081526040808320848452825280832054835260019091528120805482919061070290612177565b80601f016020809104026020016040519081016040528092919081815260200182805461072e90612177565b801561077b5780601f106107505761010080835404028352916020019161077b565b820191906000526020600020905b81548152906001019060200180831161075e57829003601f168201915b50509251979650505050505050565b6001600160a01b038116600090815260036020526040902054606090806001600160401b038111156107be576107be611fd7565b6040519080825280602002602001820160405280156107e7578160200160208202803683370190505b50915060005b81811015610857576001600160a01b0384166000908152600260205260408120906108198360016121ab565b81526020019081526020016000205483828151811061083a5761083a6121c4565b60209081029190910101528061084f81612100565b9150506107ed565b5050919050565b6040518060600160405280603a815260200161253c603a913981565b8281146108a25760405162461bcd60e51b8152600401610899906121da565b60405180910390fd5b826108bf5760405162461bcd60e51b81526004016108999061220d565b60005b81811015610a2c5760006109688686848181106108e1576108e16121c4565b90506020020160208101906108f69190611c2f565b600b6000815461090590612100565b918290555086868681811061091c5761091c6121c4565b905060200281019061092e9190612236565b8080601f01602080910402602001604051908101604052809392919081815260200183838082843760009201919091525061170992505050565b90508015610a1957858583818110610982576109826121c4565b90506020020160208101906109979190611c2f565b6001600160a01b0316600d54600b547fdf1fb391c3157eb3593a71fda03f806f05c81bd9d74426918a759f34fd9117a3428888888181106109da576109da6121c4565b90506020028101906109ec9190612236565b6040516109fb939291906122a5565b60405180910390a460108054906000610a1383612100565b91905055505b5080610a2481612100565b9150506108c2565b50610a35610b79565b50505050565b610a43611597565b600081118015610a545750600f5481105b610aaa5760405162461bcd60e51b815260206004820152602160248201527f58313a20496c6c6567616c20446966666963756c74792041646a7573746d656e6044820152601d60fa1b6064820152608401610899565b6008819055600d546040518291907f2386d27d6c3a89c92557fca46ac41c3a131e71b99e04908acdde2bbb0ab17f9a90600090a350565b600054600160a01b900460ff1690565b610af9611597565b60008111610b425760405162461bcd60e51b815260206004820152601660248201527558313a20496c6c6567616c20446966666963756c747960501b6044820152606401610899565b600f819055600d546040518291907f2086182ef482268c2e7f9aed67ed5399338ff8b1404f76c15e9da3bd531a77cd90600090a350565b600754600e54610b8990426122c8565b1115610bfe5742600e55600d8054906000610ba383612100565b9190505550610bb0611844565b6000601055600d54600f54600e546040517f3bb7b347508b7c148ec2094ac60d2e3d8b7595421025643f08b45cb78b326b5892610bf592908252602082015260400190565b60405180910390a25b6301e13380600a5442610c1191906122c8565b11156106255742600a81905550600260096000828254610c3191906122db565b9091555050600d54600954600a546040517f0b2794749fd5e8c91304ffb0fd7a6fb77ac4f62084947b144680e1c5f39f614d92610c7692908252602082015260400190565b60405180910390a2565b610c88611597565b61062561192c565b610c98611597565b6106256000611968565b80610cbf5760405162461bcd60e51b8152600401610899906122fd565b610cc7610dac565b600d54600c80544292916000610cdc83612100565b919050557f22e9ceff9558f28b02348cc3db27083bfc37e5b29eb0ed0ae1d93a45f0cb71e960008686604051610d14939291906122a5565b60405180910390a45050565b610d28611597565b60008111610d755760405162461bcd60e51b815260206004820152601a6024820152792c189d1024b63632b3b0b61022b837b1b410223ab930ba34b7b760311b6044820152606401610899565b6007819055600d546040518291907f361d876894ff3854d2e192162a59a0ce8d9e27637af1302a2b8af18e3b007b2490600090a350565b600754600e54610dbc90426122c8565b1115610bfe5742600e55600d8054906000610dd683612100565b90915550506000601055600d54600f54600e546040517f3bb7b347508b7c148ec2094ac60d2e3d8b7595421025643f08b45cb78b326b5892610bf592908252602082015260400190565b80610e3d5760405162461bcd60e51b8152600401610899906122fd565b8181905060106000828254610e5291906121ab565b90915550610e609050610dac565b60008282604051602001610e7592919061232d565b604051602081830303815290604052905042600d54600c6000815480929190610e9d90612100565b909155506040517f22e9ceff9558f28b02348cc3db27083bfc37e5b29eb0ed0ae1d93a45f0cb71e990610ed390879087906123c8565b60405180910390a4505050565b6000546001600160a01b031690565b610ef7611597565b600081118015610f075750606481105b610f4a5760405162461bcd60e51b815260206004820152601460248201527358313a20496c6c6567616c2056617269616e636560601b6044820152606401610899565b6006819055600d546040518291907f4c117fcbe5db4ee332d07bd8d92745c661603d8acac907ce8ec800ca225789f290600090a350565b610f9433600b6000815461068790612100565b50505050505050565b610ff283600b60008154610fb090612100565b91905081905584848080601f01602080910402602001604051908101604052809392919081815260200183838082843760009201919091525061165092505050565b505050565b61107433600b6000815461100a90612100565b918290555061101c60208501856123e1565b61102c60408601602087016123fc565b61103c60608701604088016123e1565b61104c60808801606089016123e1565b608088013561105e60a08a018a612236565b6040516020016106a99796959493929190612119565b50565b6001600160a01b038116600090815260036020526040902054606090806001600160401b038111156110ab576110ab611fd7565b60405190808252806020026020018201604052801561110d57816020015b6040805160c081018252600080825260208083018290529282018190526060808301829052608083019190915260a082015282526000199092019101816110c95790505b50915060005b81811015610857576001600160a01b03841660009081526002602052604081208161113f8460016121ab565b8152602001908152602001600020549050611159816112f2565b89888151811061116b5761116b6121c4565b60200260200101516000018a8981518110611188576111886121c4565b60200260200101516020018b8a815181106111a5576111a56121c4565b60200260200101516040018c8b815181106111c2576111c26121c4565b60200260200101516060018d8c815181106111df576111df6121c4565b60200260200101516080018e8d815181106111fc576111fc6121c4565b602090810291909101015160a001959095529490935260ff948516909352938316905263ffffffff90931690925291169052508061123981612100565b915050611113565b8281146112605760405162461bcd60e51b8152600401610899906121da565b8261127d5760405162461bcd60e51b81526004016108999061220d565b60005b818110156112eb576112d885858381811061129d5761129d6121c4565b90506020020160208101906112b29190611c2f565b600b600081546112c190612100565b918290555085858581811061091c5761091c6121c4565b50806112e381612100565b915050611280565b5050505050565b600080600080600060606113a060016000898152602001908152602001600020805461131d90612177565b80601f016020809104026020016040519081016040528092919081815260200182805461134990612177565b80156113965780601f1061136b57610100808354040283529160200191611396565b820191906000526020600020905b81548152906001019060200180831161137957829003601f168201915b50505050506113b4565b949c939b5091995097509550909350915050565b805160018201516005830151600684015160078501516027808701519495939492939192916060916113e690826122c8565b6001600160401b038111156113fd576113fd611fd7565b6040519080825280601f01601f191660200182016040528015611427576020820181803683370190505b509150602082016027820360005b8181101561145057806028018b015181840153600101611435565b5050505091939550919395565b6001602052600090815260409020805461147690612177565b80601f01602080910402602001604051908101604052809291908181526020018280546114a290612177565b80156114ef5780601f106114c4576101008083540402835291602001916114ef565b820191906000526020600020905b8154815290600101906020018083116114d257829003601f168201915b505050505081565b61150a82600b6000815461100a90612100565b5050565b61150a33600b60008154610fb090612100565b611529611597565b6001600160a01b03811661158e5760405162461bcd60e51b815260206004820152602660248201527f4f776e61626c653a206e6577206f776e657220697320746865207a65726f206160448201526564647265737360d01b6064820152608401610899565b61107481611968565b336115a0610ee0565b6001600160a01b0316146106255760405162461bcd60e51b815260206004820181905260248201527f4f776e61626c653a2063616c6c6572206973206e6f7420746865206f776e65726044820152606401610899565b6115fe6119b8565b6000805460ff60a01b1916600160a01b1790557f62e78cea01bee320cd4e420270b5ea74000d11b0c9f74754ebdbfc544b05a2586116393390565b6040516116469190611d69565b60405180910390a1565b61165b838383611709565b6116a55760405162461bcd60e51b815260206004820152601b60248201527a58313a204475706c696361746520486173684964206f72204b657960281b6044820152606401610899565b826001600160a01b0316600d54837fdf1fb391c3157eb3593a71fda03f806f05c81bd9d74426918a759f34fd9117a342856040516116e49291906123c8565b60405180910390a4601080549060006116fc83612100565b9190505550610ff2610b79565b6000828152600460205260408120546001600160a01b03161561172e5750600061183d565b6000611739836113b4565b506000818152600560205260409020549095506001600160a01b031615935061176a9250505057600091505061183d565b6000848152600160205260408120805461178390612177565b9050111561179557600091505061183d565b60008481526001602052604090206117ad8482612465565b506001600160a01b03851660009081526002602090815260408083206003909252822080548793919082906117e190612100565b9182905550815260208082019290925260409081016000908120939093558683526004825280832080546001600160a01b038a166001600160a01b03199182168117909255948452600590925290912080549092161790555060015b9392505050565b6000600160075461185591906122db565b905060006064600654606461186a91906122c8565b6118749084612524565b61187e91906122db565b905060006064600654606461189391906121ab565b61189d9085612524565b6118a791906122db565b9050816010541080156118be5750600854600f5410155b80156118cf57506118cd610ae1565b155b156118f357600854600f60008282546118e891906122c8565b90915550610ff29050565b806010541180156119095750611907610ae1565b155b15610ff257600854600f600082825461192291906121ab565b9091555050505050565b611934611a00565b6000805460ff60a01b191690557f5db9ee0a495bf2e6ff9c91a7834c1ba4fdd244a5e8aa4e537bd38aeae4b073aa33611639565b600080546001600160a01b038381166001600160a01b0319831681178455604051919092169283917f8be0079c531659141344cd1fd0a4f28419497f9722a3daafe3b4186f6b6457e09190a35050565b6119c0610ae1565b156106255760405162461bcd60e51b815260206004820152601060248201526f14185d5cd8589b194e881c185d5cd95960821b6044820152606401610899565b611a08610ae1565b6106255760405162461bcd60e51b815260206004820152601460248201527314185d5cd8589b194e881b9bdd081c185d5cd95960621b6044820152606401610899565b80356001600160a01b0381168114611a6257600080fd5b919050565b60008060408385031215611a7a57600080fd5b611a8383611a4b565b946020939093013593505050565b6000815180845260005b81811015611ab757602081850181015186830182015201611a9b565b506000602082860101526020601f19601f83011685010191505092915050565b60ff8716815263ffffffff8616602082015260ff8516604082015260ff8416606082015282608082015260c060a08201526000611b1760c0830184611a91565b98975050505050505050565b803560ff81168114611a6257600080fd5b803563ffffffff81168114611a6257600080fd5b60008083601f840112611b5a57600080fd5b5081356001600160401b03811115611b7157600080fd5b602083019150836020828501011115611b8957600080fd5b9250929050565b60008060008060008060008060e0898b031215611bac57600080fd5b611bb589611a4b565b9750611bc360208a01611b23565b9650611bd160408a01611b34565b9550611bdf60608a01611b23565b9450611bed60808a01611b23565b935060a0890135925060c08901356001600160401b03811115611c0f57600080fd5b611c1b8b828c01611b48565b999c989b5096995094979396929594505050565b600060208284031215611c4157600080fd5b61183d82611a4b565b6020808252825182820181905260009190848201906040850190845b81811015611c8257835183529284019291840191600101611c66565b50909695505050505050565b60208152600061183d6020830184611a91565b60008083601f840112611cb357600080fd5b5081356001600160401b03811115611cca57600080fd5b6020830191508360208260051b8501011115611b8957600080fd5b60008060008060408587031215611cfb57600080fd5b84356001600160401b0380821115611d1257600080fd5b611d1e88838901611ca1565b90965094506020870135915080821115611d3757600080fd5b50611d4487828801611ca1565b95989497509550505050565b600060208284031215611d6257600080fd5b5035919050565b6001600160a01b0391909116815260200190565b60008060208385031215611d9057600080fd5b82356001600160401b03811115611da657600080fd5b611db285828601611b48565b90969095509350505050565b60008060208385031215611dd157600080fd5b82356001600160401b03811115611de757600080fd5b611db285828601611ca1565b600080600080600080600060c0888a031215611e0e57600080fd5b611e1788611b23565b9650611e2560208901611b34565b9550611e3360408901611b23565b9450611e4160608901611b23565b93506080880135925060a08801356001600160401b03811115611e6357600080fd5b611e6f8a828b01611b48565b989b979a50959850939692959293505050565b600080600060408486031215611e9757600080fd5b611ea084611a4b565b925060208401356001600160401b03811115611ebb57600080fd5b611ec786828701611b48565b9497909650939450505050565b600060c08284031215611ee657600080fd5b50919050565b600060208284031215611efe57600080fd5b81356001600160401b03811115611f1457600080fd5b611f2084828501611ed4565b949350505050565b60006020808301818452808551808352604092508286019150828160051b87010184880160005b83811015611fc957888303603f190185528151805160ff90811685528882015163ffffffff168986015287820151811688860152606080830151909116908501526080808201519085015260a09081015160c091850182905290611fb581860183611a91565b968901969450505090860190600101611f4f565b509098975050505050505050565b634e487b7160e01b600052604160045260246000fd5b600060208284031215611fff57600080fd5b81356001600160401b038082111561201657600080fd5b818401915084601f83011261202a57600080fd5b81358181111561203c5761203c611fd7565b604051601f8201601f19908116603f0116810190838211818310171561206457612064611fd7565b8160405282815287602084870101111561207d57600080fd5b826020860160208301376000928101602001929092525095945050505050565b600080604083850312156120b057600080fd5b6120b983611a4b565b915060208301356001600160401b038111156120d457600080fd5b6120e085828601611ed4565b9150509250929050565b634e487b7160e01b600052601160045260246000fd5b600060018201612112576121126120ea565b5060010190565b6001600160f81b031960f889811b821683526001600160e01b031960e08a901b16600184015287811b8216600584015286901b1660068201526007810184905260008284602784013750600091016027019081529695505050505050565b600181811c9082168061218b57607f821691505b602082108103611ee657634e487b7160e01b600052602260045260246000fd5b808201808211156121be576121be6120ea565b92915050565b634e487b7160e01b600052603260045260246000fd5b6020808252601990820152780b062744082e4e4c2f24098cadccee8d0409ad2e6dac2e8c6d603b1b604082015260600190565b6020808252600f908201526e58313a20456d70747920417272617960881b604082015260600190565b6000808335601e1984360301811261224d57600080fd5b8301803591506001600160401b0382111561226757600080fd5b602001915036819003821315611b8957600080fd5b81835281816020850137506000828201602090810191909152601f909101601f19169091010190565b8381526040602082015260006122bf60408301848661227c565b95945050505050565b818103818111156121be576121be6120ea565b6000826122f857634e487b7160e01b600052601260045260246000fd5b500490565b60208082526016908201527558313a205265636f726420627974657320656d70747960501b604082015260600190565b60208082528181018390526000906040600585901b8401810190840186845b878110156123bb57868403603f190183528135368a9003601e1901811261237257600080fd5b890185810190356001600160401b0381111561238d57600080fd5b80360382131561239c57600080fd5b6123a786828461227c565b95505050918401919084019060010161234c565b5091979650505050505050565b828152604060208201526000611f206040830184611a91565b6000602082840312156123f357600080fd5b61183d82611b23565b60006020828403121561240e57600080fd5b61183d82611b34565b601f821115610ff257600081815260208120601f850160051c8101602086101561243e5750805b601f850160051c820191505b8181101561245d5782815560010161244a565b505050505050565b81516001600160401b0381111561247e5761247e611fd7565b6124928161248c8454612177565b84612417565b602080601f8311600181146124c757600084156124af5750858301515b600019600386901b1c1916600185901b17855561245d565b600085815260208120601f198616915b828110156124f6578886015182559484019460019091019084016124d7565b50858210156125145787850151600019600388901b60f8161c191681555b5050505050600190811b01905550565b80820281158282048414176121be576121be6120ea56fe68747470733a2f2f747769747465722e636f6d2f6d724a61636b4c6576696e2f7374617475732f31373030303530383435353632353135353137a2646970667358221220d5ed7cc2e7888788a1f5dc9d1620b7010a9e9ff032bd5ed6ca0460f5e6ff894264736f6c63430008140033",
  "immutableReferences": {},
  "source": "// SPDX-License-Identifier: MIT\npragma solidity ^0.8.20;\npragma abicoder v2;  // Enable ABI coder v2\n\nimport \"@openzeppelin/contracts/access/Ownable.sol\";\nimport \"@openzeppelin/contracts/security/Pausable.sol\";\n\ncontract BlockStorage is Ownable, Pausable {\n    struct HashRecord {\n        uint8 c;\n        uint32 m;\n        uint8 t;\n        uint8 v;\n        bytes32 k;\n        bytes s;\n    }\n\n    uint256 public constant BASE_REWARD = 10 ether;\n    uint256 public constant BASE_REWARD_INTERVAL_S = 365 * 24 * 60 * 60;\n    uint256 public constant TARGET_BLOCK_TIME_S = 1;\n    uint256 public constant DEFAULT_DIFFICULTY = 100_000;\n    uint256 public constant GENESIS_TS = 1694158682; // 2023-09-08T07:38:01.656Z\n    string public constant GENESIS_TWEET = 'https://twitter.com/mrJackLevin/status/1700050845562515517';\n    string public constant AUTHORS = '@mrJackLevin';\n\n    // hash ID => hash record\n    mapping(uint256 => bytes) public hashRecords;\n    // address => idx => hash ID\n    mapping(address => mapping(uint256 => uint256)) public hashIdsByAddress;\n    // address => record counter\n    mapping(address => uint256) public recordCount;\n    // hash ID => account address\n    mapping(uint256 => address) public addressesByHashId;\n    // key => account address\n    mapping(bytes32 => address) public addressesByKey;\n\n    // params settable by the authority\n    uint256 public variance = 20;\n    uint256 public epochDurationSec = 600;\n    uint256 public difficultyAdjustment = 2_000;\n\n    uint256 public currentReward = BASE_REWARD;     // halves every 365 days\n    uint256 public currentRewardTs = GENESIS_TS;    // is set every 365 days\n    uint256 public currentHashId = 1;               // increments with each new Hash\n    uint256 public currentLogId = 1;                // increments with each new HashLog\n    uint256 public currentEpoch;                    // increments every epoch\n    uint256 public currentEpochTs;                  // is set every epoch\n    uint256 public difficulty;                      // is adjusted every epoch\n    uint256 public epochHashCounter;                // resets every epoch\n\n    constructor(uint256 _currentEpoch, uint256 _difficulty) {\n        currentEpoch = _currentEpoch > 0 ? _currentEpoch : 1;\n        difficulty = _difficulty > 0 ? _difficulty : DEFAULT_DIFFICULTY;\n    }\n\n    event NewHashLog(uint256 indexed logId, uint256 indexed epoch, uint256 indexed ts, uint256 count, bytes _bytes);\n    event NewHash(uint256 indexed hashId, uint256 indexed epoch, address indexed account, uint256 ts, bytes _bytes);\n    event NewEpoch(uint256 indexed epoch, uint256 difficulty, uint256 ts);\n\n    event BaseRewardSet(uint256 indexed epoch, uint256 reward, uint256 ts);\n\n    event VarianceSet(uint256 indexed epoch, uint256 indexed variance);\n    event EpochDurationSet(uint256 indexed epoch, uint256 indexed duration);\n    event DifficultySet(uint256 indexed epoch, uint256 indexed difficulty);\n    event DifficultyAdjustmentSet(uint256 indexed epoch, uint256 indexed adjustment);\n\n    function setVariance(uint256 _variance) external onlyOwner {\n        require(_variance > 0 && _variance < 100, 'X1: Illegal Variance');\n        variance = _variance;\n        emit VarianceSet(currentEpoch, _variance);\n    }\n\n    function setEpochDurationSec(uint256 _epochDurationSec) external onlyOwner {\n        require(_epochDurationSec > 0, 'X1: Illegal Epoch Duration');\n        epochDurationSec = _epochDurationSec;\n        emit EpochDurationSet(currentEpoch, _epochDurationSec);\n    }\n\n    function setDifficulty(uint256 _difficulty) external onlyOwner {\n        require(_difficulty > 0, 'X1: Illegal Difficulty');\n        difficulty = _difficulty;\n        emit DifficultySet(currentEpoch, _difficulty);\n    }\n\n    function setDifficultyAdjustment(uint256 _difficultyAdjustment) external onlyOwner {\n        require(_difficultyAdjustment > 0 && _difficultyAdjustment < difficulty, 'X1: Illegal Difficulty Adjustment');\n        difficultyAdjustment = _difficultyAdjustment;\n        emit DifficultyAdjustmentSet(currentEpoch, _difficultyAdjustment);\n    }\n\n    function lockDifficulty() external onlyOwner {\n        _pause();\n    }\n\n    function unlockDifficulty() external onlyOwner {\n        _unpause();\n    }\n\n    /*\n        @dev Internal utility for adjusting difficulty\n    */\n    function _adjustDifficulty() internal {\n        uint256 targetHashCount = epochDurationSec / TARGET_BLOCK_TIME_S;\n        uint256 lowerBound = targetHashCount * (100 - variance) / 100;\n        uint256 upperBound = targetHashCount * (100 + variance) / 100;\n        if (epochHashCounter < lowerBound && difficulty >= difficultyAdjustment && !paused()) {\n            difficulty -= difficultyAdjustment;\n        } else if (epochHashCounter > upperBound && !paused()) {\n            difficulty += difficultyAdjustment;\n        }\n    }\n\n    /*\n        @dev Public utility for good housekeeping\n    */\n    function doFullHousekeeping() public {\n        if (block.timestamp - currentEpochTs > epochDurationSec) {\n            currentEpochTs = block.timestamp;\n            currentEpoch++;\n            _adjustDifficulty();\n            epochHashCounter = 0;\n            emit NewEpoch(currentEpoch, difficulty, currentEpochTs);\n        }\n        if (block.timestamp - currentRewardTs > BASE_REWARD_INTERVAL_S) {\n            currentRewardTs = block.timestamp;\n            currentReward /= 2;\n            emit BaseRewardSet(currentEpoch, currentReward, currentRewardTs);\n        }\n    }\n\n    /*\n        @dev Public utility for good housekeeping\n    */\n    function doHousekeeping() public {\n        if (block.timestamp - currentEpochTs > epochDurationSec) {\n            currentEpochTs = block.timestamp;\n            currentEpoch++;\n            epochHashCounter = 0;\n            emit NewEpoch(currentEpoch, difficulty, currentEpochTs);\n        }\n        if (block.timestamp - currentRewardTs > BASE_REWARD_INTERVAL_S) {\n            currentRewardTs = block.timestamp;\n            currentReward /= 2;\n            emit BaseRewardSet(currentEpoch, currentReward, currentRewardTs);\n        }\n    }\n\n    /*\n        Internal\n        @dev baseline method for storing records\n    */\n    function _storeRecord(address _address, uint256 _hashId, bytes memory _bytes) internal returns (bool) {\n        if (addressesByHashId[_hashId] != address(0)) return false;\n        ( , , , , bytes32 k, ) = decodeRecordBytes(_bytes);\n        if (addressesByKey[k] != address(0)) return false;\n        if (hashRecords[_hashId].length > 0) return false;\n\n        hashRecords[_hashId] = _bytes;\n        hashIdsByAddress[_address][++recordCount[_address]] = _hashId;\n        addressesByHashId[_hashId] = _address;\n        addressesByKey[k] = _address;\n        return true;\n    }\n\n    /*\n        Internal\n        @dev baseline method for storing _new_ records\n    */\n    function _storeNewRecord(address _address, uint256 _hashId, bytes memory _bytes) internal {\n        require(_storeRecord(_address, _hashId, _bytes), 'X1: Duplicate HashId or Key');\n        emit NewHash(_hashId, currentEpoch, _address, block.timestamp, _bytes);\n        epochHashCounter++;\n        // this is done as the last step to avoid using new epoch values\n        doFullHousekeeping();   // check / start new epoch if required\n    }\n\n    /*\n        Public interface\n        @dev Store a new record encoded as HashRecord struct\n        @deprecated production code should use storeNewRecord(HashRecord calldata r)\n    */\n    function storeNewRecord(address _address, HashRecord calldata r) external {\n        _storeNewRecord(_address, ++currentHashId, abi.encodePacked(r.c, r.m, r.t, r.v, r.k, r.s));\n    }\n\n    /*\n        Public interface\n        @dev Store a new record encoded as HashRecord struct\n    */\n    function storeNewRecord(HashRecord calldata r) external {\n        _storeNewRecord(_msgSender(), ++currentHashId, abi.encodePacked(r.c, r.m, r.t, r.v, r.k, r.s));\n    }\n\n    /*\n        Public interface\n        @dev Store a new record encoded as separate parameters\n        @deprecated production code should use\n        storeNewRecordData(uint8 c, uint32 m, uint8 t, uint8 v, bytes32 k, bytes calldata s)\n    */\n    function storeNewRecordData(address _address, uint8 c, uint32 m, uint8 t, uint8 v, bytes32 k, bytes calldata s) external {\n        _storeNewRecord(_address, ++currentHashId, abi.encodePacked(c, m, t, v, k, s));\n    }\n\n    /*\n        Public interface\n        @dev Store a new record encoded as separate parameters\n    */\n    function storeNewRecordData(uint8 c, uint32 m, uint8 t, uint8 v, bytes32 k, bytes calldata s) external {\n        _storeNewRecord(_msgSender(), ++currentHashId, abi.encodePacked(c, m, t, v, k, s));\n    }\n\n    /*\n        Public interface\n        @dev Store a new record encoded as bytes\n        @deprecated production code should use storeNewRecordBytes(bytes calldata _bytes)\n    */\n    function storeNewRecordBytes(address _address, bytes calldata _bytes) external {\n        _storeNewRecord(_address, ++currentHashId, _bytes);\n    }\n\n    /*\n        Public interface\n        @dev Store a new record encoded as bytes\n    */\n    function storeNewRecordBytes(bytes calldata _bytes) external {\n        _storeNewRecord(_msgSender(), ++currentHashId, _bytes);\n    }\n\n    /*\n        Public interface\n        TODO: do we need bulk upload for new records?\n        @dev Store a set of new records encoded as bytes\n        @deprecated use individual storeNewRecord/storeNewRecordBytes/storeNewRecordData calls\n    */\n    function bulkStoreNewRecordsInc(address[] calldata addresses, bytes[] calldata bb) external {\n        require(addresses.length == bb.length, 'X1: Array Length Mismatch');\n        require(addresses.length > 0, 'X1: Empty Array');\n        for (uint i = 0; i < bb.length; i++) {\n            bool ok = _storeRecord(addresses[i], ++currentHashId, bb[i]);\n            if (ok) {\n                emit NewHash(currentHashId, currentEpoch, addresses[i], block.timestamp, bb[i]);\n                epochHashCounter++;\n            }\n        }\n        doFullHousekeeping();   // check / start new epoch if required\n    }\n\n    /*\n        Admin interface\n        @dev Store a set of records encoded as bytes. Used for backfilling.\n        @deprecated will be used with _onlyOwner modifier\n    */\n    function bulkStoreRecordBytes(address[] calldata addresses, bytes[] calldata bb) external {\n        require(addresses.length == bb.length, 'X1: Array Length Mismatch');\n        require(addresses.length > 0, 'X1: Empty Array');\n        for (uint i = 0; i < bb.length; i++) {\n            _storeRecord(addresses[i], ++currentHashId, bb[i]);\n        }\n    }\n\n    function logStoreRecordBytes(bytes[] calldata bb) external {\n        require(bb.length > 0, 'X1: Record bytes empty');\n        epochHashCounter += bb.length;\n        doHousekeeping();\n        bytes memory blob = abi.encode(bb);\n        emit NewHashLog(currentLogId++, currentEpoch, block.timestamp, bb.length, blob);\n    }\n\n    function logStoreRecordBlob(bytes calldata blob) external {\n        require(blob.length > 0, 'X1: Record bytes empty');\n        doHousekeeping();\n        emit NewHashLog(currentLogId++, currentEpoch, block.timestamp, 0, blob);\n    }\n\n    /*\n        @deprecated Do not use in production\n    */\n    function getBytesLen(address _address, uint256 _index) external view returns (uint len) {\n        bytes memory _data = hashRecords[hashIdsByAddress[_address][_index]];\n        assembly {\n            len := mload(_data)\n        }\n    }\n\n    /*\n        Public interface\n        @dev decode a record stored as bytes into discrete params\n    */\n    function decodeRecordBytes(bytes memory _data)\n        public\n        pure\n        returns (uint8 c, uint32 m, uint8 t, uint8 v, bytes32 k, bytes memory s)\n    {\n        uint len;\n        assembly {\n            len := mload(_data)\n            c := mload(add(_data, 1))\n            m := mload(add(_data, 5))\n            t := mload(add(_data, 6))\n            v := mload(add(_data, 7))\n            k := mload(add(_data, 39))\n        }\n        s = new bytes(len - 39);\n        assembly {\n            // Skip the first 32 bytes reserved for the length of the memory array\n            let offset := add(s, 0x20)\n            let count := sub(len, 39)\n            for { let i := 0} lt(i, count) { i := add(i, 1) } {\n                mstore8(add(offset, i), mload(add(_data, add(40, i))))\n            }\n        }\n    }\n\n    /*\n        Public interface\n        @dev decode a record referenced by a HashId into discrete params\n    */\n    function decodeRecordBytes(uint256 _hashId)\n        public\n        view\n        returns (uint8 c, uint32 m, uint8 t, uint8 v, bytes32 k, bytes memory s)\n    {\n        return decodeRecordBytes(hashRecords[_hashId]);\n    }\n\n    /*\n        Public interface\n        @dev decode a record referenced by an address and index into discrete params\n    */\n    function decodeRecordBytes(address _address, uint256 _idx)\n        public\n        view\n        returns (uint8 c, uint32 m, uint8 t, uint8 v, bytes32 k, bytes memory s)\n    {\n        return decodeRecordBytes(hashIdsByAddress[_address][_idx]);\n    }\n\n    /*\n        Public interface\n        @dev helper to get all HashIds for an address\n    */\n    function getHashIdsByAddress(address _address) public view returns (uint256[] memory ids) {\n        uint256 count = recordCount[_address];\n        ids = new uint256[](count);\n        for (uint i = 0; i < count; i++) {\n            ids[i] = hashIdsByAddress[_address][i+1];\n        }\n    }\n\n    /*\n        Public interface\n        @dev helper to get all HashRecords for an address\n    */\n    function getRecordsByAddress(address _address) public view returns (HashRecord[] memory recs) {\n        uint256 count = recordCount[_address];\n        recs = new HashRecord[](count);\n        for (uint i = 0; i < count; i++) {\n            uint256 hashId = hashIdsByAddress[_address][i+1];\n            (recs[i].c, recs[i].m, recs[i].t, recs[i].v, recs[i].k, recs[i].s) = decodeRecordBytes(hashId);\n        }\n    }\n}\n",
  "sourcePath": "/Users/lbelyaev/dev/x1-block-storage/contracts/BlockStorage.sol",
  "compiler": {
    "name": "solc",
    "version": "0.8.20+commit.a1b79de6.Emscripten.clang"
  },
  "schemaVersion": "3.4.16",
  "updatedAt": "2024-01-16T02:12:13.705Z",
  "networkType": "ethereum",
  "devdoc": {
    "events": {
      "Paused(address)": {
        "details": "Emitted when the pause is triggered by `account`."
      },
      "Unpaused(address)": {
        "details": "Emitted when the pause is lifted by `account`."
      }
    },
    "kind": "dev",
    "methods": {
      "owner()": {
        "details": "Returns the address of the current owner."
      },
      "paused()": {
        "details": "Returns true if the contract is paused, and false otherwise."
      },
      "renounceOwnership()": {
        "details": "Leaves the contract without owner. It will not be possible to call `onlyOwner` functions. Can only be called by the current owner. NOTE: Renouncing ownership will leave the contract without an owner, thereby disabling any functionality that is only available to the owner."
      },
      "transferOwnership(address)": {
        "details": "Transfers ownership of the contract to a new account (`newOwner`). Can only be called by the current owner."
      }
    },
    "version": 1
  },
  "userdoc": {
    "kind": "user",
    "methods": {},
    "version": 1
  }
}