{
  "contractName": "BlockStorage",
  "abi": [
    {
      "inputs": [
        {
          "internalType": "uint256",
          "name": "_currentEpoch",
          "type": "uint256"
        },
        {
          "internalType": "uint256",
          "name": "_difficulty",
          "type": "uint256"
        },
        {
          "internalType": "uint256",
          "name": "_variance",
          "type": "uint256"
        }
      ],
      "stateMutability": "nonpayable",
      "type": "constructor"
    },
    {
      "anonymous": false,
      "inputs": [
        {
          "indexed": true,
          "internalType": "uint256",
          "name": "epoch",
          "type": "uint256"
        },
        {
          "indexed": true,
          "internalType": "uint256",
          "name": "duration",
          "type": "uint256"
        }
      ],
      "name": "EpochDurationSet",
      "type": "event"
    },
    {
      "anonymous": false,
      "inputs": [
        {
          "indexed": true,
          "internalType": "uint256",
          "name": "epoch",
          "type": "uint256"
        },
        {
          "indexed": false,
          "internalType": "uint256",
          "name": "difficulty",
          "type": "uint256"
        },
        {
          "indexed": false,
          "internalType": "uint256",
          "name": "ts",
          "type": "uint256"
        }
      ],
      "name": "NewEpoch",
      "type": "event"
    },
    {
      "anonymous": false,
      "inputs": [
        {
          "indexed": true,
          "internalType": "uint256",
          "name": "hashId",
          "type": "uint256"
        },
        {
          "indexed": true,
          "internalType": "uint256",
          "name": "epoch",
          "type": "uint256"
        },
        {
          "indexed": true,
          "internalType": "address",
          "name": "account",
          "type": "address"
        },
        {
          "indexed": false,
          "internalType": "uint256",
          "name": "ts",
          "type": "uint256"
        },
        {
          "indexed": false,
          "internalType": "bytes",
          "name": "_bytes",
          "type": "bytes"
        }
      ],
      "name": "NewHash",
      "type": "event"
    },
    {
      "anonymous": false,
      "inputs": [
        {
          "indexed": true,
          "internalType": "address",
          "name": "previousOwner",
          "type": "address"
        },
        {
          "indexed": true,
          "internalType": "address",
          "name": "newOwner",
          "type": "address"
        }
      ],
      "name": "OwnershipTransferred",
      "type": "event"
    },
    {
      "anonymous": false,
      "inputs": [
        {
          "indexed": false,
          "internalType": "address",
          "name": "account",
          "type": "address"
        }
      ],
      "name": "Paused",
      "type": "event"
    },
    {
      "anonymous": false,
      "inputs": [
        {
          "indexed": true,
          "internalType": "uint256",
          "name": "epoch",
          "type": "uint256"
        },
        {
          "indexed": true,
          "internalType": "uint256",
          "name": "difficulty",
          "type": "uint256"
        }
      ],
      "name": "TargetDifficultySet",
      "type": "event"
    },
    {
      "anonymous": false,
      "inputs": [
        {
          "indexed": false,
          "internalType": "address",
          "name": "account",
          "type": "address"
        }
      ],
      "name": "Unpaused",
      "type": "event"
    },
    {
      "inputs": [],
      "name": "DIFFICULTY_ADJUSTMENT",
      "outputs": [
        {
          "internalType": "uint256",
          "name": "",
          "type": "uint256"
        }
      ],
      "stateMutability": "view",
      "type": "function",
      "constant": true
    },
    {
      "inputs": [],
      "name": "TARGET_BLOCK_TIME_S",
      "outputs": [
        {
          "internalType": "uint256",
          "name": "",
          "type": "uint256"
        }
      ],
      "stateMutability": "view",
      "type": "function",
      "constant": true
    },
    {
      "inputs": [
        {
          "internalType": "uint256",
          "name": "",
          "type": "uint256"
        }
      ],
      "name": "addressesByHashId",
      "outputs": [
        {
          "internalType": "address",
          "name": "",
          "type": "address"
        }
      ],
      "stateMutability": "view",
      "type": "function",
      "constant": true
    },
    {
      "inputs": [
        {
          "internalType": "bytes32",
          "name": "",
          "type": "bytes32"
        }
      ],
      "name": "addressesByKey",
      "outputs": [
        {
          "internalType": "address",
          "name": "",
          "type": "address"
        }
      ],
      "stateMutability": "view",
      "type": "function",
      "constant": true
    },
    {
      "inputs": [],
      "name": "currentEpoch",
      "outputs": [
        {
          "internalType": "uint256",
          "name": "",
          "type": "uint256"
        }
      ],
      "stateMutability": "view",
      "type": "function",
      "constant": true
    },
    {
      "inputs": [],
      "name": "currentEpochTs",
      "outputs": [
        {
          "internalType": "uint256",
          "name": "",
          "type": "uint256"
        }
      ],
      "stateMutability": "view",
      "type": "function",
      "constant": true
    },
    {
      "inputs": [],
      "name": "currentHashId",
      "outputs": [
        {
          "internalType": "uint256",
          "name": "",
          "type": "uint256"
        }
      ],
      "stateMutability": "view",
      "type": "function",
      "constant": true
    },
    {
      "inputs": [],
      "name": "difficulty",
      "outputs": [
        {
          "internalType": "uint256",
          "name": "",
          "type": "uint256"
        }
      ],
      "stateMutability": "view",
      "type": "function",
      "constant": true
    },
    {
      "inputs": [],
      "name": "epochDurationSec",
      "outputs": [
        {
          "internalType": "uint256",
          "name": "",
          "type": "uint256"
        }
      ],
      "stateMutability": "view",
      "type": "function",
      "constant": true
    },
    {
      "inputs": [],
      "name": "epochHashCounter",
      "outputs": [
        {
          "internalType": "uint256",
          "name": "",
          "type": "uint256"
        }
      ],
      "stateMutability": "view",
      "type": "function",
      "constant": true
    },
    {
      "inputs": [
        {
          "internalType": "address",
          "name": "",
          "type": "address"
        },
        {
          "internalType": "uint256",
          "name": "",
          "type": "uint256"
        }
      ],
      "name": "hashIdsByAddress",
      "outputs": [
        {
          "internalType": "uint256",
          "name": "",
          "type": "uint256"
        }
      ],
      "stateMutability": "view",
      "type": "function",
      "constant": true
    },
    {
      "inputs": [
        {
          "internalType": "uint256",
          "name": "",
          "type": "uint256"
        }
      ],
      "name": "hashRecords",
      "outputs": [
        {
          "internalType": "bytes",
          "name": "",
          "type": "bytes"
        }
      ],
      "stateMutability": "view",
      "type": "function",
      "constant": true
    },
    {
      "inputs": [],
      "name": "owner",
      "outputs": [
        {
          "internalType": "address",
          "name": "",
          "type": "address"
        }
      ],
      "stateMutability": "view",
      "type": "function",
      "constant": true
    },
    {
      "inputs": [],
      "name": "paused",
      "outputs": [
        {
          "internalType": "bool",
          "name": "",
          "type": "bool"
        }
      ],
      "stateMutability": "view",
      "type": "function",
      "constant": true
    },
    {
      "inputs": [
        {
          "internalType": "address",
          "name": "",
          "type": "address"
        }
      ],
      "name": "recordCount",
      "outputs": [
        {
          "internalType": "uint256",
          "name": "",
          "type": "uint256"
        }
      ],
      "stateMutability": "view",
      "type": "function",
      "constant": true
    },
    {
      "inputs": [],
      "name": "renounceOwnership",
      "outputs": [],
      "stateMutability": "nonpayable",
      "type": "function"
    },
    {
      "inputs": [],
      "name": "targetDifficulty",
      "outputs": [
        {
          "internalType": "uint256",
          "name": "",
          "type": "uint256"
        }
      ],
      "stateMutability": "view",
      "type": "function",
      "constant": true
    },
    {
      "inputs": [
        {
          "internalType": "address",
          "name": "newOwner",
          "type": "address"
        }
      ],
      "name": "transferOwnership",
      "outputs": [],
      "stateMutability": "nonpayable",
      "type": "function"
    },
    {
      "inputs": [],
      "name": "variance",
      "outputs": [
        {
          "internalType": "uint256",
          "name": "",
          "type": "uint256"
        }
      ],
      "stateMutability": "view",
      "type": "function",
      "constant": true
    },
    {
      "inputs": [
        {
          "internalType": "uint256",
          "name": "_epochDurationSec",
          "type": "uint256"
        }
      ],
      "name": "setEpochDurationSec",
      "outputs": [],
      "stateMutability": "nonpayable",
      "type": "function"
    },
    {
      "inputs": [
        {
          "internalType": "uint256",
          "name": "_targetDifficulty",
          "type": "uint256"
        }
      ],
      "name": "setTargetDifficulty",
      "outputs": [],
      "stateMutability": "nonpayable",
      "type": "function"
    },
    {
      "inputs": [],
      "name": "lockDifficulty",
      "outputs": [],
      "stateMutability": "nonpayable",
      "type": "function"
    },
    {
      "inputs": [],
      "name": "unlockDifficulty",
      "outputs": [],
      "stateMutability": "nonpayable",
      "type": "function"
    },
    {
      "inputs": [
        {
          "internalType": "uint256",
          "name": "_difficulty",
          "type": "uint256"
        }
      ],
      "name": "setDifficulty",
      "outputs": [],
      "stateMutability": "nonpayable",
      "type": "function"
    },
    {
      "inputs": [],
      "name": "doHousekeeping",
      "outputs": [],
      "stateMutability": "nonpayable",
      "type": "function"
    },
    {
      "inputs": [
        {
          "internalType": "address",
          "name": "_address",
          "type": "address"
        },
        {
          "components": [
            {
              "internalType": "uint8",
              "name": "c",
              "type": "uint8"
            },
            {
              "internalType": "uint32",
              "name": "m",
              "type": "uint32"
            },
            {
              "internalType": "uint8",
              "name": "t",
              "type": "uint8"
            },
            {
              "internalType": "uint8",
              "name": "v",
              "type": "uint8"
            },
            {
              "internalType": "bytes32",
              "name": "k",
              "type": "bytes32"
            },
            {
              "internalType": "bytes",
              "name": "s",
              "type": "bytes"
            }
          ],
          "internalType": "struct BlockStorage.HashRecord",
          "name": "r",
          "type": "tuple"
        }
      ],
      "name": "storeNewRecord",
      "outputs": [],
      "stateMutability": "nonpayable",
      "type": "function"
    },
    {
      "inputs": [
        {
          "internalType": "address",
          "name": "_address",
          "type": "address"
        },
        {
          "internalType": "uint8",
          "name": "c",
          "type": "uint8"
        },
        {
          "internalType": "uint32",
          "name": "m",
          "type": "uint32"
        },
        {
          "internalType": "uint8",
          "name": "t",
          "type": "uint8"
        },
        {
          "internalType": "uint8",
          "name": "v",
          "type": "uint8"
        },
        {
          "internalType": "bytes32",
          "name": "k",
          "type": "bytes32"
        },
        {
          "internalType": "bytes",
          "name": "s",
          "type": "bytes"
        }
      ],
      "name": "storeNewRecordData",
      "outputs": [],
      "stateMutability": "nonpayable",
      "type": "function"
    },
    {
      "inputs": [
        {
          "internalType": "address",
          "name": "_address",
          "type": "address"
        },
        {
          "internalType": "bytes",
          "name": "_bytes",
          "type": "bytes"
        }
      ],
      "name": "storeNewRecordBytes",
      "outputs": [],
      "stateMutability": "nonpayable",
      "type": "function"
    },
    {
      "inputs": [
        {
          "internalType": "address[]",
          "name": "addresses",
          "type": "address[]"
        },
        {
          "internalType": "bytes[]",
          "name": "bb",
          "type": "bytes[]"
        }
      ],
      "name": "bulkStoreNewRecordsInc",
      "outputs": [],
      "stateMutability": "nonpayable",
      "type": "function"
    },
    {
      "inputs": [
        {
          "internalType": "address[]",
          "name": "addresses",
          "type": "address[]"
        },
        {
          "internalType": "uint256[]",
          "name": "_hasIds",
          "type": "uint256[]"
        },
        {
          "internalType": "bytes[]",
          "name": "bb",
          "type": "bytes[]"
        }
      ],
      "name": "bulkStoreNewRecords",
      "outputs": [],
      "stateMutability": "nonpayable",
      "type": "function"
    },
    {
      "inputs": [
        {
          "internalType": "address",
          "name": "_address",
          "type": "address"
        },
        {
          "components": [
            {
              "internalType": "uint8",
              "name": "c",
              "type": "uint8"
            },
            {
              "internalType": "uint32",
              "name": "m",
              "type": "uint32"
            },
            {
              "internalType": "uint8",
              "name": "t",
              "type": "uint8"
            },
            {
              "internalType": "uint8",
              "name": "v",
              "type": "uint8"
            },
            {
              "internalType": "bytes32",
              "name": "k",
              "type": "bytes32"
            },
            {
              "internalType": "bytes",
              "name": "s",
              "type": "bytes"
            }
          ],
          "internalType": "struct BlockStorage.HashRecord[]",
          "name": "hh",
          "type": "tuple[]"
        }
      ],
      "name": "bulkStoreRecordsInc",
      "outputs": [],
      "stateMutability": "nonpayable",
      "type": "function"
    },
    {
      "inputs": [
        {
          "internalType": "address",
          "name": "_address",
          "type": "address"
        },
        {
          "internalType": "bytes[]",
          "name": "bb",
          "type": "bytes[]"
        }
      ],
      "name": "bulkStoreRecordBytesInc",
      "outputs": [],
      "stateMutability": "nonpayable",
      "type": "function"
    },
    {
      "inputs": [
        {
          "internalType": "address",
          "name": "_address",
          "type": "address"
        },
        {
          "internalType": "uint256[]",
          "name": "_hasIds",
          "type": "uint256[]"
        },
        {
          "components": [
            {
              "internalType": "uint8",
              "name": "c",
              "type": "uint8"
            },
            {
              "internalType": "uint32",
              "name": "m",
              "type": "uint32"
            },
            {
              "internalType": "uint8",
              "name": "t",
              "type": "uint8"
            },
            {
              "internalType": "uint8",
              "name": "v",
              "type": "uint8"
            },
            {
              "internalType": "bytes32",
              "name": "k",
              "type": "bytes32"
            },
            {
              "internalType": "bytes",
              "name": "s",
              "type": "bytes"
            }
          ],
          "internalType": "struct BlockStorage.HashRecord[]",
          "name": "hh",
          "type": "tuple[]"
        }
      ],
      "name": "bulkStoreRecords",
      "outputs": [],
      "stateMutability": "nonpayable",
      "type": "function"
    },
    {
      "inputs": [
        {
          "internalType": "address",
          "name": "_address",
          "type": "address"
        },
        {
          "internalType": "uint256[]",
          "name": "_hasIds",
          "type": "uint256[]"
        },
        {
          "internalType": "bytes[]",
          "name": "bb",
          "type": "bytes[]"
        }
      ],
      "name": "bulkStoreRecordBytes",
      "outputs": [],
      "stateMutability": "nonpayable",
      "type": "function"
    },
    {
      "inputs": [
        {
          "internalType": "address[]",
          "name": "_addresses",
          "type": "address[]"
        },
        {
          "internalType": "uint256[]",
          "name": "_hasIds",
          "type": "uint256[]"
        },
        {
          "internalType": "bytes[]",
          "name": "bb",
          "type": "bytes[]"
        }
      ],
      "name": "bulkStoreRecordBytesFull",
      "outputs": [],
      "stateMutability": "nonpayable",
      "type": "function"
    },
    {
      "inputs": [
        {
          "internalType": "address",
          "name": "_address",
          "type": "address"
        },
        {
          "internalType": "uint256",
          "name": "_index",
          "type": "uint256"
        }
      ],
      "name": "getBytesLen",
      "outputs": [
        {
          "internalType": "uint256",
          "name": "len",
          "type": "uint256"
        }
      ],
      "stateMutability": "view",
      "type": "function",
      "constant": true
    },
    {
      "inputs": [
        {
          "internalType": "address",
          "name": "_address",
          "type": "address"
        },
        {
          "internalType": "uint256",
          "name": "_idx",
          "type": "uint256"
        }
      ],
      "name": "decodeRecordBytes",
      "outputs": [
        {
          "internalType": "uint8",
          "name": "c",
          "type": "uint8"
        },
        {
          "internalType": "uint32",
          "name": "m",
          "type": "uint32"
        },
        {
          "internalType": "uint8",
          "name": "t",
          "type": "uint8"
        },
        {
          "internalType": "uint8",
          "name": "v",
          "type": "uint8"
        },
        {
          "internalType": "bytes32",
          "name": "k",
          "type": "bytes32"
        },
        {
          "internalType": "bytes",
          "name": "s",
          "type": "bytes"
        }
      ],
      "stateMutability": "view",
      "type": "function",
      "constant": true
    },
    {
      "inputs": [
        {
          "internalType": "uint256",
          "name": "_hashId",
          "type": "uint256"
        }
      ],
      "name": "decodeRecordBytes",
      "outputs": [
        {
          "internalType": "uint8",
          "name": "c",
          "type": "uint8"
        },
        {
          "internalType": "uint32",
          "name": "m",
          "type": "uint32"
        },
        {
          "internalType": "uint8",
          "name": "t",
          "type": "uint8"
        },
        {
          "internalType": "uint8",
          "name": "v",
          "type": "uint8"
        },
        {
          "internalType": "bytes32",
          "name": "k",
          "type": "bytes32"
        },
        {
          "internalType": "bytes",
          "name": "s",
          "type": "bytes"
        }
      ],
      "stateMutability": "view",
      "type": "function",
      "constant": true
    },
    {
      "inputs": [
        {
          "internalType": "bytes",
          "name": "_data",
          "type": "bytes"
        }
      ],
      "name": "decodeRecordBytes",
      "outputs": [
        {
          "internalType": "uint8",
          "name": "c",
          "type": "uint8"
        },
        {
          "internalType": "uint32",
          "name": "m",
          "type": "uint32"
        },
        {
          "internalType": "uint8",
          "name": "t",
          "type": "uint8"
        },
        {
          "internalType": "uint8",
          "name": "v",
          "type": "uint8"
        },
        {
          "internalType": "bytes32",
          "name": "k",
          "type": "bytes32"
        },
        {
          "internalType": "bytes",
          "name": "s",
          "type": "bytes"
        }
      ],
      "stateMutability": "pure",
      "type": "function",
      "constant": true
    },
    {
      "inputs": [
        {
          "internalType": "address",
          "name": "_address",
          "type": "address"
        }
      ],
      "name": "getHashIdsByAddress",
      "outputs": [
        {
          "internalType": "uint256[]",
          "name": "ids",
          "type": "uint256[]"
        }
      ],
      "stateMutability": "view",
      "type": "function",
      "constant": true
    },
    {
      "inputs": [
        {
          "internalType": "address",
          "name": "_address",
          "type": "address"
        }
      ],
      "name": "getRecordsByAddress",
      "outputs": [
        {
          "components": [
            {
              "internalType": "uint8",
              "name": "c",
              "type": "uint8"
            },
            {
              "internalType": "uint32",
              "name": "m",
              "type": "uint32"
            },
            {
              "internalType": "uint8",
              "name": "t",
              "type": "uint8"
            },
            {
              "internalType": "uint8",
              "name": "v",
              "type": "uint8"
            },
            {
              "internalType": "bytes32",
              "name": "k",
              "type": "bytes32"
            },
            {
              "internalType": "bytes",
              "name": "s",
              "type": "bytes"
            }
          ],
          "internalType": "struct BlockStorage.HashRecord[]",
          "name": "recs",
          "type": "tuple[]"
        }
      ],
      "stateMutability": "view",
      "type": "function",
      "constant": true
    }
  ],
  "bytecode": "0x60806040526014600655610258600755620186a06008553480156200002357600080fd5b50604051620024a3380380620024a38339810160408190526200004691620000f7565b6200005133620000a7565b6000805460ff60a01b19169055826200006c5760016200006e565b825b600a5581620000805760085462000082565b815b600c5542600b558062000098576006546200009a565b805b6006555062000126915050565b600080546001600160a01b038381166001600160a01b0319831681178455604051919092169283917f8be0079c531659141344cd1fd0a4f28419497f9722a3daafe3b4186f6b6457e09190a35050565b6000806000606084860312156200010d57600080fd5b8351925060208401519150604084015190509250925092565b61236d80620001366000396000f3fe608060405234801561001057600080fd5b50600436106101f35760003560e01c806376671808116101165780637667180814610372578063799f63351461037b57806385ae2fb71461038e5780638b2db16e146103965780638da5cb5b1461039f578063a3d2216d146103a7578063a5cdb7e5146103d2578063a6def311146103e5578063a9abec5b1461040e578063ad88bb2714610417578063ba63245d14610437578063c78d90d414610457578063cb48c1b61461046a578063cf81e8991461047d578063d7580ce914610490578063db658b0f146104a3578063e1616531146104c3578063e2df0144146104d6578063ee5f8832146104e9578063f1d46f37146104fc578063f2fde38b1461050557600080fd5b806301595fa6146101f857806306ffc5ea146102025780630747b9c11461021e5780630927ea0c146102435780630e86b75e1461024c5780630ff99d591461025f578063151b8f4e1461026757806319cae4621461027057806327b50bfa146102795780632c292d7a1461028c5780633f7a9fb91461029f57806345fbbb8c146102b257806347efe9ab146102d2578063559f442e146102db5780635c975abb146102ee578063602512e114610306578063646e1c4f1461031957806369685c3614610321578063715018a61461035757806374811f6f1461035f575b600080fd5b610200610518565b005b61020b60095481565b6040519081526020015b60405180910390f35b61023161022c3660046118c2565b61052a565b60405161021596959493929190611932565b61020b6107d081565b61020061025a3660046119eb565b610577565b61020b600181565b61020b60075481565b61020b600c5481565b61020b6102873660046118c2565b6105ca565b61020061029a366004611ace565b61068d565b6102006102ad366004611b4e565b610825565b6102c56102c0366004611be7565b6109de565b6040516102159190611c02565b61020b600d5481565b6102006102e9366004611c46565b610ab2565b6102f6610c0c565b6040519015158152602001610215565b610200610314366004611cb1565b610c1c565b610200610c49565b61034a61032f366004611cb1565b6005602052600090815260409020546001600160a01b031681565b6040516102159190611cca565b610200610c59565b61020061036d366004611cb1565b610c6b565b61020b600a5481565b610200610389366004611cb1565b610c98565b610200610d24565b61020b60085481565b61034a610e79565b61020b6103b53660046118c2565b600260209081526000928352604080842090915290825290205481565b6102006103e0366004611cde565b610e88565b61034a6103f3366004611cb1565b6004602052600090815260409020546001600160a01b031681565b61020b600b5481565b61042a610425366004611be7565b610ee2565b6040516102159190611d30565b61020b610445366004611be7565b60036020526000908152604090205481565b610200610465366004611ddf565b6110ac565b610200610478366004611ddf565b6110f4565b61023161048b366004611cb1565b61113c565b61023161049e366004611e3a565b6111fe565b6104b66104b1366004611cb1565b6112a7565b6040516102159190611eea565b6102006104d1366004611efd565b611341565b6102006104e4366004611b4e565b6113c2565b6102006104f7366004611ace565b61143e565b61020b60065481565b610200610513366004611be7565b611472565b6105206114eb565b61052861154a565b565b6001600160a01b038216600090815260026020908152604080832084845290915281205481908190819081906060906105629061113c565b949d939c50919a509850965090945092505050565b6105c08860096000815461058a90611f67565b91829055506040516105ac908b908b908b908b908b908b908b90602001611f80565b6040516020818303038152906040526115a4565b5050505050505050565b6001600160a01b0382166000908152600260209081526040808320848452825280832054835260019091528120805482919061060590611fde565b80601f016020809104026020016040519081016040528092919081815260200182805461063190611fde565b801561067e5780601f106106535761010080835404028352916020019161067e565b820191906000526020600020905b81548152906001019060200180831161066157829003601f168201915b50509251979650505050505050565b60005b8181101561081d5761080a868686848181106106ae576106ae612018565b905060200201358585858181106106c7576106c7612018565b90506020028101906106d9919061202e565b6106e790602081019061204e565b8686868181106106f9576106f9612018565b905060200281019061070b919061202e565b61071c906040810190602001612069565b87878781811061072e5761072e612018565b9050602002810190610740919061202e565b61075190606081019060400161204e565b88888881811061076357610763612018565b9050602002810190610775919061202e565b61078690608081019060600161204e565b89898981811061079857610798612018565b90506020028101906107aa919061202e565b608001358a8a8a8181106107c0576107c0612018565b90506020028101906107d2919061202e565b6107e09060a0810190612084565b6040516020016107f69796959493929190611f80565b60405160208183030381529060405261164b565b508061081581611f67565b915050610690565b505050505050565b848114801561083357508281145b6108585760405162461bcd60e51b815260040161084f906120ca565b60405180910390fd5b846108755760405162461bcd60e51b815260040161084f906120fd565b60005b818110156109d557600061092388888481811061089757610897612018565b90506020020160208101906108ac9190611be7565b8787858181106108be576108be612018565b905060200201358686868181106108d7576108d7612018565b90506020028101906108e99190612084565b8080601f01602080910402602001604051908101604052809392919081815260200183838082843760009201919091525061164b92505050565b905080156109c25787878381811061093d5761093d612018565b90506020020160208101906109529190611be7565b6001600160a01b0316600a546009546000805160206123188339815191524288888881811061098357610983612018565b90506020028101906109959190612084565b6040516109a493929190612126565b60405180910390a4600d80549060006109bc83611f67565b91905055505b50806109cd81611f67565b915050610878565b5061081d610d24565b6001600160a01b038116600090815260036020526040902054606090806001600160401b03811115610a1257610a12611e24565b604051908082528060200260200182016040528015610a3b578160200160208202803683370190505b50915060005b81811015610aab576001600160a01b038416600090815260026020526040812090610a6d83600161215c565b815260200190815260200160002054838281518110610a8e57610a8e612018565b602090810291909101015280610aa381611f67565b915050610a41565b5050919050565b828114610ad15760405162461bcd60e51b815260040161084f906120ca565b82610aee5760405162461bcd60e51b815260040161084f906120fd565b60005b81811015610bfd576000610b4b868684818110610b1057610b10612018565b9050602002016020810190610b259190611be7565b600960008154610b3490611f67565b91829055508686868181106108d7576108d7612018565b90508015610bea57858583818110610b6557610b65612018565b9050602002016020810190610b7a9190611be7565b6001600160a01b0316600a5460095460008051602061231883398151915242888888818110610bab57610bab612018565b9050602002810190610bbd9190612084565b604051610bcc93929190612126565b60405180910390a4600d8054906000610be483611f67565b91905055505b5080610bf581611f67565b915050610af1565b50610c06610d24565b50505050565b600054600160a01b900460ff1690565b610c246114eb565b60008111610c445760405162461bcd60e51b815260040161084f90612175565b600c55565b610c516114eb565b610528611787565b610c616114eb565b61052860006117c3565b610c736114eb565b60008111610c935760405162461bcd60e51b815260040161084f90612175565b600855565b610ca06114eb565b60008111610ced5760405162461bcd60e51b815260206004820152601a6024820152792c189d1024b63632b3b0b61022b837b1b410223ab930ba34b7b760311b604482015260640161084f565b6007819055600a546040518291907f361d876894ff3854d2e192162a59a0ce8d9e27637af1302a2b8af18e3b007b2490600090a350565b600754600b54610d3490426121a5565b11156105285742600b55600a8054906000610d4e83611f67565b919050555060006001600754610d6491906121b8565b9050600060646006546064610d7991906121a5565b610d8390846121da565b610d8d91906121b8565b9050600060646006546064610da2919061215c565b610dac90856121da565b610db691906121b8565b905081600d54108015610dce5750610dcc610c0c565b155b15610df2576107d0600c6000828254610de791906121a5565b90915550610e279050565b80600d54118015610e085750610e06610c0c565b155b15610e27576107d0600c6000828254610e21919061215c565b90915550505b6000600d55600a54600c54600b546040517f3bb7b347508b7c148ec2094ac60d2e3d8b7595421025643f08b45cb78b326b5892610e6c92908252602082015260400190565b60405180910390a2505050565b6000546001600160a01b031690565b610edd83600960008154610e9b90611f67565b91905081905584848080601f0160208091040260200160405190810160405280939291908181526020018383808284376000920191909152506115a492505050565b505050565b6001600160a01b038116600090815260036020526040902054606090806001600160401b03811115610f1657610f16611e24565b604051908082528060200260200182016040528015610f7857816020015b6040805160c081018252600080825260208083018290529282018190526060808301829052608083019190915260a08201528252600019909201910181610f345790505b50915060005b81811015610aab576001600160a01b038416600090815260026020526040812081610faa84600161215c565b8152602001908152602001600020549050610fc48161113c565b898881518110610fd657610fd6612018565b60200260200101516000018a8981518110610ff357610ff3612018565b60200260200101516020018b8a8151811061101057611010612018565b60200260200101516040018c8b8151811061102d5761102d612018565b60200260200101516060018d8c8151811061104a5761104a612018565b60200260200101516080018e8d8151811061106757611067612018565b602090810291909101015160a001959095529490935260ff948516909352938316905263ffffffff9093169092529116905250806110a481611f67565b915050610f7e565b60005b81811015610c06576110e1846009600081546110ca90611f67565b91829055508585858181106106c7576106c7612018565b50806110ec81611f67565b9150506110af565b60005b81811015610c06576111298460096000815461111290611f67565b91829055508585858181106108d7576108d7612018565b508061113481611f67565b9150506110f7565b600080600080600060606111ea60016000898152602001908152602001600020805461116790611fde565b80601f016020809104026020016040519081016040528092919081815260200182805461119390611fde565b80156111e05780601f106111b5576101008083540402835291602001916111e0565b820191906000526020600020905b8154815290600101906020018083116111c357829003601f168201915b50505050506111fe565b949c939b5091995097509550909350915050565b8051600182015160058301516006840151600785015160278087015194959394929391929160609161123090826121a5565b6001600160401b0381111561124757611247611e24565b6040519080825280601f01601f191660200182016040528015611271576020820181803683370190505b509150602082016027820360005b8181101561129a57806028018b01518184015360010161127f565b5050505091939550919395565b600160205260009081526040902080546112c090611fde565b80601f01602080910402602001604051908101604052809291908181526020018280546112ec90611fde565b80156113395780601f1061130e57610100808354040283529160200191611339565b820191906000526020600020905b81548152906001019060200180831161131c57829003601f168201915b505050505081565b6113be8260096000815461135490611f67565b9182905550611366602085018561204e565b6113766040860160208701612069565b611386606087016040880161204e565b611396608088016060890161204e565b60808801356113a860a08a018a612084565b6040516020016105ac9796959493929190611f80565b5050565b60005b81811015611435576114228787838181106113e2576113e2612018565b90506020020160208101906113f79190611be7565b86868481811061140957611409612018565b905060200201358585858181106108d7576108d7612018565b508061142d81611f67565b9150506113c5565b50505050505050565b60005b8181101561081d5761145f8686868481811061140957611409612018565b508061146a81611f67565b915050611441565b61147a6114eb565b6001600160a01b0381166114df5760405162461bcd60e51b815260206004820152602660248201527f4f776e61626c653a206e6577206f776e657220697320746865207a65726f206160448201526564647265737360d01b606482015260840161084f565b6114e8816117c3565b50565b336114f4610e79565b6001600160a01b0316146105285760405162461bcd60e51b815260206004820181905260248201527f4f776e61626c653a2063616c6c6572206973206e6f7420746865206f776e6572604482015260640161084f565b611552611813565b6000805460ff60a01b1916600160a01b1790557f62e78cea01bee320cd4e420270b5ea74000d11b0c9f74754ebdbfc544b05a25861158d3390565b60405161159a9190611cca565b60405180910390a1565b6115af83838361164b565b6115f95760405162461bcd60e51b815260206004820152601b60248201527a58313a204475706c696361746520486173684964206f72204b657960281b604482015260640161084f565b826001600160a01b0316600a548360008051602061231883398151915242856040516116269291906121f1565b60405180910390a4600d805490600061163e83611f67565b9190505550610edd610d24565b6000828152600460205260408120546001600160a01b03161561167057506000611780565b600061167b836111fe565b506000818152600560205260409020549095506001600160a01b03161593506116ac92505050576000915050611780565b600084815260016020526040902080546116c590611fde565b90506000036116d8576000915050611780565b60008481526001602052604090206116f08482612258565b506001600160a01b038516600090815260026020908152604080832060039092528220805487939190829061172490611f67565b9182905550815260208082019290925260409081016000908120939093558683526004825280832080546001600160a01b038a166001600160a01b03199182168117909255948452600590925290912080549092161790555060015b9392505050565b61178f61185b565b6000805460ff60a01b191690557f5db9ee0a495bf2e6ff9c91a7834c1ba4fdd244a5e8aa4e537bd38aeae4b073aa3361158d565b600080546001600160a01b038381166001600160a01b0319831681178455604051919092169283917f8be0079c531659141344cd1fd0a4f28419497f9722a3daafe3b4186f6b6457e09190a35050565b61181b610c0c565b156105285760405162461bcd60e51b815260206004820152601060248201526f14185d5cd8589b194e881c185d5cd95960821b604482015260640161084f565b611863610c0c565b6105285760405162461bcd60e51b815260206004820152601460248201527314185d5cd8589b194e881b9bdd081c185d5cd95960621b604482015260640161084f565b80356001600160a01b03811681146118bd57600080fd5b919050565b600080604083850312156118d557600080fd5b6118de836118a6565b946020939093013593505050565b6000815180845260005b81811015611912576020818501810151868301820152016118f6565b506000602082860101526020601f19601f83011685010191505092915050565b60ff8716815263ffffffff8616602082015260ff8516604082015260ff8416606082015282608082015260c060a0820152600061197260c08301846118ec565b98975050505050505050565b803560ff811681146118bd57600080fd5b803563ffffffff811681146118bd57600080fd5b60008083601f8401126119b557600080fd5b5081356001600160401b038111156119cc57600080fd5b6020830191508360208285010111156119e457600080fd5b9250929050565b60008060008060008060008060e0898b031215611a0757600080fd5b611a10896118a6565b9750611a1e60208a0161197e565b9650611a2c60408a0161198f565b9550611a3a60608a0161197e565b9450611a4860808a0161197e565b935060a0890135925060c08901356001600160401b03811115611a6a57600080fd5b611a768b828c016119a3565b999c989b5096995094979396929594505050565b60008083601f840112611a9c57600080fd5b5081356001600160401b03811115611ab357600080fd5b6020830191508360208260051b85010111156119e457600080fd5b600080600080600060608688031215611ae657600080fd5b611aef866118a6565b945060208601356001600160401b0380821115611b0b57600080fd5b611b1789838a01611a8a565b90965094506040880135915080821115611b3057600080fd5b50611b3d88828901611a8a565b969995985093965092949392505050565b60008060008060008060608789031215611b6757600080fd5b86356001600160401b0380821115611b7e57600080fd5b611b8a8a838b01611a8a565b90985096506020890135915080821115611ba357600080fd5b611baf8a838b01611a8a565b90965094506040890135915080821115611bc857600080fd5b50611bd589828a01611a8a565b979a9699509497509295939492505050565b600060208284031215611bf957600080fd5b611780826118a6565b6020808252825182820181905260009190848201906040850190845b81811015611c3a57835183529284019291840191600101611c1e565b50909695505050505050565b60008060008060408587031215611c5c57600080fd5b84356001600160401b0380821115611c7357600080fd5b611c7f88838901611a8a565b90965094506020870135915080821115611c9857600080fd5b50611ca587828801611a8a565b95989497509550505050565b600060208284031215611cc357600080fd5b5035919050565b6001600160a01b0391909116815260200190565b600080600060408486031215611cf357600080fd5b611cfc846118a6565b925060208401356001600160401b03811115611d1757600080fd5b611d23868287016119a3565b9497909650939450505050565b60006020808301818452808551808352604092508286019150828160051b87010184880160005b83811015611dd157888303603f190185528151805160ff90811685528882015163ffffffff168986015287820151811688860152606080830151909116908501526080808201519085015260a09081015160c091850182905290611dbd818601836118ec565b968901969450505090860190600101611d57565b509098975050505050505050565b600080600060408486031215611df457600080fd5b611dfd846118a6565b925060208401356001600160401b03811115611e1857600080fd5b611d2386828701611a8a565b634e487b7160e01b600052604160045260246000fd5b600060208284031215611e4c57600080fd5b81356001600160401b0380821115611e6357600080fd5b818401915084601f830112611e7757600080fd5b813581811115611e8957611e89611e24565b604051601f8201601f19908116603f01168101908382118183101715611eb157611eb1611e24565b81604052828152876020848701011115611eca57600080fd5b826020860160208301376000928101602001929092525095945050505050565b60208152600061178060208301846118ec565b60008060408385031215611f1057600080fd5b611f19836118a6565b915060208301356001600160401b03811115611f3457600080fd5b830160c08186031215611f4657600080fd5b809150509250929050565b634e487b7160e01b600052601160045260246000fd5b600060018201611f7957611f79611f51565b5060010190565b6001600160f81b031960f889811b821683526001600160e01b031960e08a901b16600184015287811b8216600584015286901b1660068201526007810184905260008284602784013750600091016027019081529695505050505050565b600181811c90821680611ff257607f821691505b60208210810361201257634e487b7160e01b600052602260045260246000fd5b50919050565b634e487b7160e01b600052603260045260246000fd5b6000823560be1983360301811261204457600080fd5b9190910192915050565b60006020828403121561206057600080fd5b6117808261197e565b60006020828403121561207b57600080fd5b6117808261198f565b6000808335601e1984360301811261209b57600080fd5b8301803591506001600160401b038211156120b557600080fd5b6020019150368190038213156119e457600080fd5b6020808252601990820152780b062744082e4e4c2f24098cadccee8d0409ad2e6dac2e8c6d603b1b604082015260600190565b6020808252600f908201526e58313a20456d70747920417272617960881b604082015260600190565b83815260406020820152816040820152818360608301376000818301606090810191909152601f909201601f1916010192915050565b8082018082111561216f5761216f611f51565b92915050565b60208082526016908201527558313a20496c6c6567616c20446966666963756c747960501b604082015260600190565b8181038181111561216f5761216f611f51565b6000826121d557634e487b7160e01b600052601260045260246000fd5b500490565b808202811582820484141761216f5761216f611f51565b82815260406020820152600061220a60408301846118ec565b949350505050565b601f821115610edd57600081815260208120601f850160051c810160208610156122395750805b601f850160051c820191505b8181101561081d57828155600101612245565b81516001600160401b0381111561227157612271611e24565b6122858161227f8454611fde565b84612212565b602080601f8311600181146122ba57600084156122a25750858301515b600019600386901b1c1916600185901b17855561081d565b600085815260208120601f198616915b828110156122e9578886015182559484019460019091019084016122ca565b50858210156123075787850151600019600388901b60f8161c191681555b5050505050600190811b0190555056fedf1fb391c3157eb3593a71fda03f806f05c81bd9d74426918a759f34fd9117a3a26469706673582212208fe0abace7448d83bcda7d86bc55b1b61b9a4d0c9a156c94d79b5f08eea0636464736f6c63430008140033",
  "immutableReferences": {},
  "source": "// SPDX-License-Identifier: MIT\npragma solidity ^0.8.20;\npragma abicoder v2;  // Enable ABI coder v2\n\nimport \"@openzeppelin/contracts/access/Ownable.sol\";\nimport \"@openzeppelin/contracts/security/Pausable.sol\";\n\ncontract BlockStorage is Ownable, Pausable {\n    struct HashRecord {\n        uint8 c;\n        uint32 m;\n        uint8 t;\n        uint8 v;\n        bytes32 k;\n        bytes s;\n    }\n\n    uint256 public constant TARGET_BLOCK_TIME_S = 1;\n    uint256 public constant DIFFICULTY_ADJUSTMENT = 2_000;\n\n    // hash ID => hash record\n    mapping(uint256 => bytes) public hashRecords;\n    // address => idx => hash ID\n    mapping(address => mapping(uint256 => uint256)) public hashIdsByAddress;\n    // address => record counter\n    mapping(address => uint256) public recordCount;\n    // hash ID => account address\n    mapping(uint256 => address) public addressesByHashId;\n    // key => account address\n    mapping(bytes32 => address) public addressesByKey;\n    // hourly timestamp => hash ID => account address\n    // mapping(uint256 => mapping(uint256 => address)) public hourlyRecords;\n\n    uint256 public variance = 20;               // is set in constructor\n    uint256 public epochDurationSec = 600;      // is set by authority\n    // uint256 public epochDurationSec = 3_600;       // is set by authority\n    uint256 public targetDifficulty = 100_000;  // is set by authority\n    uint256 public currentHashId;               // increments with each new Hash\n    uint256 public currentEpoch;                // increments every epoch\n    uint256 public currentEpochTs;              // is set every epoch\n    uint256 public difficulty;                  // ie set every epoch\n    uint256 public epochHashCounter;            // resets every epoch\n\n    constructor(uint256 _currentEpoch, uint256 _difficulty, uint256 _variance) {\n        currentEpoch = _currentEpoch > 0 ? _currentEpoch : 1;\n        difficulty = _difficulty > 0 ? _difficulty : targetDifficulty;\n        currentEpochTs = block.timestamp;\n        variance = _variance > 0 ? _variance : variance;\n    }\n\n    event NewHash(uint256 indexed hashId, uint256 indexed epoch, address indexed account, uint256 ts, bytes _bytes);\n    event NewEpoch(uint256 indexed epoch, uint256 difficulty, uint256 ts);\n    event EpochDurationSet(uint256 indexed epoch, uint256 indexed duration);\n    event TargetDifficultySet(uint256 indexed epoch, uint256 indexed difficulty);\n\n    function setEpochDurationSec(uint256 _epochDurationSec) external onlyOwner {\n        require(_epochDurationSec > 0, 'X1: Illegal Epoch Duration');\n        epochDurationSec = _epochDurationSec;\n        emit EpochDurationSet(currentEpoch, _epochDurationSec);\n    }\n\n    function setTargetDifficulty(uint256 _targetDifficulty) external onlyOwner {\n        require(_targetDifficulty > 0, 'X1: Illegal Difficulty');\n        targetDifficulty = _targetDifficulty;\n    }\n\n    function lockDifficulty() external onlyOwner {\n        _pause();\n    }\n\n    function unlockDifficulty() external onlyOwner {\n        _unpause();\n    }\n\n    function setDifficulty(uint256 _difficulty) external onlyOwner {\n        require(_difficulty > 0, 'X1: Illegal Difficulty');\n        difficulty = _difficulty;\n    }\n\n    function doHousekeeping() public {\n        if (block.timestamp - currentEpochTs > epochDurationSec) {\n            currentEpochTs = block.timestamp;\n            currentEpoch++;\n            uint256 targetHashCount = epochDurationSec / TARGET_BLOCK_TIME_S;\n            uint256 lowerBound = targetHashCount * (100 - variance) / 100;\n            uint256 upperBound = targetHashCount * (100 + variance) / 100;\n            if (epochHashCounter < lowerBound && !paused()) {\n                difficulty -= DIFFICULTY_ADJUSTMENT;\n            } else if (epochHashCounter > upperBound && !paused()) {\n                difficulty += DIFFICULTY_ADJUSTMENT;\n            }\n            epochHashCounter = 0;\n            emit NewEpoch(currentEpoch, difficulty, currentEpochTs);\n        }\n    }\n\n    function _storeRecord(address _address, uint256 _hashId, bytes memory _bytes) internal returns (bool) {\n        if (addressesByHashId[_hashId] != address(0)) return false;\n        ( , , , , bytes32 k, ) = decodeRecordBytes(_bytes);\n        if (addressesByKey[k] != address(0)) return false;\n        if (hashRecords[_hashId].length == 0) return false;\n\n        hashRecords[_hashId] = _bytes;\n        hashIdsByAddress[_address][++recordCount[_address]] = _hashId;\n        addressesByHashId[_hashId] = _address;\n        addressesByKey[k] = _address;\n        return true;\n    }\n\n    function _storeNewRecord(address _address, uint256 _hashId, bytes memory _bytes) internal {\n        require(_storeRecord(_address, _hashId, _bytes), 'X1: Duplicate HashId or Key');\n        emit NewHash(_hashId, currentEpoch, _address, block.timestamp, _bytes);\n        epochHashCounter++;\n        // this is done as the last step to avoid using new epoch values\n        doHousekeeping();   // check / start new epoch if required\n    }\n\n    function storeNewRecord(address _address, HashRecord calldata r) external {\n        _storeNewRecord(_address, ++currentHashId, abi.encodePacked(r.c, r.m, r.t, r.v, r.k, r.s));\n    }\n\n    function storeNewRecordData(address _address, uint8 c, uint32 m, uint8 t, uint8 v, bytes32 k, bytes calldata s) external {\n        _storeNewRecord(_address, ++currentHashId, abi.encodePacked(c, m, t, v, k, s));\n    }\n\n    function storeNewRecordBytes(address _address, bytes calldata _bytes) external {\n        _storeNewRecord(_address, ++currentHashId, _bytes);\n    }\n\n    function bulkStoreNewRecordsInc(address[] calldata addresses, bytes[] calldata bb) external {\n        require(addresses.length == bb.length, 'X1: Array Length Mismatch');\n        require(addresses.length > 0, 'X1: Empty Array');\n        for (uint i = 0; i < bb.length; i++) {\n            bool ok = _storeRecord(addresses[i], ++currentHashId, bb[i]);\n            if (ok) {\n                emit NewHash(currentHashId, currentEpoch, addresses[i], block.timestamp, bb[i]);\n                epochHashCounter++;\n            }\n        }\n        doHousekeeping();   // check / start new epoch if required\n    }\n\n    function bulkStoreNewRecords(address[] calldata addresses, uint256[] calldata _hasIds, bytes[] calldata bb) external {\n        require(addresses.length == bb.length && _hasIds.length == bb.length, 'X1: Array Length Mismatch');\n        require(addresses.length > 0, 'X1: Empty Array');\n        for (uint i = 0; i < bb.length; i++) {\n            bool ok = _storeRecord(addresses[i], _hasIds[i], bb[i]);\n            if (ok) {\n                emit NewHash(currentHashId, currentEpoch, addresses[i], block.timestamp, bb[i]);\n                epochHashCounter++;\n            }\n        }\n        doHousekeeping();   // check / start new epoch if required\n    }\n\n    function bulkStoreRecordsInc(address _address, HashRecord[] calldata hh) external {\n        for (uint i = 0; i < hh.length; i++) {\n            _storeRecord(_address, ++currentHashId, abi.encodePacked(hh[i].c, hh[i].m, hh[i].t, hh[i].v, hh[i].k, hh[i].s));\n        }\n    }\n\n    function bulkStoreRecordBytesInc(address _address, bytes[] calldata bb) external {\n        for (uint i = 0; i < bb.length; i++) {\n            _storeRecord(_address, ++currentHashId, bb[i]);\n        }\n    }\n\n    function bulkStoreRecords(address _address, uint256[] calldata _hasIds, HashRecord[] calldata hh) external {\n        for (uint i = 0; i < hh.length; i++) {\n            _storeRecord(_address, _hasIds[i], abi.encodePacked(hh[i].c, hh[i].m, hh[i].t, hh[i].v, hh[i].k, hh[i].s));\n        }\n    }\n\n    function bulkStoreRecordBytes(address _address, uint256[] calldata _hasIds, bytes[] calldata bb) external {\n        for (uint i = 0; i < bb.length; i++) {\n            _storeRecord(_address, _hasIds[i], bb[i]);\n        }\n    }\n\n    function bulkStoreRecordBytesFull(address[] calldata _addresses, uint256[] calldata _hasIds, bytes[] calldata bb) external {\n        for (uint i = 0; i < bb.length; i++) {\n            _storeRecord(_addresses[i], _hasIds[i], bb[i]);\n        }\n    }\n\n    function getBytesLen(address _address, uint256 _index) external view returns (uint len) {\n        bytes memory _data = hashRecords[hashIdsByAddress[_address][_index]];\n        assembly {\n            len := mload(_data)\n        }\n    }\n\n    function decodeRecordBytes(bytes memory _data)\n        public\n        pure\n        returns (uint8 c, uint32 m, uint8 t, uint8 v, bytes32 k, bytes memory s)\n    {\n        uint len;\n        assembly {\n            len := mload(_data)\n            c := mload(add(_data, 1))\n            m := mload(add(_data, 5))\n            t := mload(add(_data, 6))\n            v := mload(add(_data, 7))\n            k := mload(add(_data, 39))\n        }\n        s = new bytes(len - 39);\n        assembly {\n        // Skip the first 32 bytes reserved for the length of the memory array\n            let offset := add(s, 0x20)\n            let count := sub(len, 39)\n            for { let i := 0} lt(i, count) { i := add(i, 1) } {\n                mstore8(add(offset, i), mload(add(_data, add(40, i))))\n            }\n        }\n    }\n\n    function decodeRecordBytes(uint256 _hashId)\n        public\n        view\n        returns (uint8 c, uint32 m, uint8 t, uint8 v, bytes32 k, bytes memory s)\n    {\n        return decodeRecordBytes(hashRecords[_hashId]);\n    }\n\n    function decodeRecordBytes(address _address, uint256 _idx)\n        public\n        view\n        returns (uint8 c, uint32 m, uint8 t, uint8 v, bytes32 k, bytes memory s)\n    {\n        return decodeRecordBytes(hashIdsByAddress[_address][_idx]);\n    }\n\n    function getHashIdsByAddress(address _address) public view returns (uint256[] memory ids) {\n        uint256 count = recordCount[_address];\n        ids = new uint256[](count);\n        for (uint i = 0; i < count; i++) {\n            ids[i] = hashIdsByAddress[_address][i+1];\n        }\n    }\n\n    function getRecordsByAddress(address _address) public view returns (HashRecord[] memory recs) {\n        uint256 count = recordCount[_address];\n        recs = new HashRecord[](count);\n        for (uint i = 0; i < count; i++) {\n            uint256 hashId = hashIdsByAddress[_address][i+1];\n            (recs[i].c, recs[i].m, recs[i].t, recs[i].v, recs[i].k, recs[i].s) = decodeRecordBytes(hashId);\n        }\n    }\n}\n",
  "sourcePath": "/Users/lbelyaev/dev/x1-block-storage/contracts/BlockStorage.sol",
  "compiler": {
    "name": "solc",
    "version": "0.8.20+commit.a1b79de6.Emscripten.clang"
  },
  "schemaVersion": "3.4.16",
  "updatedAt": "2023-12-19T19:02:54.719Z",
  "networkType": "ethereum",
  "devdoc": {
    "events": {
      "Paused(address)": {
        "details": "Emitted when the pause is triggered by `account`."
      },
      "Unpaused(address)": {
        "details": "Emitted when the pause is lifted by `account`."
      }
    },
    "kind": "dev",
    "methods": {
      "owner()": {
        "details": "Returns the address of the current owner."
      },
      "paused()": {
        "details": "Returns true if the contract is paused, and false otherwise."
      },
      "renounceOwnership()": {
        "details": "Leaves the contract without owner. It will not be possible to call `onlyOwner` functions. Can only be called by the current owner. NOTE: Renouncing ownership will leave the contract without an owner, thereby disabling any functionality that is only available to the owner."
      },
      "transferOwnership(address)": {
        "details": "Transfers ownership of the contract to a new account (`newOwner`). Can only be called by the current owner."
      }
    },
    "version": 1
  },
  "userdoc": {
    "kind": "user",
    "methods": {},
    "version": 1
  }
}