{
  "contractName": "BlockStorage",
  "abi": [
    {
      "inputs": [
        {
          "internalType": "uint256",
          "name": "_currentEpoch",
          "type": "uint256"
        },
        {
          "internalType": "uint256",
          "name": "_difficulty",
          "type": "uint256"
        }
      ],
      "stateMutability": "nonpayable",
      "type": "constructor"
    },
    {
      "anonymous": false,
      "inputs": [
        {
          "indexed": true,
          "internalType": "uint256",
          "name": "epoch",
          "type": "uint256"
        },
        {
          "indexed": false,
          "internalType": "uint256",
          "name": "reward",
          "type": "uint256"
        },
        {
          "indexed": false,
          "internalType": "uint256",
          "name": "ts",
          "type": "uint256"
        }
      ],
      "name": "BaseRewardSet",
      "type": "event"
    },
    {
      "anonymous": false,
      "inputs": [
        {
          "indexed": true,
          "internalType": "uint256",
          "name": "epoch",
          "type": "uint256"
        },
        {
          "indexed": true,
          "internalType": "uint256",
          "name": "adjustment",
          "type": "uint256"
        }
      ],
      "name": "DifficultyAdjustmentSet",
      "type": "event"
    },
    {
      "anonymous": false,
      "inputs": [
        {
          "indexed": true,
          "internalType": "uint256",
          "name": "epoch",
          "type": "uint256"
        },
        {
          "indexed": true,
          "internalType": "uint256",
          "name": "difficulty",
          "type": "uint256"
        }
      ],
      "name": "DifficultySet",
      "type": "event"
    },
    {
      "anonymous": false,
      "inputs": [
        {
          "indexed": true,
          "internalType": "uint256",
          "name": "epoch",
          "type": "uint256"
        },
        {
          "indexed": true,
          "internalType": "uint256",
          "name": "duration",
          "type": "uint256"
        }
      ],
      "name": "EpochDurationSet",
      "type": "event"
    },
    {
      "anonymous": false,
      "inputs": [
        {
          "indexed": true,
          "internalType": "uint256",
          "name": "epoch",
          "type": "uint256"
        },
        {
          "indexed": false,
          "internalType": "uint256",
          "name": "difficulty",
          "type": "uint256"
        },
        {
          "indexed": false,
          "internalType": "uint256",
          "name": "ts",
          "type": "uint256"
        }
      ],
      "name": "NewEpoch",
      "type": "event"
    },
    {
      "anonymous": false,
      "inputs": [
        {
          "indexed": true,
          "internalType": "uint256",
          "name": "hashId",
          "type": "uint256"
        },
        {
          "indexed": true,
          "internalType": "uint256",
          "name": "epoch",
          "type": "uint256"
        },
        {
          "indexed": true,
          "internalType": "address",
          "name": "account",
          "type": "address"
        },
        {
          "indexed": false,
          "internalType": "uint256",
          "name": "ts",
          "type": "uint256"
        },
        {
          "indexed": false,
          "internalType": "bytes",
          "name": "_bytes",
          "type": "bytes"
        }
      ],
      "name": "NewHash",
      "type": "event"
    },
    {
      "anonymous": false,
      "inputs": [
        {
          "indexed": true,
          "internalType": "uint256",
          "name": "logId",
          "type": "uint256"
        },
        {
          "indexed": true,
          "internalType": "uint256",
          "name": "epoch",
          "type": "uint256"
        },
        {
          "indexed": true,
          "internalType": "uint256",
          "name": "ts",
          "type": "uint256"
        },
        {
          "indexed": false,
          "internalType": "uint256",
          "name": "count",
          "type": "uint256"
        },
        {
          "indexed": false,
          "internalType": "bytes32",
          "name": "hash",
          "type": "bytes32"
        }
      ],
      "name": "NewHashLog",
      "type": "event"
    },
    {
      "anonymous": false,
      "inputs": [
        {
          "indexed": true,
          "internalType": "uint256",
          "name": "logId",
          "type": "uint256"
        },
        {
          "indexed": true,
          "internalType": "uint256",
          "name": "epoch",
          "type": "uint256"
        },
        {
          "indexed": true,
          "internalType": "uint256",
          "name": "ts",
          "type": "uint256"
        },
        {
          "indexed": false,
          "internalType": "uint256",
          "name": "count",
          "type": "uint256"
        }
      ],
      "name": "NewHashLogShort",
      "type": "event"
    },
    {
      "anonymous": false,
      "inputs": [
        {
          "indexed": true,
          "internalType": "address",
          "name": "previousOwner",
          "type": "address"
        },
        {
          "indexed": true,
          "internalType": "address",
          "name": "newOwner",
          "type": "address"
        }
      ],
      "name": "OwnershipTransferred",
      "type": "event"
    },
    {
      "anonymous": false,
      "inputs": [
        {
          "indexed": false,
          "internalType": "address",
          "name": "account",
          "type": "address"
        }
      ],
      "name": "Paused",
      "type": "event"
    },
    {
      "anonymous": false,
      "inputs": [
        {
          "indexed": false,
          "internalType": "address",
          "name": "account",
          "type": "address"
        }
      ],
      "name": "Unpaused",
      "type": "event"
    },
    {
      "anonymous": false,
      "inputs": [
        {
          "indexed": true,
          "internalType": "uint256",
          "name": "epoch",
          "type": "uint256"
        },
        {
          "indexed": true,
          "internalType": "uint256",
          "name": "variance",
          "type": "uint256"
        }
      ],
      "name": "VarianceSet",
      "type": "event"
    },
    {
      "inputs": [],
      "name": "AUTHORS",
      "outputs": [
        {
          "internalType": "string",
          "name": "",
          "type": "string"
        }
      ],
      "stateMutability": "view",
      "type": "function"
    },
    {
      "inputs": [],
      "name": "BASE_REWARD",
      "outputs": [
        {
          "internalType": "uint256",
          "name": "",
          "type": "uint256"
        }
      ],
      "stateMutability": "view",
      "type": "function"
    },
    {
      "inputs": [],
      "name": "BASE_REWARD_INTERVAL_S",
      "outputs": [
        {
          "internalType": "uint256",
          "name": "",
          "type": "uint256"
        }
      ],
      "stateMutability": "view",
      "type": "function"
    },
    {
      "inputs": [],
      "name": "DEFAULT_DIFFICULTY",
      "outputs": [
        {
          "internalType": "uint256",
          "name": "",
          "type": "uint256"
        }
      ],
      "stateMutability": "view",
      "type": "function"
    },
    {
      "inputs": [],
      "name": "GENESIS_TS",
      "outputs": [
        {
          "internalType": "uint256",
          "name": "",
          "type": "uint256"
        }
      ],
      "stateMutability": "view",
      "type": "function"
    },
    {
      "inputs": [],
      "name": "GENESIS_TWEET",
      "outputs": [
        {
          "internalType": "string",
          "name": "",
          "type": "string"
        }
      ],
      "stateMutability": "view",
      "type": "function"
    },
    {
      "inputs": [],
      "name": "TARGET_BLOCK_TIME_S",
      "outputs": [
        {
          "internalType": "uint256",
          "name": "",
          "type": "uint256"
        }
      ],
      "stateMutability": "view",
      "type": "function"
    },
    {
      "inputs": [
        {
          "internalType": "uint256",
          "name": "",
          "type": "uint256"
        }
      ],
      "name": "addressesByHashId",
      "outputs": [
        {
          "internalType": "address",
          "name": "",
          "type": "address"
        }
      ],
      "stateMutability": "view",
      "type": "function"
    },
    {
      "inputs": [
        {
          "internalType": "bytes32",
          "name": "",
          "type": "bytes32"
        }
      ],
      "name": "addressesByKey",
      "outputs": [
        {
          "internalType": "address",
          "name": "",
          "type": "address"
        }
      ],
      "stateMutability": "view",
      "type": "function"
    },
    {
      "inputs": [],
      "name": "currentEpoch",
      "outputs": [
        {
          "internalType": "uint256",
          "name": "",
          "type": "uint256"
        }
      ],
      "stateMutability": "view",
      "type": "function"
    },
    {
      "inputs": [],
      "name": "currentEpochTs",
      "outputs": [
        {
          "internalType": "uint256",
          "name": "",
          "type": "uint256"
        }
      ],
      "stateMutability": "view",
      "type": "function"
    },
    {
      "inputs": [],
      "name": "currentHashId",
      "outputs": [
        {
          "internalType": "uint256",
          "name": "",
          "type": "uint256"
        }
      ],
      "stateMutability": "view",
      "type": "function"
    },
    {
      "inputs": [],
      "name": "currentLogId",
      "outputs": [
        {
          "internalType": "uint256",
          "name": "",
          "type": "uint256"
        }
      ],
      "stateMutability": "view",
      "type": "function"
    },
    {
      "inputs": [],
      "name": "currentReward",
      "outputs": [
        {
          "internalType": "uint256",
          "name": "",
          "type": "uint256"
        }
      ],
      "stateMutability": "view",
      "type": "function"
    },
    {
      "inputs": [],
      "name": "currentRewardTs",
      "outputs": [
        {
          "internalType": "uint256",
          "name": "",
          "type": "uint256"
        }
      ],
      "stateMutability": "view",
      "type": "function"
    },
    {
      "inputs": [],
      "name": "difficulty",
      "outputs": [
        {
          "internalType": "uint256",
          "name": "",
          "type": "uint256"
        }
      ],
      "stateMutability": "view",
      "type": "function"
    },
    {
      "inputs": [],
      "name": "difficultyAdjustment",
      "outputs": [
        {
          "internalType": "uint256",
          "name": "",
          "type": "uint256"
        }
      ],
      "stateMutability": "view",
      "type": "function"
    },
    {
      "inputs": [],
      "name": "epochDurationSec",
      "outputs": [
        {
          "internalType": "uint256",
          "name": "",
          "type": "uint256"
        }
      ],
      "stateMutability": "view",
      "type": "function"
    },
    {
      "inputs": [],
      "name": "epochHashCounter",
      "outputs": [
        {
          "internalType": "uint256",
          "name": "",
          "type": "uint256"
        }
      ],
      "stateMutability": "view",
      "type": "function"
    },
    {
      "inputs": [
        {
          "internalType": "address",
          "name": "",
          "type": "address"
        },
        {
          "internalType": "uint256",
          "name": "",
          "type": "uint256"
        }
      ],
      "name": "hashIdsByAddress",
      "outputs": [
        {
          "internalType": "uint256",
          "name": "",
          "type": "uint256"
        }
      ],
      "stateMutability": "view",
      "type": "function"
    },
    {
      "inputs": [
        {
          "internalType": "uint256",
          "name": "",
          "type": "uint256"
        }
      ],
      "name": "hashRecords",
      "outputs": [
        {
          "internalType": "bytes",
          "name": "",
          "type": "bytes"
        }
      ],
      "stateMutability": "view",
      "type": "function"
    },
    {
      "inputs": [],
      "name": "owner",
      "outputs": [
        {
          "internalType": "address",
          "name": "",
          "type": "address"
        }
      ],
      "stateMutability": "view",
      "type": "function"
    },
    {
      "inputs": [],
      "name": "paused",
      "outputs": [
        {
          "internalType": "bool",
          "name": "",
          "type": "bool"
        }
      ],
      "stateMutability": "view",
      "type": "function"
    },
    {
      "inputs": [
        {
          "internalType": "address",
          "name": "",
          "type": "address"
        }
      ],
      "name": "recordCount",
      "outputs": [
        {
          "internalType": "uint256",
          "name": "",
          "type": "uint256"
        }
      ],
      "stateMutability": "view",
      "type": "function"
    },
    {
      "inputs": [],
      "name": "renounceOwnership",
      "outputs": [],
      "stateMutability": "nonpayable",
      "type": "function"
    },
    {
      "inputs": [
        {
          "internalType": "address",
          "name": "newOwner",
          "type": "address"
        }
      ],
      "name": "transferOwnership",
      "outputs": [],
      "stateMutability": "nonpayable",
      "type": "function"
    },
    {
      "inputs": [],
      "name": "variance",
      "outputs": [
        {
          "internalType": "uint256",
          "name": "",
          "type": "uint256"
        }
      ],
      "stateMutability": "view",
      "type": "function"
    },
    {
      "inputs": [
        {
          "internalType": "uint256",
          "name": "_variance",
          "type": "uint256"
        }
      ],
      "name": "setVariance",
      "outputs": [],
      "stateMutability": "nonpayable",
      "type": "function"
    },
    {
      "inputs": [
        {
          "internalType": "uint256",
          "name": "_epochDurationSec",
          "type": "uint256"
        }
      ],
      "name": "setEpochDurationSec",
      "outputs": [],
      "stateMutability": "nonpayable",
      "type": "function"
    },
    {
      "inputs": [
        {
          "internalType": "uint256",
          "name": "_difficulty",
          "type": "uint256"
        }
      ],
      "name": "setDifficulty",
      "outputs": [],
      "stateMutability": "nonpayable",
      "type": "function"
    },
    {
      "inputs": [
        {
          "internalType": "uint256",
          "name": "_difficultyAdjustment",
          "type": "uint256"
        }
      ],
      "name": "setDifficultyAdjustment",
      "outputs": [],
      "stateMutability": "nonpayable",
      "type": "function"
    },
    {
      "inputs": [],
      "name": "lockDifficulty",
      "outputs": [],
      "stateMutability": "nonpayable",
      "type": "function"
    },
    {
      "inputs": [],
      "name": "unlockDifficulty",
      "outputs": [],
      "stateMutability": "nonpayable",
      "type": "function"
    },
    {
      "inputs": [],
      "name": "doFullHousekeeping",
      "outputs": [],
      "stateMutability": "nonpayable",
      "type": "function"
    },
    {
      "inputs": [],
      "name": "doHousekeeping",
      "outputs": [],
      "stateMutability": "nonpayable",
      "type": "function"
    },
    {
      "inputs": [
        {
          "components": [
            {
              "internalType": "uint8",
              "name": "c",
              "type": "uint8"
            },
            {
              "internalType": "uint32",
              "name": "m",
              "type": "uint32"
            },
            {
              "internalType": "uint8",
              "name": "t",
              "type": "uint8"
            },
            {
              "internalType": "uint8",
              "name": "v",
              "type": "uint8"
            },
            {
              "internalType": "bytes32",
              "name": "k",
              "type": "bytes32"
            },
            {
              "internalType": "bytes",
              "name": "s",
              "type": "bytes"
            }
          ],
          "internalType": "struct BlockStorage.HashRecord",
          "name": "r",
          "type": "tuple"
        }
      ],
      "name": "storeNewRecord",
      "outputs": [],
      "stateMutability": "nonpayable",
      "type": "function"
    },
    {
      "inputs": [
        {
          "internalType": "address",
          "name": "_address",
          "type": "address"
        },
        {
          "components": [
            {
              "internalType": "uint8",
              "name": "c",
              "type": "uint8"
            },
            {
              "internalType": "uint32",
              "name": "m",
              "type": "uint32"
            },
            {
              "internalType": "uint8",
              "name": "t",
              "type": "uint8"
            },
            {
              "internalType": "uint8",
              "name": "v",
              "type": "uint8"
            },
            {
              "internalType": "bytes32",
              "name": "k",
              "type": "bytes32"
            },
            {
              "internalType": "bytes",
              "name": "s",
              "type": "bytes"
            }
          ],
          "internalType": "struct BlockStorage.HashRecord",
          "name": "r",
          "type": "tuple"
        }
      ],
      "name": "storeNewRecord",
      "outputs": [],
      "stateMutability": "nonpayable",
      "type": "function"
    },
    {
      "inputs": [
        {
          "internalType": "address",
          "name": "_address",
          "type": "address"
        },
        {
          "internalType": "uint8",
          "name": "c",
          "type": "uint8"
        },
        {
          "internalType": "uint32",
          "name": "m",
          "type": "uint32"
        },
        {
          "internalType": "uint8",
          "name": "t",
          "type": "uint8"
        },
        {
          "internalType": "uint8",
          "name": "v",
          "type": "uint8"
        },
        {
          "internalType": "bytes32",
          "name": "k",
          "type": "bytes32"
        },
        {
          "internalType": "bytes",
          "name": "s",
          "type": "bytes"
        }
      ],
      "name": "storeNewRecordData",
      "outputs": [],
      "stateMutability": "nonpayable",
      "type": "function"
    },
    {
      "inputs": [
        {
          "internalType": "uint8",
          "name": "c",
          "type": "uint8"
        },
        {
          "internalType": "uint32",
          "name": "m",
          "type": "uint32"
        },
        {
          "internalType": "uint8",
          "name": "t",
          "type": "uint8"
        },
        {
          "internalType": "uint8",
          "name": "v",
          "type": "uint8"
        },
        {
          "internalType": "bytes32",
          "name": "k",
          "type": "bytes32"
        },
        {
          "internalType": "bytes",
          "name": "s",
          "type": "bytes"
        }
      ],
      "name": "storeNewRecordData",
      "outputs": [],
      "stateMutability": "nonpayable",
      "type": "function"
    },
    {
      "inputs": [
        {
          "internalType": "address",
          "name": "_address",
          "type": "address"
        },
        {
          "internalType": "bytes",
          "name": "_bytes",
          "type": "bytes"
        }
      ],
      "name": "storeNewRecordBytes",
      "outputs": [],
      "stateMutability": "nonpayable",
      "type": "function"
    },
    {
      "inputs": [
        {
          "internalType": "bytes",
          "name": "_bytes",
          "type": "bytes"
        }
      ],
      "name": "storeNewRecordBytes",
      "outputs": [],
      "stateMutability": "nonpayable",
      "type": "function"
    },
    {
      "inputs": [
        {
          "internalType": "address[]",
          "name": "addresses",
          "type": "address[]"
        },
        {
          "internalType": "bytes[]",
          "name": "bb",
          "type": "bytes[]"
        }
      ],
      "name": "bulkStoreNewRecordsInc",
      "outputs": [],
      "stateMutability": "nonpayable",
      "type": "function"
    },
    {
      "inputs": [
        {
          "internalType": "address[]",
          "name": "addresses",
          "type": "address[]"
        },
        {
          "internalType": "bytes[]",
          "name": "bb",
          "type": "bytes[]"
        }
      ],
      "name": "bulkStoreRecordBytes",
      "outputs": [],
      "stateMutability": "nonpayable",
      "type": "function"
    },
    {
      "inputs": [
        {
          "internalType": "bytes[]",
          "name": "bb",
          "type": "bytes[]"
        }
      ],
      "name": "logStoreRecordBytes",
      "outputs": [],
      "stateMutability": "nonpayable",
      "type": "function"
    },
    {
      "inputs": [
        {
          "internalType": "uint8",
          "name": "count",
          "type": "uint8"
        },
        {
          "internalType": "bytes",
          "name": "blob",
          "type": "bytes"
        }
      ],
      "name": "logStoreRecords",
      "outputs": [],
      "stateMutability": "nonpayable",
      "type": "function"
    },
    {
      "inputs": [
        {
          "internalType": "address",
          "name": "_address",
          "type": "address"
        },
        {
          "internalType": "uint256",
          "name": "_index",
          "type": "uint256"
        }
      ],
      "name": "getBytesLen",
      "outputs": [
        {
          "internalType": "uint256",
          "name": "len",
          "type": "uint256"
        }
      ],
      "stateMutability": "view",
      "type": "function"
    },
    {
      "inputs": [
        {
          "internalType": "address",
          "name": "_address",
          "type": "address"
        },
        {
          "internalType": "uint256",
          "name": "_idx",
          "type": "uint256"
        }
      ],
      "name": "decodeRecordBytes",
      "outputs": [
        {
          "internalType": "uint8",
          "name": "c",
          "type": "uint8"
        },
        {
          "internalType": "uint32",
          "name": "m",
          "type": "uint32"
        },
        {
          "internalType": "uint8",
          "name": "t",
          "type": "uint8"
        },
        {
          "internalType": "uint8",
          "name": "v",
          "type": "uint8"
        },
        {
          "internalType": "bytes32",
          "name": "k",
          "type": "bytes32"
        },
        {
          "internalType": "bytes",
          "name": "s",
          "type": "bytes"
        }
      ],
      "stateMutability": "view",
      "type": "function"
    },
    {
      "inputs": [
        {
          "internalType": "uint256",
          "name": "_hashId",
          "type": "uint256"
        }
      ],
      "name": "decodeRecordBytes",
      "outputs": [
        {
          "internalType": "uint8",
          "name": "c",
          "type": "uint8"
        },
        {
          "internalType": "uint32",
          "name": "m",
          "type": "uint32"
        },
        {
          "internalType": "uint8",
          "name": "t",
          "type": "uint8"
        },
        {
          "internalType": "uint8",
          "name": "v",
          "type": "uint8"
        },
        {
          "internalType": "bytes32",
          "name": "k",
          "type": "bytes32"
        },
        {
          "internalType": "bytes",
          "name": "s",
          "type": "bytes"
        }
      ],
      "stateMutability": "view",
      "type": "function"
    },
    {
      "inputs": [
        {
          "internalType": "bytes",
          "name": "_data",
          "type": "bytes"
        }
      ],
      "name": "decodeRecordBytes",
      "outputs": [
        {
          "internalType": "uint8",
          "name": "c",
          "type": "uint8"
        },
        {
          "internalType": "uint32",
          "name": "m",
          "type": "uint32"
        },
        {
          "internalType": "uint8",
          "name": "t",
          "type": "uint8"
        },
        {
          "internalType": "uint8",
          "name": "v",
          "type": "uint8"
        },
        {
          "internalType": "bytes32",
          "name": "k",
          "type": "bytes32"
        },
        {
          "internalType": "bytes",
          "name": "s",
          "type": "bytes"
        }
      ],
      "stateMutability": "pure",
      "type": "function"
    },
    {
      "inputs": [
        {
          "internalType": "address",
          "name": "_address",
          "type": "address"
        }
      ],
      "name": "getHashIdsByAddress",
      "outputs": [
        {
          "internalType": "uint256[]",
          "name": "ids",
          "type": "uint256[]"
        }
      ],
      "stateMutability": "view",
      "type": "function"
    },
    {
      "inputs": [
        {
          "internalType": "address",
          "name": "_address",
          "type": "address"
        }
      ],
      "name": "getRecordsByAddress",
      "outputs": [
        {
          "components": [
            {
              "internalType": "uint8",
              "name": "c",
              "type": "uint8"
            },
            {
              "internalType": "uint32",
              "name": "m",
              "type": "uint32"
            },
            {
              "internalType": "uint8",
              "name": "t",
              "type": "uint8"
            },
            {
              "internalType": "uint8",
              "name": "v",
              "type": "uint8"
            },
            {
              "internalType": "bytes32",
              "name": "k",
              "type": "bytes32"
            },
            {
              "internalType": "bytes",
              "name": "s",
              "type": "bytes"
            }
          ],
          "internalType": "struct BlockStorage.HashRecord[]",
          "name": "recs",
          "type": "tuple[]"
        }
      ],
      "stateMutability": "view",
      "type": "function"
    }
  ],
  "bytecode": "0x608060405260146006556102586007556107d0600855678ac7230489e800006009556364facf5a600a556001600b556001600c553480156200004057600080fd5b50604051620026b0380380620026b08339810160408190526200006391620000fc565b6200006e33620000ac565b6000805460ff60a01b1916905581620000895760016200008b565b815b600d55806200009e57620186a0620000a0565b805b600f5550620001219050565b600080546001600160a01b038381166001600160a01b0319831681178455604051919092169283917f8be0079c531659141344cd1fd0a4f28419497f9722a3daafe3b4186f6b6457e09190a35050565b600080604083850312156200011057600080fd5b505080516020909101519092909150565b61257f80620001316000396000f3fe608060405234801561001057600080fd5b50600436106102615760003560e01c806385ae2fb71161014d57806385ae2fb71461041757806389dec8f71461041f5780638da5cb5b14610432578063a23c0f501461043a578063a2a61a371461044d578063a3d2216d14610460578063a5cdb7e51461048b578063a65bbc571461049e578063a6def311146104b1578063a9abec5b146104da578063ad88bb27146104e3578063b61e887814610503578063ba3ec7411461050e578063ba63245d14610539578063ce265d6e14610559578063cf65fdcc1461056c578063cf81e8991461057f578063d7580ce914610592578063db658b0f146105a5578063decf8c24146105b8578063e1616531146105c1578063e23e3e19146105d4578063ebce4b73146105e7578063f1d46f37146105f0578063f2fde38b146105f9578063f6a197651461060c57600080fd5b806301595fa61461026657806306ffc5ea146102705780630747b9c11461028c57806307621eca146102b15780630e86b75e146102ba5780630ff99d59146102cd578063151b8f4e146102d557806315d934ce146102de57806319cae462146102e957806322009af6146102f257806327b50bfa1461030157806345fbbb8c1461031457806347efe9ab146103345780634d376aee1461033d578063559f442e1461035257806357575826146103655780635c975abb14610378578063602512e114610390578063609be203146103a357806362d20fb7146103ad578063646e1c4f146103b557806369685c36146103bd578063715018a6146103f357806376671808146103fb578063799f633514610404575b600080fd5b61026e610615565b005b610279600b5481565b6040519081526020015b60405180910390f35b61029f61029a366004611abe565b610627565b60405161028396959493929190611b2e565b61027960095481565b61026e6102c8366004611be7565b610674565b610279600181565b61027960075481565b6102796301e1338081565b610279600f5481565b610279678ac7230489e8000081565b61027961030f366004611abe565b6106c7565b610327610322366004611c86565b61078a565b6040516102839190611ca1565b61027960105481565b61034561085e565b6040516102839190611ce5565b61026e610360366004611d3c565b61087a565b61026e610373366004611da7565b610a3b565b610380610ae1565b6040519015158152602001610283565b61026e61039e366004611da7565b610af1565b610279620186a081565b61026e610b79565b61026e610c80565b6103e66103cb366004611da7565b6005602052600090815260409020546001600160a01b031681565b6040516102839190611dc0565b61026e610c90565b610279600d5481565b61026e610412366004611da7565b610ca2565b61026e610d2e565b61026e61042d366004611dd4565b610da2565b6103e6610e32565b61026e610448366004611da7565b610e41565b61026e61045b366004611e15565b610ed3565b61027961046e366004611abe565b600260209081526000928352604080842090915290825290205481565b61026e610499366004611ea4565b610eef565b61026e6104ac366004611f0e565b610f49565b6103e66104bf366004611da7565b6004602052600090815260409020546001600160a01b031681565b610279600e5481565b6104f66104f1366004611c86565b610fc9565b6040516102839190611f4a565b6102796364facf5a81565b6103456040518060400160405280600c81526020016b2036b92530b1b5a632bb34b760a11b81525081565b610279610547366004611c86565b60036020526000908152604090205481565b61026e610567366004611ff9565b611193565b61026e61057a366004611d3c565b611298565b61029f61058d366004611da7565b611349565b61029f6105a036600461202d565b61140b565b6103456105b3366004611da7565b6114b4565b610279600c5481565b61026e6105cf3660046120dd565b61154e565b61026e6105e236600461212a565b611565565b61027960085481565b61027960065481565b61026e610607366004611c86565b611578565b610279600a5481565b61061d6115ee565b61062561164d565b565b6001600160a01b0382166000908152600260209081526040808320848452909152812054819081908190819060609061065f90611349565b949d939c50919a509850965090945092505050565b6106bd88600b6000815461068790612175565b91829055506040516106a9908b908b908b908b908b908b908b9060200161218e565b6040516020818303038152906040526116a7565b5050505050505050565b6001600160a01b03821660009081526002602090815260408083208484528252808320548352600190915281208054829190610702906121ec565b80601f016020809104026020016040519081016040528092919081815260200182805461072e906121ec565b801561077b5780601f106107505761010080835404028352916020019161077b565b820191906000526020600020905b81548152906001019060200180831161075e57829003601f168201915b50509251979650505050505050565b6001600160a01b038116600090815260036020526040902054606090806001600160401b038111156107be576107be612017565b6040519080825280602002602001820160405280156107e7578160200160208202803683370190505b50915060005b81811015610857576001600160a01b038416600090815260026020526040812090610819836001612220565b81526020019081526020016000205483828151811061083a5761083a612239565b60209081029190910101528061084f81612175565b9150506107ed565b5050919050565b6040518060600160405280603a8152602001612510603a913981565b8281146108a25760405162461bcd60e51b81526004016108999061224f565b60405180910390fd5b826108bf5760405162461bcd60e51b815260040161089990612282565b60005b81811015610a2c5760006109688686848181106108e1576108e1612239565b90506020020160208101906108f69190611c86565b600b6000815461090590612175565b918290555086868681811061091c5761091c612239565b905060200281019061092e91906122ab565b8080601f01602080910402602001604051908101604052809392919081815260200183838082843760009201919091525061176092505050565b90508015610a195785858381811061098257610982612239565b90506020020160208101906109979190611c86565b6001600160a01b0316600d54600b547fdf1fb391c3157eb3593a71fda03f806f05c81bd9d74426918a759f34fd9117a3428888888181106109da576109da612239565b90506020028101906109ec91906122ab565b6040516109fb939291906122f1565b60405180910390a460108054906000610a1383612175565b91905055505b5080610a2481612175565b9150506108c2565b50610a35610b79565b50505050565b610a436115ee565b600081118015610a545750600f5481105b610aaa5760405162461bcd60e51b815260206004820152602160248201527f58313a20496c6c6567616c20446966666963756c74792041646a7573746d656e6044820152601d60fa1b6064820152608401610899565b6008819055600d546040518291907f2386d27d6c3a89c92557fca46ac41c3a131e71b99e04908acdde2bbb0ab17f9a90600090a350565b600054600160a01b900460ff1690565b610af96115ee565b60008111610b425760405162461bcd60e51b815260206004820152601660248201527558313a20496c6c6567616c20446966666963756c747960501b6044820152606401610899565b600f819055600d546040518291907f2086182ef482268c2e7f9aed67ed5399338ff8b1404f76c15e9da3bd531a77cd90600090a350565b600754600e54610b899042612327565b1115610bfe5742600e55600d8054906000610ba383612175565b9190505550610bb061189b565b6000601055600d54600f54600e546040517f3bb7b347508b7c148ec2094ac60d2e3d8b7595421025643f08b45cb78b326b5892610bf592908252602082015260400190565b60405180910390a25b6301e13380600a5442610c119190612327565b11156106255742600a81905550600260096000828254610c31919061233a565b9091555050600d54600954600a546040517f0b2794749fd5e8c91304ffb0fd7a6fb77ac4f62084947b144680e1c5f39f614d92610c7692908252602082015260400190565b60405180910390a2565b610c886115ee565b610625611983565b610c986115ee565b61062560006119bf565b610caa6115ee565b60008111610cf75760405162461bcd60e51b815260206004820152601a6024820152792c189d1024b63632b3b0b61022b837b1b410223ab930ba34b7b760311b6044820152606401610899565b6007819055600d546040518291907f361d876894ff3854d2e192162a59a0ce8d9e27637af1302a2b8af18e3b007b2490600090a350565b600754600e54610d3e9042612327565b1115610bfe5742600e55600d8054906000610d5883612175565b90915550506000601055600d54600f54600e546040517f3bb7b347508b7c148ec2094ac60d2e3d8b7595421025643f08b45cb78b326b5892610bf592908252602082015260400190565b80610dbf5760405162461bcd60e51b81526004016108999061235c565b8181905060106000828254610dd49190612220565b90915550610de29050610d2e565b600d54600c80544292916000610df783612175565b909155506040518481527f15730d6e02909bf419a13fa2d624ed26fb77b9e8b22f25f92b8f6cebb41fb24a9060200160405180910390a45050565b6000546001600160a01b031690565b610e496115ee565b600081118015610e595750606481105b610e9c5760405162461bcd60e51b815260206004820152601460248201527358313a20496c6c6567616c2056617269616e636560601b6044820152606401610899565b6006819055600d546040518291907f4c117fcbe5db4ee332d07bd8d92745c661603d8acac907ce8ec800ca225789f290600090a350565b610ee633600b6000815461068790612175565b50505050505050565b610f4483600b60008154610f0290612175565b91905081905584848080601f0160208091040260200160405190810160405280939291908181526020018383808284376000920191909152506116a792505050565b505050565b610fc633600b60008154610f5c90612175565b9182905550610f6e602085018561238c565b610f7e60408601602087016123a7565b610f8e606087016040880161238c565b610f9e608088016060890161238c565b6080880135610fb060a08a018a6122ab565b6040516020016106a9979695949392919061218e565b50565b6001600160a01b038116600090815260036020526040902054606090806001600160401b03811115610ffd57610ffd612017565b60405190808252806020026020018201604052801561105f57816020015b6040805160c081018252600080825260208083018290529282018190526060808301829052608083019190915260a0820152825260001990920191018161101b5790505b50915060005b81811015610857576001600160a01b038416600090815260026020526040812081611091846001612220565b81526020019081526020016000205490506110ab81611349565b8988815181106110bd576110bd612239565b60200260200101516000018a89815181106110da576110da612239565b60200260200101516020018b8a815181106110f7576110f7612239565b60200260200101516040018c8b8151811061111457611114612239565b60200260200101516060018d8c8151811061113157611131612239565b60200260200101516080018e8d8151811061114e5761114e612239565b602090810291909101015160a001959095529490935260ff948516909352938316905263ffffffff90931690925291169052508061118b81612175565b915050611065565b60008360ff16116111e65760405162461bcd60e51b815260206004820152601f60248201527f58313a205265636f726420636f756e742063616e6e6f74206265207a65726f006044820152606401610899565b806112035760405162461bcd60e51b81526004016108999061235c565b8260ff16601060008282546112189190612220565b909155506112269050610d2e565b600d54600c8054429291600061123b83612175565b919050557fde994ebfa230df436f856f02bf9cde2b55deca02f024be1726481bfcaeb6d1958686866040516112719291906123c2565b6040805191829003822060ff909316825260208201929092520160405180910390a4505050565b8281146112b75760405162461bcd60e51b81526004016108999061224f565b826112d45760405162461bcd60e51b815260040161089990612282565b60005b818110156113425761132f8585838181106112f4576112f4612239565b90506020020160208101906113099190611c86565b600b6000815461131890612175565b918290555085858581811061091c5761091c612239565b508061133a81612175565b9150506112d7565b5050505050565b600080600080600060606113f7600160008981526020019081526020016000208054611374906121ec565b80601f01602080910402602001604051908101604052809291908181526020018280546113a0906121ec565b80156113ed5780601f106113c2576101008083540402835291602001916113ed565b820191906000526020600020905b8154815290600101906020018083116113d057829003601f168201915b505050505061140b565b949c939b5091995097509550909350915050565b8051600182015160058301516006840151600785015160278087015194959394929391929160609161143d9082612327565b6001600160401b0381111561145457611454612017565b6040519080825280601f01601f19166020018201604052801561147e576020820181803683370190505b509150602082016027820360005b818110156114a757806028018b01518184015360010161148c565b5050505091939550919395565b600160205260009081526040902080546114cd906121ec565b80601f01602080910402602001604051908101604052809291908181526020018280546114f9906121ec565b80156115465780601f1061151b57610100808354040283529160200191611546565b820191906000526020600020905b81548152906001019060200180831161152957829003601f168201915b505050505081565b61156182600b60008154610f5c90612175565b5050565b61156133600b60008154610f0290612175565b6115806115ee565b6001600160a01b0381166115e55760405162461bcd60e51b815260206004820152602660248201527f4f776e61626c653a206e6577206f776e657220697320746865207a65726f206160448201526564647265737360d01b6064820152608401610899565b610fc6816119bf565b336115f7610e32565b6001600160a01b0316146106255760405162461bcd60e51b815260206004820181905260248201527f4f776e61626c653a2063616c6c6572206973206e6f7420746865206f776e65726044820152606401610899565b611655611a0f565b6000805460ff60a01b1916600160a01b1790557f62e78cea01bee320cd4e420270b5ea74000d11b0c9f74754ebdbfc544b05a2586116903390565b60405161169d9190611dc0565b60405180910390a1565b6116b2838383611760565b6116fc5760405162461bcd60e51b815260206004820152601b60248201527a58313a204475706c696361746520486173684964206f72204b657960281b6044820152606401610899565b826001600160a01b0316600d54837fdf1fb391c3157eb3593a71fda03f806f05c81bd9d74426918a759f34fd9117a3428560405161173b9291906123d2565b60405180910390a46010805490600061175383612175565b9190505550610f44610b79565b6000828152600460205260408120546001600160a01b03161561178557506000611894565b60006117908361140b565b506000818152600560205260409020549095506001600160a01b03161593506117c192505050576000915050611894565b600084815260016020526040812080546117da906121ec565b905011156117ec576000915050611894565b60008481526001602052604090206118048482612439565b506001600160a01b038516600090815260026020908152604080832060039092528220805487939190829061183890612175565b9182905550815260208082019290925260409081016000908120939093558683526004825280832080546001600160a01b038a166001600160a01b03199182168117909255948452600590925290912080549092161790555060015b9392505050565b600060016007546118ac919061233a565b90506000606460065460646118c19190612327565b6118cb90846124f8565b6118d5919061233a565b90506000606460065460646118ea9190612220565b6118f490856124f8565b6118fe919061233a565b9050816010541080156119155750600854600f5410155b80156119265750611924610ae1565b155b1561194a57600854600f600082825461193f9190612327565b90915550610f449050565b80601054118015611960575061195e610ae1565b155b15610f4457600854600f60008282546119799190612220565b9091555050505050565b61198b611a57565b6000805460ff60a01b191690557f5db9ee0a495bf2e6ff9c91a7834c1ba4fdd244a5e8aa4e537bd38aeae4b073aa33611690565b600080546001600160a01b038381166001600160a01b0319831681178455604051919092169283917f8be0079c531659141344cd1fd0a4f28419497f9722a3daafe3b4186f6b6457e09190a35050565b611a17610ae1565b156106255760405162461bcd60e51b815260206004820152601060248201526f14185d5cd8589b194e881c185d5cd95960821b6044820152606401610899565b611a5f610ae1565b6106255760405162461bcd60e51b815260206004820152601460248201527314185d5cd8589b194e881b9bdd081c185d5cd95960621b6044820152606401610899565b80356001600160a01b0381168114611ab957600080fd5b919050565b60008060408385031215611ad157600080fd5b611ada83611aa2565b946020939093013593505050565b6000815180845260005b81811015611b0e57602081850181015186830182015201611af2565b506000602082860101526020601f19601f83011685010191505092915050565b60ff8716815263ffffffff8616602082015260ff8516604082015260ff8416606082015282608082015260c060a08201526000611b6e60c0830184611ae8565b98975050505050505050565b803560ff81168114611ab957600080fd5b803563ffffffff81168114611ab957600080fd5b60008083601f840112611bb157600080fd5b5081356001600160401b03811115611bc857600080fd5b602083019150836020828501011115611be057600080fd5b9250929050565b60008060008060008060008060e0898b031215611c0357600080fd5b611c0c89611aa2565b9750611c1a60208a01611b7a565b9650611c2860408a01611b8b565b9550611c3660608a01611b7a565b9450611c4460808a01611b7a565b935060a0890135925060c08901356001600160401b03811115611c6657600080fd5b611c728b828c01611b9f565b999c989b5096995094979396929594505050565b600060208284031215611c9857600080fd5b61189482611aa2565b6020808252825182820181905260009190848201906040850190845b81811015611cd957835183529284019291840191600101611cbd565b50909695505050505050565b6020815260006118946020830184611ae8565b60008083601f840112611d0a57600080fd5b5081356001600160401b03811115611d2157600080fd5b6020830191508360208260051b8501011115611be057600080fd5b60008060008060408587031215611d5257600080fd5b84356001600160401b0380821115611d6957600080fd5b611d7588838901611cf8565b90965094506020870135915080821115611d8e57600080fd5b50611d9b87828801611cf8565b95989497509550505050565b600060208284031215611db957600080fd5b5035919050565b6001600160a01b0391909116815260200190565b60008060208385031215611de757600080fd5b82356001600160401b03811115611dfd57600080fd5b611e0985828601611cf8565b90969095509350505050565b600080600080600080600060c0888a031215611e3057600080fd5b611e3988611b7a565b9650611e4760208901611b8b565b9550611e5560408901611b7a565b9450611e6360608901611b7a565b93506080880135925060a08801356001600160401b03811115611e8557600080fd5b611e918a828b01611b9f565b989b979a50959850939692959293505050565b600080600060408486031215611eb957600080fd5b611ec284611aa2565b925060208401356001600160401b03811115611edd57600080fd5b611ee986828701611b9f565b9497909650939450505050565b600060c08284031215611f0857600080fd5b50919050565b600060208284031215611f2057600080fd5b81356001600160401b03811115611f3657600080fd5b611f4284828501611ef6565b949350505050565b60006020808301818452808551808352604092508286019150828160051b87010184880160005b83811015611feb57888303603f190185528151805160ff90811685528882015163ffffffff168986015287820151811688860152606080830151909116908501526080808201519085015260a09081015160c091850182905290611fd781860183611ae8565b968901969450505090860190600101611f71565b509098975050505050505050565b60008060006040848603121561200e57600080fd5b611ec284611b7a565b634e487b7160e01b600052604160045260246000fd5b60006020828403121561203f57600080fd5b81356001600160401b038082111561205657600080fd5b818401915084601f83011261206a57600080fd5b81358181111561207c5761207c612017565b604051601f8201601f19908116603f011681019083821181831017156120a4576120a4612017565b816040528281528760208487010111156120bd57600080fd5b826020860160208301376000928101602001929092525095945050505050565b600080604083850312156120f057600080fd5b6120f983611aa2565b915060208301356001600160401b0381111561211457600080fd5b61212085828601611ef6565b9150509250929050565b6000806020838503121561213d57600080fd5b82356001600160401b0381111561215357600080fd5b611e0985828601611b9f565b634e487b7160e01b600052601160045260246000fd5b6000600182016121875761218761215f565b5060010190565b6001600160f81b031960f889811b821683526001600160e01b031960e08a901b16600184015287811b8216600584015286901b1660068201526007810184905260008284602784013750600091016027019081529695505050505050565b600181811c9082168061220057607f821691505b602082108103611f0857634e487b7160e01b600052602260045260246000fd5b808201808211156122335761223361215f565b92915050565b634e487b7160e01b600052603260045260246000fd5b6020808252601990820152780b062744082e4e4c2f24098cadccee8d0409ad2e6dac2e8c6d603b1b604082015260600190565b6020808252600f908201526e58313a20456d70747920417272617960881b604082015260600190565b6000808335601e198436030181126122c257600080fd5b8301803591506001600160401b038211156122dc57600080fd5b602001915036819003821315611be057600080fd5b83815260406020820152816040820152818360608301376000818301606090810191909152601f909201601f1916010192915050565b818103818111156122335761223361215f565b60008261235757634e487b7160e01b600052601260045260246000fd5b500490565b60208082526016908201527558313a205265636f726420627974657320656d70747960501b604082015260600190565b60006020828403121561239e57600080fd5b61189482611b7a565b6000602082840312156123b957600080fd5b61189482611b8b565b8183823760009101908152919050565b828152604060208201526000611f426040830184611ae8565b601f821115610f4457600081815260208120601f850160051c810160208610156124125750805b601f850160051c820191505b818110156124315782815560010161241e565b505050505050565b81516001600160401b0381111561245257612452612017565b6124668161246084546121ec565b846123eb565b602080601f83116001811461249b57600084156124835750858301515b600019600386901b1c1916600185901b178555612431565b600085815260208120601f198616915b828110156124ca578886015182559484019460019091019084016124ab565b50858210156124e85787850151600019600388901b60f8161c191681555b5050505050600190811b01905550565b80820281158282048414176122335761223361215f56fe68747470733a2f2f747769747465722e636f6d2f6d724a61636b4c6576696e2f7374617475732f31373030303530383435353632353135353137a2646970667358221220219f52b3e74ca59f91b9d43fe0a87f404365434f40c53eb632512d73b38a871764736f6c63430008140033",
  "immutableReferences": {},
  "source": "// SPDX-License-Identifier: MIT\npragma solidity ^0.8.20;\npragma abicoder v2;  // Enable ABI coder v2\n\nimport \"@openzeppelin/contracts/access/Ownable.sol\";\nimport \"@openzeppelin/contracts/security/Pausable.sol\";\n\ncontract BlockStorage is Ownable, Pausable {\n    struct HashRecord {\n        uint8 c;\n        uint32 m;\n        uint8 t;\n        uint8 v;\n        bytes32 k;\n        bytes s;\n    }\n\n    uint256 public constant BASE_REWARD = 10 ether;\n    uint256 public constant BASE_REWARD_INTERVAL_S = 365 * 24 * 60 * 60;\n    uint256 public constant TARGET_BLOCK_TIME_S = 1;\n    uint256 public constant DEFAULT_DIFFICULTY = 100_000;\n    uint256 public constant GENESIS_TS = 1694158682; // 2023-09-08T07:38:01.656Z\n    string public constant GENESIS_TWEET = 'https://twitter.com/mrJackLevin/status/1700050845562515517';\n    string public constant AUTHORS = '@mrJackLevin';\n\n    // hash ID => hash record\n    mapping(uint256 => bytes) public hashRecords;\n    // address => idx => hash ID\n    mapping(address => mapping(uint256 => uint256)) public hashIdsByAddress;\n    // address => record counter\n    mapping(address => uint256) public recordCount;\n    // hash ID => account address\n    mapping(uint256 => address) public addressesByHashId;\n    // key => account address\n    mapping(bytes32 => address) public addressesByKey;\n\n    // params settable by the authority\n    uint256 public variance = 20;\n    uint256 public epochDurationSec = 600;\n    uint256 public difficultyAdjustment = 2_000;\n\n    uint256 public currentReward = BASE_REWARD;     // halves every 365 days\n    uint256 public currentRewardTs = GENESIS_TS;    // is set every 365 days\n    uint256 public currentHashId = 1;               // increments with each new Hash\n    uint256 public currentLogId = 1;                // increments with each new HashLog\n    uint256 public currentEpoch;                    // increments every epoch\n    uint256 public currentEpochTs;                  // is set every epoch\n    uint256 public difficulty;                      // is adjusted every epoch\n    uint256 public epochHashCounter;                // resets every epoch\n\n    constructor(uint256 _currentEpoch, uint256 _difficulty) {\n        currentEpoch = _currentEpoch > 0 ? _currentEpoch : 1;\n        difficulty = _difficulty > 0 ? _difficulty : DEFAULT_DIFFICULTY;\n    }\n\n    event NewHashLogShort(uint256 indexed logId, uint256 indexed epoch, uint256 indexed ts, uint256 count);\n    event NewHashLog(uint256 indexed logId, uint256 indexed epoch, uint256 indexed ts, uint256 count, bytes32 hash);\n    event NewHash(uint256 indexed hashId, uint256 indexed epoch, address indexed account, uint256 ts, bytes _bytes);\n    event NewEpoch(uint256 indexed epoch, uint256 difficulty, uint256 ts);\n\n    event BaseRewardSet(uint256 indexed epoch, uint256 reward, uint256 ts);\n\n    event VarianceSet(uint256 indexed epoch, uint256 indexed variance);\n    event EpochDurationSet(uint256 indexed epoch, uint256 indexed duration);\n    event DifficultySet(uint256 indexed epoch, uint256 indexed difficulty);\n    event DifficultyAdjustmentSet(uint256 indexed epoch, uint256 indexed adjustment);\n\n    function setVariance(uint256 _variance) external onlyOwner {\n        require(_variance > 0 && _variance < 100, 'X1: Illegal Variance');\n        variance = _variance;\n        emit VarianceSet(currentEpoch, _variance);\n    }\n\n    function setEpochDurationSec(uint256 _epochDurationSec) external onlyOwner {\n        require(_epochDurationSec > 0, 'X1: Illegal Epoch Duration');\n        epochDurationSec = _epochDurationSec;\n        emit EpochDurationSet(currentEpoch, _epochDurationSec);\n    }\n\n    function setDifficulty(uint256 _difficulty) external onlyOwner {\n        require(_difficulty > 0, 'X1: Illegal Difficulty');\n        difficulty = _difficulty;\n        emit DifficultySet(currentEpoch, _difficulty);\n    }\n\n    function setDifficultyAdjustment(uint256 _difficultyAdjustment) external onlyOwner {\n        require(_difficultyAdjustment > 0 && _difficultyAdjustment < difficulty, 'X1: Illegal Difficulty Adjustment');\n        difficultyAdjustment = _difficultyAdjustment;\n        emit DifficultyAdjustmentSet(currentEpoch, _difficultyAdjustment);\n    }\n\n    function lockDifficulty() external onlyOwner {\n        _pause();\n    }\n\n    function unlockDifficulty() external onlyOwner {\n        _unpause();\n    }\n\n    /*\n        @dev Internal utility for adjusting difficulty\n    */\n    function _adjustDifficulty() internal {\n        uint256 targetHashCount = epochDurationSec / TARGET_BLOCK_TIME_S;\n        uint256 lowerBound = targetHashCount * (100 - variance) / 100;\n        uint256 upperBound = targetHashCount * (100 + variance) / 100;\n        if (epochHashCounter < lowerBound && difficulty >= difficultyAdjustment && !paused()) {\n            difficulty -= difficultyAdjustment;\n        } else if (epochHashCounter > upperBound && !paused()) {\n            difficulty += difficultyAdjustment;\n        }\n    }\n\n    /*\n        @dev Public utility for good housekeeping\n    */\n    function doFullHousekeeping() public {\n        if (block.timestamp - currentEpochTs > epochDurationSec) {\n            currentEpochTs = block.timestamp;\n            currentEpoch++;\n            _adjustDifficulty();\n            epochHashCounter = 0;\n            emit NewEpoch(currentEpoch, difficulty, currentEpochTs);\n        }\n        if (block.timestamp - currentRewardTs > BASE_REWARD_INTERVAL_S) {\n            currentRewardTs = block.timestamp;\n            currentReward /= 2;\n            emit BaseRewardSet(currentEpoch, currentReward, currentRewardTs);\n        }\n    }\n\n    /*\n        @dev Public utility for good housekeeping\n    */\n    function doHousekeeping() public {\n        if (block.timestamp - currentEpochTs > epochDurationSec) {\n            currentEpochTs = block.timestamp;\n            currentEpoch++;\n            epochHashCounter = 0;\n            emit NewEpoch(currentEpoch, difficulty, currentEpochTs);\n        }\n        if (block.timestamp - currentRewardTs > BASE_REWARD_INTERVAL_S) {\n            currentRewardTs = block.timestamp;\n            currentReward /= 2;\n            emit BaseRewardSet(currentEpoch, currentReward, currentRewardTs);\n        }\n    }\n\n    /*\n        Internal\n        @dev baseline method for storing records\n    */\n    function _storeRecord(address _address, uint256 _hashId, bytes memory _bytes) internal returns (bool) {\n        if (addressesByHashId[_hashId] != address(0)) return false;\n        ( , , , , bytes32 k, ) = decodeRecordBytes(_bytes);\n        if (addressesByKey[k] != address(0)) return false;\n        if (hashRecords[_hashId].length > 0) return false;\n\n        hashRecords[_hashId] = _bytes;\n        hashIdsByAddress[_address][++recordCount[_address]] = _hashId;\n        addressesByHashId[_hashId] = _address;\n        addressesByKey[k] = _address;\n        return true;\n    }\n\n    /*\n        Internal\n        @dev baseline method for storing _new_ records\n    */\n    function _storeNewRecord(address _address, uint256 _hashId, bytes memory _bytes) internal {\n        require(_storeRecord(_address, _hashId, _bytes), 'X1: Duplicate HashId or Key');\n        emit NewHash(_hashId, currentEpoch, _address, block.timestamp, _bytes);\n        epochHashCounter++;\n        // this is done as the last step to avoid using new epoch values\n        doFullHousekeeping();   // check / start new epoch if required\n    }\n\n    /*\n        Public interface\n        @dev Store a new record encoded as HashRecord struct\n        @deprecated production code should use storeNewRecord(HashRecord calldata r)\n    */\n    function storeNewRecord(address _address, HashRecord calldata r) external {\n        _storeNewRecord(_address, ++currentHashId, abi.encodePacked(r.c, r.m, r.t, r.v, r.k, r.s));\n    }\n\n    /*\n        Public interface\n        @dev Store a new record encoded as HashRecord struct\n    */\n    function storeNewRecord(HashRecord calldata r) external {\n        _storeNewRecord(_msgSender(), ++currentHashId, abi.encodePacked(r.c, r.m, r.t, r.v, r.k, r.s));\n    }\n\n    /*\n        Public interface\n        @dev Store a new record encoded as separate parameters\n        @deprecated production code should use\n        storeNewRecordData(uint8 c, uint32 m, uint8 t, uint8 v, bytes32 k, bytes calldata s)\n    */\n    function storeNewRecordData(address _address, uint8 c, uint32 m, uint8 t, uint8 v, bytes32 k, bytes calldata s) external {\n        _storeNewRecord(_address, ++currentHashId, abi.encodePacked(c, m, t, v, k, s));\n    }\n\n    /*\n        Public interface\n        @dev Store a new record encoded as separate parameters\n    */\n    function storeNewRecordData(uint8 c, uint32 m, uint8 t, uint8 v, bytes32 k, bytes calldata s) external {\n        _storeNewRecord(_msgSender(), ++currentHashId, abi.encodePacked(c, m, t, v, k, s));\n    }\n\n    /*\n        Public interface\n        @dev Store a new record encoded as bytes\n        @deprecated production code should use storeNewRecordBytes(bytes calldata _bytes)\n    */\n    function storeNewRecordBytes(address _address, bytes calldata _bytes) external {\n        _storeNewRecord(_address, ++currentHashId, _bytes);\n    }\n\n    /*\n        Public interface\n        @dev Store a new record encoded as bytes\n    */\n    function storeNewRecordBytes(bytes calldata _bytes) external {\n        _storeNewRecord(_msgSender(), ++currentHashId, _bytes);\n    }\n\n    /*\n        Public interface\n        TODO: do we need bulk upload for new records?\n        @dev Store a set of new records encoded as bytes\n        @deprecated use individual storeNewRecord/storeNewRecordBytes/storeNewRecordData calls\n    */\n    function bulkStoreNewRecordsInc(address[] calldata addresses, bytes[] calldata bb) external {\n        require(addresses.length == bb.length, 'X1: Array Length Mismatch');\n        require(addresses.length > 0, 'X1: Empty Array');\n        for (uint i = 0; i < bb.length; i++) {\n            bool ok = _storeRecord(addresses[i], ++currentHashId, bb[i]);\n            if (ok) {\n                emit NewHash(currentHashId, currentEpoch, addresses[i], block.timestamp, bb[i]);\n                epochHashCounter++;\n            }\n        }\n        doFullHousekeeping();   // check / start new epoch if required\n    }\n\n    /*\n        Admin interface\n        @dev Store a set of records encoded as bytes. Used for backfilling.\n        @deprecated will be used with _onlyOwner modifier\n    */\n    function bulkStoreRecordBytes(address[] calldata addresses, bytes[] calldata bb) external {\n        require(addresses.length == bb.length, 'X1: Array Length Mismatch');\n        require(addresses.length > 0, 'X1: Empty Array');\n        for (uint i = 0; i < bb.length; i++) {\n            _storeRecord(addresses[i], ++currentHashId, bb[i]);\n        }\n    }\n\n    function logStoreRecordBytes(bytes[] calldata bb) external {\n        require(bb.length > 0, 'X1: Record bytes empty');\n        epochHashCounter += bb.length;\n        doHousekeeping();\n        emit NewHashLogShort(currentLogId++, currentEpoch, block.timestamp, bb.length);\n    }\n\n    function logStoreRecords(uint8 count, bytes calldata blob) external {\n        require(count > 0, 'X1: Record count cannot be zero');\n        require(blob.length > 0, 'X1: Record bytes empty');\n        epochHashCounter += count;\n        doHousekeeping();\n        emit NewHashLog(currentLogId++, currentEpoch, block.timestamp, count, keccak256(blob));\n    }\n\n    /*\n        @deprecated Do not use in production\n    */\n    function getBytesLen(address _address, uint256 _index) external view returns (uint len) {\n        bytes memory _data = hashRecords[hashIdsByAddress[_address][_index]];\n        assembly {\n            len := mload(_data)\n        }\n    }\n\n    /*\n        Public interface\n        @dev decode a record stored as bytes into discrete params\n    */\n    function decodeRecordBytes(bytes memory _data)\n        public\n        pure\n        returns (uint8 c, uint32 m, uint8 t, uint8 v, bytes32 k, bytes memory s)\n    {\n        uint len;\n        assembly {\n            len := mload(_data)\n            c := mload(add(_data, 1))\n            m := mload(add(_data, 5))\n            t := mload(add(_data, 6))\n            v := mload(add(_data, 7))\n            k := mload(add(_data, 39))\n        }\n        s = new bytes(len - 39);\n        assembly {\n            // Skip the first 32 bytes reserved for the length of the memory array\n            let offset := add(s, 0x20)\n            let count := sub(len, 39)\n            for { let i := 0} lt(i, count) { i := add(i, 1) } {\n                mstore8(add(offset, i), mload(add(_data, add(40, i))))\n            }\n        }\n    }\n\n    /*\n        Public interface\n        @dev decode a record referenced by a HashId into discrete params\n    */\n    function decodeRecordBytes(uint256 _hashId)\n        public\n        view\n        returns (uint8 c, uint32 m, uint8 t, uint8 v, bytes32 k, bytes memory s)\n    {\n        return decodeRecordBytes(hashRecords[_hashId]);\n    }\n\n    /*\n        Public interface\n        @dev decode a record referenced by an address and index into discrete params\n    */\n    function decodeRecordBytes(address _address, uint256 _idx)\n        public\n        view\n        returns (uint8 c, uint32 m, uint8 t, uint8 v, bytes32 k, bytes memory s)\n    {\n        return decodeRecordBytes(hashIdsByAddress[_address][_idx]);\n    }\n\n    /*\n        Public interface\n        @dev helper to get all HashIds for an address\n    */\n    function getHashIdsByAddress(address _address) public view returns (uint256[] memory ids) {\n        uint256 count = recordCount[_address];\n        ids = new uint256[](count);\n        for (uint i = 0; i < count; i++) {\n            ids[i] = hashIdsByAddress[_address][i+1];\n        }\n    }\n\n    /*\n        Public interface\n        @dev helper to get all HashRecords for an address\n    */\n    function getRecordsByAddress(address _address) public view returns (HashRecord[] memory recs) {\n        uint256 count = recordCount[_address];\n        recs = new HashRecord[](count);\n        for (uint i = 0; i < count; i++) {\n            uint256 hashId = hashIdsByAddress[_address][i+1];\n            (recs[i].c, recs[i].m, recs[i].t, recs[i].v, recs[i].k, recs[i].s) = decodeRecordBytes(hashId);\n        }\n    }\n}\n",
  "sourcePath": "/Users/lbelyaev/dev/x1-block-storage/contracts/BlockStorage.sol",
  "compiler": {
    "name": "solc",
    "version": "0.8.20+commit.a1b79de6.Emscripten.clang"
  },
  "schemaVersion": "3.4.16",
  "updatedAt": "2024-01-16T23:10:51.350Z",
  "devdoc": {
    "events": {
      "Paused(address)": {
        "details": "Emitted when the pause is triggered by `account`."
      },
      "Unpaused(address)": {
        "details": "Emitted when the pause is lifted by `account`."
      }
    },
    "kind": "dev",
    "methods": {
      "owner()": {
        "details": "Returns the address of the current owner."
      },
      "paused()": {
        "details": "Returns true if the contract is paused, and false otherwise."
      },
      "renounceOwnership()": {
        "details": "Leaves the contract without owner. It will not be possible to call `onlyOwner` functions. Can only be called by the current owner. NOTE: Renouncing ownership will leave the contract without an owner, thereby disabling any functionality that is only available to the owner."
      },
      "transferOwnership(address)": {
        "details": "Transfers ownership of the contract to a new account (`newOwner`). Can only be called by the current owner."
      }
    },
    "version": 1
  },
  "userdoc": {
    "kind": "user",
    "methods": {},
    "version": 1
  }
}