{
  "contractName": "BlockStorage",
  "abi": [
    {
      "inputs": [
        {
          "internalType": "uint256",
          "name": "_currentEpoch",
          "type": "uint256"
        },
        {
          "internalType": "uint256",
          "name": "_difficulty",
          "type": "uint256"
        }
      ],
      "stateMutability": "nonpayable",
      "type": "constructor"
    },
    {
      "anonymous": false,
      "inputs": [
        {
          "indexed": true,
          "internalType": "uint256",
          "name": "epoch",
          "type": "uint256"
        },
        {
          "indexed": true,
          "internalType": "uint256",
          "name": "duration",
          "type": "uint256"
        }
      ],
      "name": "EpochDurationSet",
      "type": "event"
    },
    {
      "anonymous": false,
      "inputs": [
        {
          "indexed": true,
          "internalType": "uint256",
          "name": "epoch",
          "type": "uint256"
        },
        {
          "indexed": false,
          "internalType": "uint256",
          "name": "difficulty",
          "type": "uint256"
        },
        {
          "indexed": false,
          "internalType": "uint256",
          "name": "ts",
          "type": "uint256"
        }
      ],
      "name": "NewEpoch",
      "type": "event"
    },
    {
      "anonymous": false,
      "inputs": [
        {
          "indexed": true,
          "internalType": "uint256",
          "name": "hashId",
          "type": "uint256"
        },
        {
          "indexed": true,
          "internalType": "uint256",
          "name": "epoch",
          "type": "uint256"
        },
        {
          "indexed": true,
          "internalType": "address",
          "name": "account",
          "type": "address"
        },
        {
          "indexed": false,
          "internalType": "bytes",
          "name": "_bytes",
          "type": "bytes"
        }
      ],
      "name": "NewHash",
      "type": "event"
    },
    {
      "anonymous": false,
      "inputs": [
        {
          "indexed": true,
          "internalType": "address",
          "name": "previousOwner",
          "type": "address"
        },
        {
          "indexed": true,
          "internalType": "address",
          "name": "newOwner",
          "type": "address"
        }
      ],
      "name": "OwnershipTransferred",
      "type": "event"
    },
    {
      "anonymous": false,
      "inputs": [
        {
          "indexed": true,
          "internalType": "uint256",
          "name": "epoch",
          "type": "uint256"
        },
        {
          "indexed": true,
          "internalType": "uint256",
          "name": "difficulty",
          "type": "uint256"
        }
      ],
      "name": "TargetDifficultySet",
      "type": "event"
    },
    {
      "inputs": [],
      "name": "TARGET_BLOCK_TIME_S",
      "outputs": [
        {
          "internalType": "uint256",
          "name": "",
          "type": "uint256"
        }
      ],
      "stateMutability": "view",
      "type": "function",
      "constant": true
    },
    {
      "inputs": [
        {
          "internalType": "uint256",
          "name": "",
          "type": "uint256"
        }
      ],
      "name": "addressesByHashId",
      "outputs": [
        {
          "internalType": "address",
          "name": "",
          "type": "address"
        }
      ],
      "stateMutability": "view",
      "type": "function",
      "constant": true
    },
    {
      "inputs": [],
      "name": "currentEpoch",
      "outputs": [
        {
          "internalType": "uint256",
          "name": "",
          "type": "uint256"
        }
      ],
      "stateMutability": "view",
      "type": "function",
      "constant": true
    },
    {
      "inputs": [],
      "name": "currentEpochTs",
      "outputs": [
        {
          "internalType": "uint256",
          "name": "",
          "type": "uint256"
        }
      ],
      "stateMutability": "view",
      "type": "function",
      "constant": true
    },
    {
      "inputs": [],
      "name": "currentHashId",
      "outputs": [
        {
          "internalType": "uint256",
          "name": "",
          "type": "uint256"
        }
      ],
      "stateMutability": "view",
      "type": "function",
      "constant": true
    },
    {
      "inputs": [],
      "name": "difficulty",
      "outputs": [
        {
          "internalType": "uint256",
          "name": "",
          "type": "uint256"
        }
      ],
      "stateMutability": "view",
      "type": "function",
      "constant": true
    },
    {
      "inputs": [],
      "name": "epochDurationSec",
      "outputs": [
        {
          "internalType": "uint256",
          "name": "",
          "type": "uint256"
        }
      ],
      "stateMutability": "view",
      "type": "function",
      "constant": true
    },
    {
      "inputs": [],
      "name": "epochHashCounter",
      "outputs": [
        {
          "internalType": "uint256",
          "name": "",
          "type": "uint256"
        }
      ],
      "stateMutability": "view",
      "type": "function",
      "constant": true
    },
    {
      "inputs": [
        {
          "internalType": "address",
          "name": "",
          "type": "address"
        },
        {
          "internalType": "uint256",
          "name": "",
          "type": "uint256"
        }
      ],
      "name": "hashIdsByAddress",
      "outputs": [
        {
          "internalType": "uint256",
          "name": "",
          "type": "uint256"
        }
      ],
      "stateMutability": "view",
      "type": "function",
      "constant": true
    },
    {
      "inputs": [
        {
          "internalType": "uint256",
          "name": "",
          "type": "uint256"
        }
      ],
      "name": "hashRecords",
      "outputs": [
        {
          "internalType": "bytes",
          "name": "",
          "type": "bytes"
        }
      ],
      "stateMutability": "view",
      "type": "function",
      "constant": true
    },
    {
      "inputs": [],
      "name": "owner",
      "outputs": [
        {
          "internalType": "address",
          "name": "",
          "type": "address"
        }
      ],
      "stateMutability": "view",
      "type": "function",
      "constant": true
    },
    {
      "inputs": [
        {
          "internalType": "address",
          "name": "",
          "type": "address"
        }
      ],
      "name": "recordCount",
      "outputs": [
        {
          "internalType": "uint256",
          "name": "",
          "type": "uint256"
        }
      ],
      "stateMutability": "view",
      "type": "function",
      "constant": true
    },
    {
      "inputs": [],
      "name": "renounceOwnership",
      "outputs": [],
      "stateMutability": "nonpayable",
      "type": "function"
    },
    {
      "inputs": [],
      "name": "targetDifficulty",
      "outputs": [
        {
          "internalType": "uint256",
          "name": "",
          "type": "uint256"
        }
      ],
      "stateMutability": "view",
      "type": "function",
      "constant": true
    },
    {
      "inputs": [
        {
          "internalType": "address",
          "name": "newOwner",
          "type": "address"
        }
      ],
      "name": "transferOwnership",
      "outputs": [],
      "stateMutability": "nonpayable",
      "type": "function"
    },
    {
      "inputs": [
        {
          "internalType": "uint256",
          "name": "_epochDurationSec",
          "type": "uint256"
        }
      ],
      "name": "setEpochDurationSec",
      "outputs": [],
      "stateMutability": "nonpayable",
      "type": "function"
    },
    {
      "inputs": [
        {
          "internalType": "uint256",
          "name": "_targetDifficulty",
          "type": "uint256"
        }
      ],
      "name": "setTargetDifficulty",
      "outputs": [],
      "stateMutability": "nonpayable",
      "type": "function"
    },
    {
      "inputs": [],
      "name": "doHousekeeping",
      "outputs": [],
      "stateMutability": "nonpayable",
      "type": "function"
    },
    {
      "inputs": [
        {
          "internalType": "address",
          "name": "_address",
          "type": "address"
        },
        {
          "components": [
            {
              "internalType": "uint8",
              "name": "c",
              "type": "uint8"
            },
            {
              "internalType": "uint32",
              "name": "m",
              "type": "uint32"
            },
            {
              "internalType": "uint8",
              "name": "t",
              "type": "uint8"
            },
            {
              "internalType": "uint8",
              "name": "v",
              "type": "uint8"
            },
            {
              "internalType": "bytes",
              "name": "k",
              "type": "bytes"
            },
            {
              "internalType": "bytes32",
              "name": "s",
              "type": "bytes32"
            }
          ],
          "internalType": "struct BlockStorage.HashRecord",
          "name": "r",
          "type": "tuple"
        }
      ],
      "name": "storeNewRecord",
      "outputs": [],
      "stateMutability": "nonpayable",
      "type": "function"
    },
    {
      "inputs": [
        {
          "internalType": "address",
          "name": "_address",
          "type": "address"
        },
        {
          "internalType": "uint8",
          "name": "c",
          "type": "uint8"
        },
        {
          "internalType": "uint32",
          "name": "m",
          "type": "uint32"
        },
        {
          "internalType": "uint8",
          "name": "t",
          "type": "uint8"
        },
        {
          "internalType": "uint8",
          "name": "v",
          "type": "uint8"
        },
        {
          "internalType": "bytes32",
          "name": "k",
          "type": "bytes32"
        },
        {
          "internalType": "bytes",
          "name": "s",
          "type": "bytes"
        }
      ],
      "name": "storeNewRecordData",
      "outputs": [],
      "stateMutability": "nonpayable",
      "type": "function"
    },
    {
      "inputs": [
        {
          "internalType": "address",
          "name": "_address",
          "type": "address"
        },
        {
          "internalType": "bytes",
          "name": "_bytes",
          "type": "bytes"
        }
      ],
      "name": "storeNewRecordBytes",
      "outputs": [],
      "stateMutability": "nonpayable",
      "type": "function"
    },
    {
      "inputs": [
        {
          "internalType": "address",
          "name": "_address",
          "type": "address"
        },
        {
          "components": [
            {
              "internalType": "uint8",
              "name": "c",
              "type": "uint8"
            },
            {
              "internalType": "uint32",
              "name": "m",
              "type": "uint32"
            },
            {
              "internalType": "uint8",
              "name": "t",
              "type": "uint8"
            },
            {
              "internalType": "uint8",
              "name": "v",
              "type": "uint8"
            },
            {
              "internalType": "bytes",
              "name": "k",
              "type": "bytes"
            },
            {
              "internalType": "bytes32",
              "name": "s",
              "type": "bytes32"
            }
          ],
          "internalType": "struct BlockStorage.HashRecord[]",
          "name": "hh",
          "type": "tuple[]"
        }
      ],
      "name": "bulkStoreRecordsInc",
      "outputs": [],
      "stateMutability": "nonpayable",
      "type": "function"
    },
    {
      "inputs": [
        {
          "internalType": "address",
          "name": "_address",
          "type": "address"
        },
        {
          "internalType": "bytes[]",
          "name": "bb",
          "type": "bytes[]"
        }
      ],
      "name": "bulkStoreRecordBytesInc",
      "outputs": [],
      "stateMutability": "nonpayable",
      "type": "function"
    },
    {
      "inputs": [
        {
          "internalType": "address",
          "name": "_address",
          "type": "address"
        },
        {
          "internalType": "uint256[]",
          "name": "_hasIds",
          "type": "uint256[]"
        },
        {
          "components": [
            {
              "internalType": "uint8",
              "name": "c",
              "type": "uint8"
            },
            {
              "internalType": "uint32",
              "name": "m",
              "type": "uint32"
            },
            {
              "internalType": "uint8",
              "name": "t",
              "type": "uint8"
            },
            {
              "internalType": "uint8",
              "name": "v",
              "type": "uint8"
            },
            {
              "internalType": "bytes",
              "name": "k",
              "type": "bytes"
            },
            {
              "internalType": "bytes32",
              "name": "s",
              "type": "bytes32"
            }
          ],
          "internalType": "struct BlockStorage.HashRecord[]",
          "name": "hh",
          "type": "tuple[]"
        }
      ],
      "name": "bulkStoreRecords",
      "outputs": [],
      "stateMutability": "nonpayable",
      "type": "function"
    },
    {
      "inputs": [
        {
          "internalType": "address",
          "name": "_address",
          "type": "address"
        },
        {
          "internalType": "uint256[]",
          "name": "_hasIds",
          "type": "uint256[]"
        },
        {
          "internalType": "bytes[]",
          "name": "bb",
          "type": "bytes[]"
        }
      ],
      "name": "bulkStoreRecordBytes",
      "outputs": [],
      "stateMutability": "nonpayable",
      "type": "function"
    },
    {
      "inputs": [
        {
          "internalType": "address",
          "name": "_address",
          "type": "address"
        },
        {
          "internalType": "uint256",
          "name": "_index",
          "type": "uint256"
        }
      ],
      "name": "getBytesLen",
      "outputs": [
        {
          "internalType": "uint256",
          "name": "len",
          "type": "uint256"
        }
      ],
      "stateMutability": "view",
      "type": "function",
      "constant": true
    },
    {
      "inputs": [
        {
          "internalType": "address",
          "name": "_address",
          "type": "address"
        },
        {
          "internalType": "uint256",
          "name": "_idx",
          "type": "uint256"
        }
      ],
      "name": "decodeRecordBytes",
      "outputs": [
        {
          "internalType": "uint8",
          "name": "c",
          "type": "uint8"
        },
        {
          "internalType": "uint32",
          "name": "m",
          "type": "uint32"
        },
        {
          "internalType": "uint8",
          "name": "t",
          "type": "uint8"
        },
        {
          "internalType": "uint8",
          "name": "v",
          "type": "uint8"
        },
        {
          "internalType": "bytes32",
          "name": "k",
          "type": "bytes32"
        },
        {
          "internalType": "bytes",
          "name": "s",
          "type": "bytes"
        }
      ],
      "stateMutability": "view",
      "type": "function",
      "constant": true
    },
    {
      "inputs": [
        {
          "internalType": "uint256",
          "name": "_hashId",
          "type": "uint256"
        }
      ],
      "name": "decodeRecordBytes",
      "outputs": [
        {
          "internalType": "uint8",
          "name": "c",
          "type": "uint8"
        },
        {
          "internalType": "uint32",
          "name": "m",
          "type": "uint32"
        },
        {
          "internalType": "uint8",
          "name": "t",
          "type": "uint8"
        },
        {
          "internalType": "uint8",
          "name": "v",
          "type": "uint8"
        },
        {
          "internalType": "bytes32",
          "name": "k",
          "type": "bytes32"
        },
        {
          "internalType": "bytes",
          "name": "s",
          "type": "bytes"
        }
      ],
      "stateMutability": "view",
      "type": "function",
      "constant": true
    },
    {
      "inputs": [
        {
          "internalType": "address",
          "name": "_address",
          "type": "address"
        }
      ],
      "name": "getHashIdsByAddress",
      "outputs": [
        {
          "internalType": "uint256[]",
          "name": "ids",
          "type": "uint256[]"
        }
      ],
      "stateMutability": "view",
      "type": "function",
      "constant": true
    }
  ],
  "bytecode": "0x6080604052603c600555620186a06006553480156200001d57600080fd5b506040516200184b3803806200184b8339810160408190526200004091620000d1565b6200004b3362000081565b600082116200005c5760016200005e565b815b60085580620000705760065462000072565b805b600a55505042600955620000f6565b600080546001600160a01b038381166001600160a01b0319831681178455604051919092169283917f8be0079c531659141344cd1fd0a4f28419497f9722a3daafe3b4186f6b6457e09190a35050565b60008060408385031215620000e557600080fd5b505080516020909101519092909150565b61174580620001066000396000f3fe608060405234801561001057600080fd5b506004361061015f5760003560e01c806306ffc5ea146101645780630747b9c1146101805780630e86b75e146101a55780630ff99d59146101ba578063151b8f4e146101c257806319cae462146101cb5780632254e055146101d457806327b50bfa146101e75780632f88ef95146101fa57806345fbbb8c1461020d57806347efe9ab1461022d578063715018a61461023657806374811f6f1461023e5780637667180814610251578063799f63351461025a57806385ae2fb71461026d5780638794556d146102755780638b2db16e146102885780638da5cb5b14610291578063a3d2216d146102b1578063a5cdb7e5146102dc578063a6def311146102ef578063a9abec5b14610318578063ba63245d14610321578063cb48c1b614610341578063cf81e89914610354578063db658b0f14610367578063ee5f883214610387578063f2fde38b1461039a575b600080fd5b61016d60075481565b6040519081526020015b60405180910390f35b61019361018e366004610fc9565b6103ad565b60405161017796959493929190611039565b6101b86101b33660046110f2565b6103fa565b005b61016d600181565b61016d60055481565b61016d600a5481565b6101b86101e23660046111d5565b61044d565b61016d6101f5366004610fc9565b6105e4565b6101b8610208366004611255565b6106a7565b61022061021b3660046112a7565b6106f4565b60405161017791906112c9565b61016d600b5481565b6101b86107bb565b6101b861024c36600461130d565b6107cf565b61016d60085481565b6101b861026836600461130d565b61082a565b6101b86108b6565b6101b8610283366004611326565b610968565b61016d60065481565b6102996109e9565b6040516001600160a01b039091168152602001610177565b61016d6102bf366004610fc9565b600260209081526000928352604080842090915290825290205481565b6101b86102ea36600461137a565b6109f8565b6102996102fd36600461130d565b6004602052600090815260409020546001600160a01b031681565b61016d60095481565b61016d61032f3660046112a7565b60036020526000908152604090205481565b6101b861034f366004611255565b610a52565b61019361036236600461130d565b610ae5565b61037a61037536600461130d565b610c3d565b60405161017791906113bf565b6101b86103953660046111d5565b610cd7565b6101b86103a83660046112a7565b610d23565b6001600160a01b038216600090815260026020908152604080832084845290915281205481908190819081906060906103e590610ae5565b949d939c50919a509850965090945092505050565b6104438860076000815461040d906113e8565b918290555060405161042f908b908b908b908b908b908b908b90602001611401565b604051602081830303815290604052610d9c565b5050505050505050565b60005b818110156105dc576105ca8686868481811061046e5761046e61145f565b905060200201358585858181106104875761048761145f565b90506020028101906104999190611475565b6104a7906020810190611495565b8686868181106104b9576104b961145f565b90506020028101906104cb9190611475565b6104dc9060408101906020016114b0565b8787878181106104ee576104ee61145f565b90506020028101906105009190611475565b610511906060810190604001611495565b8888888181106105235761052361145f565b90506020028101906105359190611475565b610546906080810190606001611495565b8989898181106105585761055861145f565b905060200281019061056a9190611475565b6105789060808101906114cb565b8b8b8b81811061058a5761058a61145f565b905060200281019061059c9190611475565b60a001356040516020016105b69796959493929190611511565b604051602081830303815290604052610e09565b806105d4816113e8565b915050610450565b505050505050565b6001600160a01b0382166000908152600260209081526040808320848452825280832054835260019091528120805482919061061f90611568565b80601f016020809104026020016040519081016040528092919081815260200182805461064b90611568565b80156106985780601f1061066d57610100808354040283529160200191610698565b820191906000526020600020905b81548152906001019060200180831161067b57829003601f168201915b50509251979650505050505050565b60005b818110156106ee576106dc846007600081546106c5906113e8565b91829055508585858181106104875761048761145f565b806106e6816113e8565b9150506106aa565b50505050565b6001600160a01b038116600090815260036020526040902054606090806001600160401b03811115610728576107286115a2565b604051908082528060200260200182016040528015610751578160200160208202803683370190505b50915060005b818110156107b4576001600160a01b038416600090815260026020908152604080832084845290915290205483518490839081106107975761079761145f565b6020908102919091010152806107ac816113e8565b915050610757565b5050919050565b6107c3610efe565b6107cd6000610f5d565b565b6107d7610efe565b600081116108255760405162461bcd60e51b815260206004820152601660248201527558313a20496c6c6567616c20446966666963756c747960501b60448201526064015b60405180910390fd5b600655565b610832610efe565b6000811161087f5760405162461bcd60e51b815260206004820152601a6024820152792c189d1024b63632b3b0b61022b837b1b410223ab930ba34b7b760311b604482015260640161081c565b60058190556008546040518291907f361d876894ff3854d2e192162a59a0ce8d9e27637af1302a2b8af18e3b007b2490600090a350565b6005546009546108c690426115b8565b11156107cd5742600955600880549060006108e0836113e8565b9190505550600060016005546108f691906115d1565b905080600b5460065461090991906115f3565b61091391906115d1565b600a8190556000600b5560085460095460405191927f3bb7b347508b7c148ec2094ac60d2e3d8b7595421025643f08b45cb78b326b589261095d9290918252602082015260400190565b60405180910390a250565b6109e58260076000815461097b906113e8565b918290555061098d6020850185611495565b61099d60408601602087016114b0565b6109ad6060870160408801611495565b6109bd6080880160608901611495565b6109ca60808901896114cb565b8960a0013560405160200161042f9796959493929190611511565b5050565b6000546001600160a01b031690565b610a4d83600760008154610a0b906113e8565b91905081905584848080601f016020809104026020016040519081016040528093929190818152602001838380828437600092019190915250610d9c92505050565b505050565b60005b818110156106ee57610ad384600760008154610a70906113e8565b9182905550858585818110610a8757610a8761145f565b9050602002810190610a9991906114cb565b8080601f016020809104026020016040519081016040528093929190818152602001838380828437600092019190915250610e0992505050565b80610add816113e8565b915050610a55565b600080600080600060606000600160008981526020019081526020016000208054610b0f90611568565b80601f0160208091040260200160405190810160405280929190818152602001828054610b3b90611568565b8015610b885780601f10610b5d57610100808354040283529160200191610b88565b820191906000526020600020905b815481529060010190602001808311610b6b57829003601f168201915b505050505090506000815190506001820151975060058201519650600682015195506007820151945060278201519350602781610bc591906115b8565b6001600160401b03811115610bdc57610bdc6115a2565b6040519080825280601f01601f191660200182016040528015610c06576020820181803683370190505b509250602083016027820360005b81811015610c2f578060280185015181840153600101610c14565b505050505091939550919395565b60016020526000908152604090208054610c5690611568565b80601f0160208091040260200160405190810160405280929190818152602001828054610c8290611568565b8015610ccf5780601f10610ca457610100808354040283529160200191610ccf565b820191906000526020600020905b815481529060010190602001808311610cb257829003601f168201915b505050505081565b60005b818110156105dc57610d1186868684818110610cf857610cf861145f565b90506020020135858585818110610a8757610a8761145f565b80610d1b816113e8565b915050610cda565b610d2b610efe565b6001600160a01b038116610d905760405162461bcd60e51b815260206004820152602660248201527f4f776e61626c653a206e6577206f776e657220697320746865207a65726f206160448201526564647265737360d01b606482015260840161081c565b610d9981610f5d565b50565b610da7838383610e09565b826001600160a01b0316600854837f30e5fb28e00aab05ae396f77b088b8627fa5f78c42fbd55fdb593caa2e3f2a2e84604051610de491906113bf565b60405180910390a4600b8054906000610dfc836113e8565b9190505550610a4d6108b6565b6000828152600460205260409020546001600160a01b031615610e675760405162461bcd60e51b815260206004820152601660248201527558313a2048617368205265636f72642045786973747360501b604482015260640161081c565b6000828152600160205260409020610e7f8282611650565b506001600160a01b0383166000908152600260209081526040808320600390925282208054859391908290610eb3906113e8565b918290555081526020808201929092526040908101600090812093909355938252600490529190912080546001600160a01b0319166001600160a01b03939093169290921790915550565b33610f076109e9565b6001600160a01b0316146107cd5760405162461bcd60e51b815260206004820181905260248201527f4f776e61626c653a2063616c6c6572206973206e6f7420746865206f776e6572604482015260640161081c565b600080546001600160a01b038381166001600160a01b0319831681178455604051919092169283917f8be0079c531659141344cd1fd0a4f28419497f9722a3daafe3b4186f6b6457e09190a35050565b80356001600160a01b0381168114610fc457600080fd5b919050565b60008060408385031215610fdc57600080fd5b610fe583610fad565b946020939093013593505050565b6000815180845260005b8181101561101957602081850181015186830182015201610ffd565b506000602082860101526020601f19601f83011685010191505092915050565b60ff8716815263ffffffff8616602082015260ff8516604082015260ff8416606082015282608082015260c060a0820152600061107960c0830184610ff3565b98975050505050505050565b803560ff81168114610fc457600080fd5b803563ffffffff81168114610fc457600080fd5b60008083601f8401126110bc57600080fd5b5081356001600160401b038111156110d357600080fd5b6020830191508360208285010111156110eb57600080fd5b9250929050565b60008060008060008060008060e0898b03121561110e57600080fd5b61111789610fad565b975061112560208a01611085565b965061113360408a01611096565b955061114160608a01611085565b945061114f60808a01611085565b935060a0890135925060c08901356001600160401b0381111561117157600080fd5b61117d8b828c016110aa565b999c989b5096995094979396929594505050565b60008083601f8401126111a357600080fd5b5081356001600160401b038111156111ba57600080fd5b6020830191508360208260051b85010111156110eb57600080fd5b6000806000806000606086880312156111ed57600080fd5b6111f686610fad565b945060208601356001600160401b038082111561121257600080fd5b61121e89838a01611191565b9096509450604088013591508082111561123757600080fd5b5061124488828901611191565b969995985093965092949392505050565b60008060006040848603121561126a57600080fd5b61127384610fad565b925060208401356001600160401b0381111561128e57600080fd5b61129a86828701611191565b9497909650939450505050565b6000602082840312156112b957600080fd5b6112c282610fad565b9392505050565b6020808252825182820181905260009190848201906040850190845b81811015611301578351835292840192918401916001016112e5565b50909695505050505050565b60006020828403121561131f57600080fd5b5035919050565b6000806040838503121561133957600080fd5b61134283610fad565b915060208301356001600160401b0381111561135d57600080fd5b830160c0818603121561136f57600080fd5b809150509250929050565b60008060006040848603121561138f57600080fd5b61139884610fad565b925060208401356001600160401b038111156113b357600080fd5b61129a868287016110aa565b6020815260006112c26020830184610ff3565b634e487b7160e01b600052601160045260246000fd5b6000600182016113fa576113fa6113d2565b5060010190565b6001600160f81b031960f889811b821683526001600160e01b031960e08a901b16600184015287811b8216600584015286901b1660068201526007810184905260008284602784013750600091016027019081529695505050505050565b634e487b7160e01b600052603260045260246000fd5b6000823560be1983360301811261148b57600080fd5b9190910192915050565b6000602082840312156114a757600080fd5b6112c282611085565b6000602082840312156114c257600080fd5b6112c282611096565b6000808335601e198436030181126114e257600080fd5b8301803591506001600160401b038211156114fc57600080fd5b6020019150368190038213156110eb57600080fd5b6001600160f81b031960f889811b821683526001600160e01b031960e08a901b16600184015287811b8216600584015286901b16600682015260008385600784013750600792019182015260270195945050505050565b600181811c9082168061157c57607f821691505b60208210810361159c57634e487b7160e01b600052602260045260246000fd5b50919050565b634e487b7160e01b600052604160045260246000fd5b818103818111156115cb576115cb6113d2565b92915050565b6000826115ee57634e487b7160e01b600052601260045260246000fd5b500490565b80820281158282048414176115cb576115cb6113d2565b601f821115610a4d57600081815260208120601f850160051c810160208610156116315750805b601f850160051c820191505b818110156105dc5782815560010161163d565b81516001600160401b03811115611669576116696115a2565b61167d816116778454611568565b8461160a565b602080601f8311600181146116b2576000841561169a5750858301515b600019600386901b1c1916600185901b1785556105dc565b600085815260208120601f198616915b828110156116e1578886015182559484019460019091019084016116c2565b50858210156116ff5787850151600019600388901b60f8161c191681555b5050505050600190811b0190555056fea264697066735822122009ce19240c565481a8b716c02e4b167b116dd789cc38345c1cea1570477036a664736f6c63430008140033",
  "immutableReferences": {},
  "source": "// SPDX-License-Identifier: MIT\npragma solidity ^0.8.20;\npragma abicoder v2;  // Enable ABI coder v2\n\nimport \"@openzeppelin/contracts/access/Ownable.sol\";\n\ncontract BlockStorage is Ownable {\n    struct HashRecord {\n        uint8 c;\n        uint32 m;\n        uint8 t;\n        uint8 v;\n        bytes k;\n        bytes32 s;\n    }\n\n    uint256 public constant TARGET_BLOCK_TIME_S = 1;\n\n    // hash ID => hash record\n    mapping(uint256 => bytes) public hashRecords;\n    // address => idx => hash ID\n    mapping(address => mapping(uint256 => uint256)) public hashIdsByAddress;\n    // address => record counter\n    mapping(address => uint256) public recordCount;\n    //hash ID => account address\n    mapping(uint256 => address) public addressesByHashId;\n    // hourly timestamp => hash ID => account address\n    // mapping(uint256 => mapping(uint256 => address)) public hourlyRecords;\n\n    uint256 public epochDurationSec = 60;       // is set by authority\n    // uint256 public epochDurationSec = 3_600;       // is set by authority\n    uint256 public targetDifficulty = 100_000;  // is set by authority\n    uint256 public currentHashId;               // increments with each new Hash\n    uint256 public currentEpoch;                // increments every epoch\n    uint256 public currentEpochTs;              // is set every epoch\n    uint256 public difficulty;                  // ie set every epoch\n    uint256 public epochHashCounter;            // resets every epoch\n\n    constructor(uint256 _currentEpoch, uint256 _difficulty) {\n        currentEpoch = _currentEpoch > 0 ? _currentEpoch : 1;\n        difficulty = _difficulty > 0 ? _difficulty : targetDifficulty;\n        currentEpochTs = block.timestamp;\n    }\n\n    event NewHash(uint256 indexed hashId, uint256 indexed epoch, address indexed account, bytes _bytes);\n    event NewEpoch(uint256 indexed epoch, uint256 difficulty, uint256 ts);\n    event EpochDurationSet(uint256 indexed epoch, uint256 indexed duration);\n    event TargetDifficultySet(uint256 indexed epoch, uint256 indexed difficulty);\n\n    function setEpochDurationSec(uint256 _epochDurationSec) external onlyOwner {\n        require(_epochDurationSec > 0, 'X1: Illegal Epoch Duration');\n        epochDurationSec = _epochDurationSec;\n        emit EpochDurationSet(currentEpoch, _epochDurationSec);\n    }\n\n    function setTargetDifficulty(uint256 _targetDifficulty) external onlyOwner {\n        require(_targetDifficulty > 0, 'X1: Illegal Difficulty');\n        targetDifficulty = _targetDifficulty;\n    }\n\n    function doHousekeeping() public {\n        if (block.timestamp - currentEpochTs > epochDurationSec) {\n            currentEpochTs = block.timestamp;\n            currentEpoch++;\n            uint256 targetHashCount = epochDurationSec / TARGET_BLOCK_TIME_S;\n            difficulty = targetDifficulty * epochHashCounter / targetHashCount;\n            epochHashCounter = 0;\n            emit NewEpoch(currentEpoch, difficulty, currentEpochTs);\n        }\n    }\n\n    function _storeRecord(address _address, uint256 _hashId, bytes memory _bytes) internal {\n        require(addressesByHashId[_hashId] == address(0), 'X1: Hash Record Exists');\n\n        hashRecords[_hashId] = _bytes;\n        hashIdsByAddress[_address][++recordCount[_address]] = _hashId;\n        addressesByHashId[_hashId] = _address;\n    }\n\n    function _storeNewRecord(address _address, uint256 _hashId, bytes memory _bytes) internal {\n        _storeRecord(_address, _hashId, _bytes);\n        emit NewHash(_hashId, currentEpoch, _address, _bytes);\n        epochHashCounter++;\n        // this is done as the last step to avoid using new epoch values\n        doHousekeeping();   // check / start new epoch if required\n    }\n\n    function storeNewRecord(address _address, HashRecord calldata r) external {\n        _storeNewRecord(_address, ++currentHashId, abi.encodePacked(r.c, r.m, r.t, r.v, r.k, r.s));\n    }\n\n    function storeNewRecordData(address _address, uint8 c, uint32 m, uint8 t, uint8 v, bytes32 k, bytes calldata s) external {\n        _storeNewRecord(_address, ++currentHashId, abi.encodePacked(c, m, t, v, k, s));\n    }\n\n    function storeNewRecordBytes(address _address, bytes calldata _bytes) external {\n        _storeNewRecord(_address, ++currentHashId, _bytes);\n    }\n\n    function bulkStoreRecordsInc(address _address, HashRecord[] calldata hh) external {\n        for (uint i = 0; i < hh.length; i++) {\n            _storeRecord(_address, ++currentHashId, abi.encodePacked(hh[i].c, hh[i].m, hh[i].t, hh[i].v, hh[i].k, hh[i].s));\n        }\n    }\n\n    function bulkStoreRecordBytesInc(address _address, bytes[] calldata bb) external {\n        for (uint i = 0; i < bb.length; i++) {\n            _storeRecord(_address, ++currentHashId, bb[i]);\n        }\n    }\n\n    function bulkStoreRecords(address _address, uint256[] calldata _hasIds, HashRecord[] calldata hh) external {\n        for (uint i = 0; i < hh.length; i++) {\n            _storeRecord(_address, _hasIds[i], abi.encodePacked(hh[i].c, hh[i].m, hh[i].t, hh[i].v, hh[i].k, hh[i].s));\n        }\n    }\n\n    function bulkStoreRecordBytes(address _address, uint256[] calldata _hasIds, bytes[] calldata bb) external {\n        for (uint i = 0; i < bb.length; i++) {\n            _storeRecord(_address, _hasIds[i], bb[i]);\n        }\n    }\n\n    function getBytesLen(address _address, uint256 _index) external view returns (uint len) {\n        bytes memory _data = hashRecords[hashIdsByAddress[_address][_index]];\n        assembly {\n            len := mload(_data)\n        }\n    }\n\n    function decodeRecordBytes(uint256 _hashId)\n        public\n        view\n        returns (uint8 c, uint32 m, uint8 t, uint8 v, bytes32 k, bytes memory s)\n    {\n        bytes memory _data = hashRecords[_hashId];\n        uint len;\n        assembly {\n            len := mload(_data)\n            c := mload(add(_data, 1))\n            m := mload(add(_data, 5))\n            t := mload(add(_data, 6))\n            v := mload(add(_data, 7))\n            k := mload(add(_data, 39))\n        }\n        s = new bytes(len - 39);\n        assembly {\n            // Skip the first 32 bytes reserved for the length of the memory array\n            let offset := add(s, 0x20)\n            let count := sub(len, 39)\n            for { let i := 0} lt(i, count) { i := add(i, 1) } {\n                mstore8(add(offset, i), mload(add(_data, add(40, i))))\n            }\n        }\n    }\n\n    function decodeRecordBytes(address _address, uint256 _idx)\n        public\n        view\n        returns (uint8 c, uint32 m, uint8 t, uint8 v, bytes32 k, bytes memory s)\n    {\n        return decodeRecordBytes(hashIdsByAddress[_address][_idx]);\n    }\n\n    function getHashIdsByAddress(address _address) public view returns (uint256[] memory ids) {\n        uint256 count = recordCount[_address];\n        ids = new uint256[](count);\n        for (uint i = 0; i < count; i++) {\n            ids[i] = hashIdsByAddress[_address][i];\n        }\n    }\n}\n",
  "sourcePath": "/Users/lbelyaev/dev/x1-block-storage/contracts/BlockStorage.sol",
  "compiler": {
    "name": "solc",
    "version": "0.8.20+commit.a1b79de6.Emscripten.clang"
  },
  "schemaVersion": "3.4.16",
  "updatedAt": "2023-11-30T20:34:44.742Z",
  "networkType": "ethereum",
  "devdoc": {
    "kind": "dev",
    "methods": {
      "owner()": {
        "details": "Returns the address of the current owner."
      },
      "renounceOwnership()": {
        "details": "Leaves the contract without owner. It will not be possible to call `onlyOwner` functions. Can only be called by the current owner. NOTE: Renouncing ownership will leave the contract without an owner, thereby disabling any functionality that is only available to the owner."
      },
      "transferOwnership(address)": {
        "details": "Transfers ownership of the contract to a new account (`newOwner`). Can only be called by the current owner."
      }
    },
    "version": 1
  },
  "userdoc": {
    "kind": "user",
    "methods": {},
    "version": 1
  }
}