{
  "contractName": "BlockStorage",
  "abi": [
    {
      "inputs": [
        {
          "internalType": "uint256",
          "name": "_currentEpoch",
          "type": "uint256"
        },
        {
          "internalType": "uint256",
          "name": "_difficulty",
          "type": "uint256"
        },
        {
          "internalType": "uint256",
          "name": "_variance",
          "type": "uint256"
        }
      ],
      "stateMutability": "nonpayable",
      "type": "constructor"
    },
    {
      "anonymous": false,
      "inputs": [
        {
          "indexed": true,
          "internalType": "uint256",
          "name": "epoch",
          "type": "uint256"
        },
        {
          "indexed": true,
          "internalType": "uint256",
          "name": "duration",
          "type": "uint256"
        }
      ],
      "name": "EpochDurationSet",
      "type": "event"
    },
    {
      "anonymous": false,
      "inputs": [
        {
          "indexed": true,
          "internalType": "uint256",
          "name": "epoch",
          "type": "uint256"
        },
        {
          "indexed": false,
          "internalType": "uint256",
          "name": "difficulty",
          "type": "uint256"
        },
        {
          "indexed": false,
          "internalType": "uint256",
          "name": "ts",
          "type": "uint256"
        }
      ],
      "name": "NewEpoch",
      "type": "event"
    },
    {
      "anonymous": false,
      "inputs": [
        {
          "indexed": true,
          "internalType": "uint256",
          "name": "hashId",
          "type": "uint256"
        },
        {
          "indexed": true,
          "internalType": "uint256",
          "name": "epoch",
          "type": "uint256"
        },
        {
          "indexed": true,
          "internalType": "address",
          "name": "account",
          "type": "address"
        },
        {
          "indexed": false,
          "internalType": "uint256",
          "name": "ts",
          "type": "uint256"
        },
        {
          "indexed": false,
          "internalType": "bytes",
          "name": "_bytes",
          "type": "bytes"
        }
      ],
      "name": "NewHash",
      "type": "event"
    },
    {
      "anonymous": false,
      "inputs": [
        {
          "indexed": true,
          "internalType": "address",
          "name": "previousOwner",
          "type": "address"
        },
        {
          "indexed": true,
          "internalType": "address",
          "name": "newOwner",
          "type": "address"
        }
      ],
      "name": "OwnershipTransferred",
      "type": "event"
    },
    {
      "anonymous": false,
      "inputs": [
        {
          "indexed": true,
          "internalType": "uint256",
          "name": "epoch",
          "type": "uint256"
        },
        {
          "indexed": true,
          "internalType": "uint256",
          "name": "difficulty",
          "type": "uint256"
        }
      ],
      "name": "TargetDifficultySet",
      "type": "event"
    },
    {
      "inputs": [],
      "name": "DIFFICULTY_ADJUSTMENT",
      "outputs": [
        {
          "internalType": "uint256",
          "name": "",
          "type": "uint256"
        }
      ],
      "stateMutability": "view",
      "type": "function",
      "constant": true
    },
    {
      "inputs": [],
      "name": "TARGET_BLOCK_TIME_S",
      "outputs": [
        {
          "internalType": "uint256",
          "name": "",
          "type": "uint256"
        }
      ],
      "stateMutability": "view",
      "type": "function",
      "constant": true
    },
    {
      "inputs": [
        {
          "internalType": "uint256",
          "name": "",
          "type": "uint256"
        }
      ],
      "name": "addressesByHashId",
      "outputs": [
        {
          "internalType": "address",
          "name": "",
          "type": "address"
        }
      ],
      "stateMutability": "view",
      "type": "function",
      "constant": true
    },
    {
      "inputs": [
        {
          "internalType": "bytes32",
          "name": "",
          "type": "bytes32"
        }
      ],
      "name": "addressesByKey",
      "outputs": [
        {
          "internalType": "address",
          "name": "",
          "type": "address"
        }
      ],
      "stateMutability": "view",
      "type": "function",
      "constant": true
    },
    {
      "inputs": [],
      "name": "currentEpoch",
      "outputs": [
        {
          "internalType": "uint256",
          "name": "",
          "type": "uint256"
        }
      ],
      "stateMutability": "view",
      "type": "function",
      "constant": true
    },
    {
      "inputs": [],
      "name": "currentEpochTs",
      "outputs": [
        {
          "internalType": "uint256",
          "name": "",
          "type": "uint256"
        }
      ],
      "stateMutability": "view",
      "type": "function",
      "constant": true
    },
    {
      "inputs": [],
      "name": "currentHashId",
      "outputs": [
        {
          "internalType": "uint256",
          "name": "",
          "type": "uint256"
        }
      ],
      "stateMutability": "view",
      "type": "function",
      "constant": true
    },
    {
      "inputs": [],
      "name": "difficulty",
      "outputs": [
        {
          "internalType": "uint256",
          "name": "",
          "type": "uint256"
        }
      ],
      "stateMutability": "view",
      "type": "function",
      "constant": true
    },
    {
      "inputs": [],
      "name": "epochDurationSec",
      "outputs": [
        {
          "internalType": "uint256",
          "name": "",
          "type": "uint256"
        }
      ],
      "stateMutability": "view",
      "type": "function",
      "constant": true
    },
    {
      "inputs": [],
      "name": "epochHashCounter",
      "outputs": [
        {
          "internalType": "uint256",
          "name": "",
          "type": "uint256"
        }
      ],
      "stateMutability": "view",
      "type": "function",
      "constant": true
    },
    {
      "inputs": [
        {
          "internalType": "address",
          "name": "",
          "type": "address"
        },
        {
          "internalType": "uint256",
          "name": "",
          "type": "uint256"
        }
      ],
      "name": "hashIdsByAddress",
      "outputs": [
        {
          "internalType": "uint256",
          "name": "",
          "type": "uint256"
        }
      ],
      "stateMutability": "view",
      "type": "function",
      "constant": true
    },
    {
      "inputs": [
        {
          "internalType": "uint256",
          "name": "",
          "type": "uint256"
        }
      ],
      "name": "hashRecords",
      "outputs": [
        {
          "internalType": "bytes",
          "name": "",
          "type": "bytes"
        }
      ],
      "stateMutability": "view",
      "type": "function",
      "constant": true
    },
    {
      "inputs": [],
      "name": "owner",
      "outputs": [
        {
          "internalType": "address",
          "name": "",
          "type": "address"
        }
      ],
      "stateMutability": "view",
      "type": "function",
      "constant": true
    },
    {
      "inputs": [
        {
          "internalType": "address",
          "name": "",
          "type": "address"
        }
      ],
      "name": "recordCount",
      "outputs": [
        {
          "internalType": "uint256",
          "name": "",
          "type": "uint256"
        }
      ],
      "stateMutability": "view",
      "type": "function",
      "constant": true
    },
    {
      "inputs": [],
      "name": "renounceOwnership",
      "outputs": [],
      "stateMutability": "nonpayable",
      "type": "function"
    },
    {
      "inputs": [],
      "name": "targetDifficulty",
      "outputs": [
        {
          "internalType": "uint256",
          "name": "",
          "type": "uint256"
        }
      ],
      "stateMutability": "view",
      "type": "function",
      "constant": true
    },
    {
      "inputs": [
        {
          "internalType": "address",
          "name": "newOwner",
          "type": "address"
        }
      ],
      "name": "transferOwnership",
      "outputs": [],
      "stateMutability": "nonpayable",
      "type": "function"
    },
    {
      "inputs": [],
      "name": "variance",
      "outputs": [
        {
          "internalType": "uint256",
          "name": "",
          "type": "uint256"
        }
      ],
      "stateMutability": "view",
      "type": "function",
      "constant": true
    },
    {
      "inputs": [
        {
          "internalType": "uint256",
          "name": "_epochDurationSec",
          "type": "uint256"
        }
      ],
      "name": "setEpochDurationSec",
      "outputs": [],
      "stateMutability": "nonpayable",
      "type": "function"
    },
    {
      "inputs": [
        {
          "internalType": "uint256",
          "name": "_targetDifficulty",
          "type": "uint256"
        }
      ],
      "name": "setTargetDifficulty",
      "outputs": [],
      "stateMutability": "nonpayable",
      "type": "function"
    },
    {
      "inputs": [],
      "name": "doHousekeeping",
      "outputs": [],
      "stateMutability": "nonpayable",
      "type": "function"
    },
    {
      "inputs": [
        {
          "internalType": "address",
          "name": "_address",
          "type": "address"
        },
        {
          "components": [
            {
              "internalType": "uint8",
              "name": "c",
              "type": "uint8"
            },
            {
              "internalType": "uint32",
              "name": "m",
              "type": "uint32"
            },
            {
              "internalType": "uint8",
              "name": "t",
              "type": "uint8"
            },
            {
              "internalType": "uint8",
              "name": "v",
              "type": "uint8"
            },
            {
              "internalType": "bytes32",
              "name": "k",
              "type": "bytes32"
            },
            {
              "internalType": "bytes",
              "name": "s",
              "type": "bytes"
            }
          ],
          "internalType": "struct BlockStorage.HashRecord",
          "name": "r",
          "type": "tuple"
        }
      ],
      "name": "storeNewRecord",
      "outputs": [],
      "stateMutability": "nonpayable",
      "type": "function"
    },
    {
      "inputs": [
        {
          "internalType": "address",
          "name": "_address",
          "type": "address"
        },
        {
          "internalType": "uint8",
          "name": "c",
          "type": "uint8"
        },
        {
          "internalType": "uint32",
          "name": "m",
          "type": "uint32"
        },
        {
          "internalType": "uint8",
          "name": "t",
          "type": "uint8"
        },
        {
          "internalType": "uint8",
          "name": "v",
          "type": "uint8"
        },
        {
          "internalType": "bytes32",
          "name": "k",
          "type": "bytes32"
        },
        {
          "internalType": "bytes",
          "name": "s",
          "type": "bytes"
        }
      ],
      "name": "storeNewRecordData",
      "outputs": [],
      "stateMutability": "nonpayable",
      "type": "function"
    },
    {
      "inputs": [
        {
          "internalType": "address",
          "name": "_address",
          "type": "address"
        },
        {
          "internalType": "bytes",
          "name": "_bytes",
          "type": "bytes"
        }
      ],
      "name": "storeNewRecordBytes",
      "outputs": [],
      "stateMutability": "nonpayable",
      "type": "function"
    },
    {
      "inputs": [
        {
          "internalType": "address",
          "name": "_address",
          "type": "address"
        },
        {
          "components": [
            {
              "internalType": "uint8",
              "name": "c",
              "type": "uint8"
            },
            {
              "internalType": "uint32",
              "name": "m",
              "type": "uint32"
            },
            {
              "internalType": "uint8",
              "name": "t",
              "type": "uint8"
            },
            {
              "internalType": "uint8",
              "name": "v",
              "type": "uint8"
            },
            {
              "internalType": "bytes32",
              "name": "k",
              "type": "bytes32"
            },
            {
              "internalType": "bytes",
              "name": "s",
              "type": "bytes"
            }
          ],
          "internalType": "struct BlockStorage.HashRecord[]",
          "name": "hh",
          "type": "tuple[]"
        }
      ],
      "name": "bulkStoreRecordsInc",
      "outputs": [],
      "stateMutability": "nonpayable",
      "type": "function"
    },
    {
      "inputs": [
        {
          "internalType": "address[]",
          "name": "addresses",
          "type": "address[]"
        },
        {
          "internalType": "bytes[]",
          "name": "bb",
          "type": "bytes[]"
        }
      ],
      "name": "bulkStoreFullRecordsInc",
      "outputs": [],
      "stateMutability": "nonpayable",
      "type": "function"
    },
    {
      "inputs": [
        {
          "internalType": "address",
          "name": "_address",
          "type": "address"
        },
        {
          "internalType": "bytes[]",
          "name": "bb",
          "type": "bytes[]"
        }
      ],
      "name": "bulkStoreRecordBytesInc",
      "outputs": [],
      "stateMutability": "nonpayable",
      "type": "function"
    },
    {
      "inputs": [
        {
          "internalType": "address",
          "name": "_address",
          "type": "address"
        },
        {
          "internalType": "uint256[]",
          "name": "_hasIds",
          "type": "uint256[]"
        },
        {
          "components": [
            {
              "internalType": "uint8",
              "name": "c",
              "type": "uint8"
            },
            {
              "internalType": "uint32",
              "name": "m",
              "type": "uint32"
            },
            {
              "internalType": "uint8",
              "name": "t",
              "type": "uint8"
            },
            {
              "internalType": "uint8",
              "name": "v",
              "type": "uint8"
            },
            {
              "internalType": "bytes32",
              "name": "k",
              "type": "bytes32"
            },
            {
              "internalType": "bytes",
              "name": "s",
              "type": "bytes"
            }
          ],
          "internalType": "struct BlockStorage.HashRecord[]",
          "name": "hh",
          "type": "tuple[]"
        }
      ],
      "name": "bulkStoreRecords",
      "outputs": [],
      "stateMutability": "nonpayable",
      "type": "function"
    },
    {
      "inputs": [
        {
          "internalType": "address",
          "name": "_address",
          "type": "address"
        },
        {
          "internalType": "uint256[]",
          "name": "_hasIds",
          "type": "uint256[]"
        },
        {
          "internalType": "bytes[]",
          "name": "bb",
          "type": "bytes[]"
        }
      ],
      "name": "bulkStoreRecordBytes",
      "outputs": [],
      "stateMutability": "nonpayable",
      "type": "function"
    },
    {
      "inputs": [
        {
          "internalType": "address",
          "name": "_address",
          "type": "address"
        },
        {
          "internalType": "uint256",
          "name": "_index",
          "type": "uint256"
        }
      ],
      "name": "getBytesLen",
      "outputs": [
        {
          "internalType": "uint256",
          "name": "len",
          "type": "uint256"
        }
      ],
      "stateMutability": "view",
      "type": "function",
      "constant": true
    },
    {
      "inputs": [
        {
          "internalType": "address",
          "name": "_address",
          "type": "address"
        },
        {
          "internalType": "uint256",
          "name": "_idx",
          "type": "uint256"
        }
      ],
      "name": "decodeRecordBytes",
      "outputs": [
        {
          "internalType": "uint8",
          "name": "c",
          "type": "uint8"
        },
        {
          "internalType": "uint32",
          "name": "m",
          "type": "uint32"
        },
        {
          "internalType": "uint8",
          "name": "t",
          "type": "uint8"
        },
        {
          "internalType": "uint8",
          "name": "v",
          "type": "uint8"
        },
        {
          "internalType": "bytes32",
          "name": "k",
          "type": "bytes32"
        },
        {
          "internalType": "bytes",
          "name": "s",
          "type": "bytes"
        }
      ],
      "stateMutability": "view",
      "type": "function",
      "constant": true
    },
    {
      "inputs": [
        {
          "internalType": "uint256",
          "name": "_hashId",
          "type": "uint256"
        }
      ],
      "name": "decodeRecordBytes",
      "outputs": [
        {
          "internalType": "uint8",
          "name": "c",
          "type": "uint8"
        },
        {
          "internalType": "uint32",
          "name": "m",
          "type": "uint32"
        },
        {
          "internalType": "uint8",
          "name": "t",
          "type": "uint8"
        },
        {
          "internalType": "uint8",
          "name": "v",
          "type": "uint8"
        },
        {
          "internalType": "bytes32",
          "name": "k",
          "type": "bytes32"
        },
        {
          "internalType": "bytes",
          "name": "s",
          "type": "bytes"
        }
      ],
      "stateMutability": "view",
      "type": "function",
      "constant": true
    },
    {
      "inputs": [
        {
          "internalType": "bytes",
          "name": "_data",
          "type": "bytes"
        }
      ],
      "name": "decodeRecordBytes",
      "outputs": [
        {
          "internalType": "uint8",
          "name": "c",
          "type": "uint8"
        },
        {
          "internalType": "uint32",
          "name": "m",
          "type": "uint32"
        },
        {
          "internalType": "uint8",
          "name": "t",
          "type": "uint8"
        },
        {
          "internalType": "uint8",
          "name": "v",
          "type": "uint8"
        },
        {
          "internalType": "bytes32",
          "name": "k",
          "type": "bytes32"
        },
        {
          "internalType": "bytes",
          "name": "s",
          "type": "bytes"
        }
      ],
      "stateMutability": "pure",
      "type": "function",
      "constant": true
    },
    {
      "inputs": [
        {
          "internalType": "address",
          "name": "_address",
          "type": "address"
        }
      ],
      "name": "getHashIdsByAddress",
      "outputs": [
        {
          "internalType": "uint256[]",
          "name": "ids",
          "type": "uint256[]"
        }
      ],
      "stateMutability": "view",
      "type": "function",
      "constant": true
    },
    {
      "inputs": [
        {
          "internalType": "address",
          "name": "_address",
          "type": "address"
        }
      ],
      "name": "getRecordsByAddress",
      "outputs": [
        {
          "components": [
            {
              "internalType": "uint8",
              "name": "c",
              "type": "uint8"
            },
            {
              "internalType": "uint32",
              "name": "m",
              "type": "uint32"
            },
            {
              "internalType": "uint8",
              "name": "t",
              "type": "uint8"
            },
            {
              "internalType": "uint8",
              "name": "v",
              "type": "uint8"
            },
            {
              "internalType": "bytes32",
              "name": "k",
              "type": "bytes32"
            },
            {
              "internalType": "bytes",
              "name": "s",
              "type": "bytes"
            }
          ],
          "internalType": "struct BlockStorage.HashRecord[]",
          "name": "recs",
          "type": "tuple[]"
        }
      ],
      "stateMutability": "view",
      "type": "function",
      "constant": true
    }
  ],
  "bytecode": "0x60806040526014600655610258600755620186a06008553480156200002357600080fd5b5060405162001ebe38038062001ebe8339810160408190526200004691620000ed565b62000051336200009d565b600083116200006257600162000064565b825b600a5581620000765760085462000078565b815b600c5542600b55806200008e5760065462000090565b805b600655506200011c915050565b600080546001600160a01b038381166001600160a01b0319831681178455604051919092169283917f8be0079c531659141344cd1fd0a4f28419497f9722a3daafe3b4186f6b6457e09190a35050565b6000806000606084860312156200010357600080fd5b8351925060208401519150604084015190509250925092565b611d92806200012c6000396000f3fe608060405234801561001057600080fd5b50600436106101b15760003560e01c80638b2db16e116100f55780638b2db16e146102fe5780638da5cb5b146103075780639c83a9da1461030f578063a3d2216d14610322578063a5cdb7e51461034d578063a6def31114610360578063a9abec5b14610389578063ad88bb2714610392578063ba63245d146103b2578063c78d90d4146103d2578063cb48c1b6146103e5578063cf81e899146103f8578063d7580ce91461040b578063db658b0f1461041e578063e16165311461043e578063ee5f883214610451578063f1d46f3714610464578063f2fde38b1461046d57600080fd5b806306ffc5ea146101b65780630747b9c1146101d25780630927ea0c146101f75780630e86b75e146102005780630ff99d5914610215578063151b8f4e1461021d57806319cae4621461022657806327b50bfa1461022f5780632c292d7a1461024257806345fbbb8c1461025557806347efe9ab1461027557806369685c361461027e578063715018a6146102bf57806374811f6f146102c757806376671808146102da578063799f6335146102e357806385ae2fb7146102f6575b600080fd5b6101bf60095481565b6040519081526020015b60405180910390f35b6101e56101e036600461146f565b610480565b6040516101c9969594939291906114df565b6101bf6107d081565b61021361020e366004611598565b6104cd565b005b6101bf600181565b6101bf60075481565b6101bf600c5481565b6101bf61023d36600461146f565b610520565b61021361025036600461167b565b6105e3565b6102686102633660046116fb565b61077a565b6040516101c9919061171d565b6101bf600d5481565b6102a761028c366004611761565b6005602052600090815260409020546001600160a01b031681565b6040516001600160a01b0390911681526020016101c9565b61021361084e565b6102136102d5366004611761565b610862565b6101bf600a5481565b6102136102f1366004611761565b6108bd565b610213610949565b6101bf60085481565b6102a7610a7c565b61021361031d36600461177a565b610a8b565b6101bf61033036600461146f565b600260209081526000928352604080842090915290825290205481565b61021361035b3660046117e5565b610bd5565b6102a761036e366004611761565b6004602052600090815260409020546001600160a01b031681565b6101bf600b5481565b6103a56103a03660046116fb565b610c2f565b6040516101c99190611837565b6101bf6103c03660046116fb565b60036020526000908152604090205481565b6102136103e03660046118e6565b610df9565b6102136103f33660046118e6565b610e46565b6101e5610406366004611761565b610e76565b6101e5610419366004611941565b610f38565b61043161042c366004611761565b610fe1565b6040516101c991906119f1565b61021361044c366004611a04565b61107b565b61021361045f36600461167b565b6110fc565b6101bf60065481565b61021361047b3660046116fb565b611148565b6001600160a01b038216600090815260026020908152604080832084845290915281205481908190819081906060906104b890610e76565b949d939c50919a509850965090945092505050565b610516886009600081546104e090611a6e565b9182905550604051610502908b908b908b908b908b908b908b90602001611a87565b6040516020818303038152906040526111c1565b5050505050505050565b6001600160a01b0382166000908152600260209081526040808320848452825280832054835260019091528120805482919061055b90611ae5565b80601f016020809104026020016040519081016040528092919081815260200182805461058790611ae5565b80156105d45780601f106105a9576101008083540402835291602001916105d4565b820191906000526020600020905b8154815290600101906020018083116105b757829003601f168201915b50509251979650505050505050565b60005b81811015610772576107608686868481811061060457610604611b1f565b9050602002013585858581811061061d5761061d611b1f565b905060200281019061062f9190611b35565b61063d906020810190611b55565b86868681811061064f5761064f611b1f565b90506020028101906106619190611b35565b610672906040810190602001611b70565b87878781811061068457610684611b1f565b90506020028101906106969190611b35565b6106a7906060810190604001611b55565b8888888181106106b9576106b9611b1f565b90506020028101906106cb9190611b35565b6106dc906080810190606001611b55565b8989898181106106ee576106ee611b1f565b90506020028101906107009190611b35565b608001358a8a8a81811061071657610716611b1f565b90506020028101906107289190611b35565b6107369060a0810190611b8b565b60405160200161074c9796959493929190611a87565b604051602081830303815290604052611230565b8061076a81611a6e565b9150506105e6565b505050505050565b6001600160a01b038116600090815260036020526040902054606090806001600160401b038111156107ae576107ae61192b565b6040519080825280602002602001820160405280156107d7578160200160208202803683370190505b50915060005b81811015610847576001600160a01b038416600090815260026020526040812090610809836001611bd1565b81526020019081526020016000205483828151811061082a5761082a611b1f565b60209081029190910101528061083f81611a6e565b9150506107dd565b5050919050565b6108566113a4565b6108606000611403565b565b61086a6113a4565b600081116108b85760405162461bcd60e51b815260206004820152601660248201527558313a20496c6c6567616c20446966666963756c747960501b60448201526064015b60405180910390fd5b600855565b6108c56113a4565b600081116109125760405162461bcd60e51b815260206004820152601a6024820152792c189d1024b63632b3b0b61022b837b1b410223ab930ba34b7b760311b60448201526064016108af565b6007819055600a546040518291907f361d876894ff3854d2e192162a59a0ce8d9e27637af1302a2b8af18e3b007b2490600090a350565b600754600b546109599042611bea565b11156108605742600b55600a805490600061097383611a6e565b9190505550600060016007546109899190611bfd565b905060006064600654606461099e9190611bea565b6109a89084611c1f565b6109b29190611bfd565b90506000606460065460646109c79190611bd1565b6109d19085611c1f565b6109db9190611bfd565b905081600d541015610a06576107d0600c60008282546109fb9190611bea565b90915550610a2a9050565b80600d541115610a2a576107d0600c6000828254610a249190611bd1565b90915550505b6000600d55600a54600c54600b546040517f3bb7b347508b7c148ec2094ac60d2e3d8b7595421025643f08b45cb78b326b5892610a6f92908252602082015260400190565b60405180910390a2505050565b6000546001600160a01b031690565b828114610ad65760405162461bcd60e51b81526020600482015260196024820152780b062744082e4e4c2f24098cadccee8d0409ad2e6dac2e8c6d603b1b60448201526064016108af565b82610b155760405162461bcd60e51b815260206004820152600f60248201526e58313a20456d70747920417272617960881b60448201526064016108af565b60005b81811015610bce57610bbc858583818110610b3557610b35611b1f565b9050602002016020810190610b4a91906116fb565b600960008154610b5990611a6e565b9182905550858585818110610b7057610b70611b1f565b9050602002810190610b829190611b8b565b8080601f01602080910402602001604051908101604052809392919081815260200183838082843760009201919091525061123092505050565b80610bc681611a6e565b915050610b18565b5050505050565b610c2a83600960008154610be890611a6e565b91905081905584848080601f0160208091040260200160405190810160405280939291908181526020018383808284376000920191909152506111c192505050565b505050565b6001600160a01b038116600090815260036020526040902054606090806001600160401b03811115610c6357610c6361192b565b604051908082528060200260200182016040528015610cc557816020015b6040805160c081018252600080825260208083018290529282018190526060808301829052608083019190915260a08201528252600019909201910181610c815790505b50915060005b81811015610847576001600160a01b038416600090815260026020526040812081610cf7846001611bd1565b8152602001908152602001600020549050610d1181610e76565b898881518110610d2357610d23611b1f565b60200260200101516000018a8981518110610d4057610d40611b1f565b60200260200101516020018b8a81518110610d5d57610d5d611b1f565b60200260200101516040018c8b81518110610d7a57610d7a611b1f565b60200260200101516060018d8c81518110610d9757610d97611b1f565b60200260200101516080018e8d81518110610db457610db4611b1f565b602090810291909101015160a001959095529490935260ff948516909352938316905263ffffffff909316909252911690525080610df181611a6e565b915050610ccb565b60005b81811015610e4057610e2e84600960008154610e1790611a6e565b918290555085858581811061061d5761061d611b1f565b80610e3881611a6e565b915050610dfc565b50505050565b60005b81811015610e4057610e6484600960008154610b5990611a6e565b80610e6e81611a6e565b915050610e49565b60008060008060006060610f24600160008981526020019081526020016000208054610ea190611ae5565b80601f0160208091040260200160405190810160405280929190818152602001828054610ecd90611ae5565b8015610f1a5780601f10610eef57610100808354040283529160200191610f1a565b820191906000526020600020905b815481529060010190602001808311610efd57829003601f168201915b5050505050610f38565b949c939b5091995097509550909350915050565b80516001820151600583015160068401516007850151602780870151949593949293919291606091610f6a9082611bea565b6001600160401b03811115610f8157610f8161192b565b6040519080825280601f01601f191660200182016040528015610fab576020820181803683370190505b509150602082016027820360005b81811015610fd457806028018b015181840153600101610fb9565b5050505091939550919395565b60016020526000908152604090208054610ffa90611ae5565b80601f016020809104026020016040519081016040528092919081815260200182805461102690611ae5565b80156110735780601f1061104857610100808354040283529160200191611073565b820191906000526020600020905b81548152906001019060200180831161105657829003601f168201915b505050505081565b6110f88260096000815461108e90611a6e565b91829055506110a06020850185611b55565b6110b06040860160208701611b70565b6110c06060870160408801611b55565b6110d06080880160608901611b55565b60808801356110e260a08a018a611b8b565b6040516020016105029796959493929190611a87565b5050565b60005b81811015610772576111368686868481811061111d5761111d611b1f565b90506020020135858585818110610b7057610b70611b1f565b8061114081611a6e565b9150506110ff565b6111506113a4565b6001600160a01b0381166111b55760405162461bcd60e51b815260206004820152602660248201527f4f776e61626c653a206e6577206f776e657220697320746865207a65726f206160448201526564647265737360d01b60648201526084016108af565b6111be81611403565b50565b6111cc838383611230565b826001600160a01b0316600a54837fdf1fb391c3157eb3593a71fda03f806f05c81bd9d74426918a759f34fd9117a3428560405161120b929190611c36565b60405180910390a4600d805490600061122383611a6e565b9190505550610c2a610949565b6000828152600460205260409020546001600160a01b03161561128e5760405162461bcd60e51b815260206004820152601660248201527558313a2048617368205265636f72642045786973747360501b60448201526064016108af565b600061129982610f38565b506000818152600560205260409020549095506001600160a01b03161593506112f9925050505760405162461bcd60e51b815260206004820152600e60248201526d58313a204b65792045786973747360901b60448201526064016108af565b60008381526001602052604090206113118382611c9d565b506001600160a01b038416600090815260026020908152604080832060039092528220805486939190829061134590611a6e565b9182905550815260208082019290925260409081016000908120939093559482526004815284822080546001600160a01b039097166001600160a01b031997881681179091559282526005905292909220805490931690911790915550565b336113ad610a7c565b6001600160a01b0316146108605760405162461bcd60e51b815260206004820181905260248201527f4f776e61626c653a2063616c6c6572206973206e6f7420746865206f776e657260448201526064016108af565b600080546001600160a01b038381166001600160a01b0319831681178455604051919092169283917f8be0079c531659141344cd1fd0a4f28419497f9722a3daafe3b4186f6b6457e09190a35050565b80356001600160a01b038116811461146a57600080fd5b919050565b6000806040838503121561148257600080fd5b61148b83611453565b946020939093013593505050565b6000815180845260005b818110156114bf576020818501810151868301820152016114a3565b506000602082860101526020601f19601f83011685010191505092915050565b60ff8716815263ffffffff8616602082015260ff8516604082015260ff8416606082015282608082015260c060a0820152600061151f60c0830184611499565b98975050505050505050565b803560ff8116811461146a57600080fd5b803563ffffffff8116811461146a57600080fd5b60008083601f84011261156257600080fd5b5081356001600160401b0381111561157957600080fd5b60208301915083602082850101111561159157600080fd5b9250929050565b60008060008060008060008060e0898b0312156115b457600080fd5b6115bd89611453565b97506115cb60208a0161152b565b96506115d960408a0161153c565b95506115e760608a0161152b565b94506115f560808a0161152b565b935060a0890135925060c08901356001600160401b0381111561161757600080fd5b6116238b828c01611550565b999c989b5096995094979396929594505050565b60008083601f84011261164957600080fd5b5081356001600160401b0381111561166057600080fd5b6020830191508360208260051b850101111561159157600080fd5b60008060008060006060868803121561169357600080fd5b61169c86611453565b945060208601356001600160401b03808211156116b857600080fd5b6116c489838a01611637565b909650945060408801359150808211156116dd57600080fd5b506116ea88828901611637565b969995985093965092949392505050565b60006020828403121561170d57600080fd5b61171682611453565b9392505050565b6020808252825182820181905260009190848201906040850190845b8181101561175557835183529284019291840191600101611739565b50909695505050505050565b60006020828403121561177357600080fd5b5035919050565b6000806000806040858703121561179057600080fd5b84356001600160401b03808211156117a757600080fd5b6117b388838901611637565b909650945060208701359150808211156117cc57600080fd5b506117d987828801611637565b95989497509550505050565b6000806000604084860312156117fa57600080fd5b61180384611453565b925060208401356001600160401b0381111561181e57600080fd5b61182a86828701611550565b9497909650939450505050565b60006020808301818452808551808352604092508286019150828160051b87010184880160005b838110156118d857888303603f190185528151805160ff90811685528882015163ffffffff168986015287820151811688860152606080830151909116908501526080808201519085015260a09081015160c0918501829052906118c481860183611499565b96890196945050509086019060010161185e565b509098975050505050505050565b6000806000604084860312156118fb57600080fd5b61190484611453565b925060208401356001600160401b0381111561191f57600080fd5b61182a86828701611637565b634e487b7160e01b600052604160045260246000fd5b60006020828403121561195357600080fd5b81356001600160401b038082111561196a57600080fd5b818401915084601f83011261197e57600080fd5b8135818111156119905761199061192b565b604051601f8201601f19908116603f011681019083821181831017156119b8576119b861192b565b816040528281528760208487010111156119d157600080fd5b826020860160208301376000928101602001929092525095945050505050565b6020815260006117166020830184611499565b60008060408385031215611a1757600080fd5b611a2083611453565b915060208301356001600160401b03811115611a3b57600080fd5b830160c08186031215611a4d57600080fd5b809150509250929050565b634e487b7160e01b600052601160045260246000fd5b600060018201611a8057611a80611a58565b5060010190565b6001600160f81b031960f889811b821683526001600160e01b031960e08a901b16600184015287811b8216600584015286901b1660068201526007810184905260008284602784013750600091016027019081529695505050505050565b600181811c90821680611af957607f821691505b602082108103611b1957634e487b7160e01b600052602260045260246000fd5b50919050565b634e487b7160e01b600052603260045260246000fd5b6000823560be19833603018112611b4b57600080fd5b9190910192915050565b600060208284031215611b6757600080fd5b6117168261152b565b600060208284031215611b8257600080fd5b6117168261153c565b6000808335601e19843603018112611ba257600080fd5b8301803591506001600160401b03821115611bbc57600080fd5b60200191503681900382131561159157600080fd5b80820180821115611be457611be4611a58565b92915050565b81810381811115611be457611be4611a58565b600082611c1a57634e487b7160e01b600052601260045260246000fd5b500490565b8082028115828204841417611be457611be4611a58565b828152604060208201526000611c4f6040830184611499565b949350505050565b601f821115610c2a57600081815260208120601f850160051c81016020861015611c7e5750805b601f850160051c820191505b8181101561077257828155600101611c8a565b81516001600160401b03811115611cb657611cb661192b565b611cca81611cc48454611ae5565b84611c57565b602080601f831160018114611cff5760008415611ce75750858301515b600019600386901b1c1916600185901b178555610772565b600085815260208120601f198616915b82811015611d2e57888601518255948401946001909101908401611d0f565b5085821015611d4c5787850151600019600388901b60f8161c191681555b5050505050600190811b0190555056fea26469706673582212208447a8a363d63535a0621f7ffeb3f2f6c3891537bfdbbc85d40d92db6a5e5d8664736f6c63430008140033",
  "immutableReferences": {},
  "source": "// SPDX-License-Identifier: MIT\npragma solidity ^0.8.20;\npragma abicoder v2;  // Enable ABI coder v2\n\nimport \"@openzeppelin/contracts/access/Ownable.sol\";\n\ncontract BlockStorage is Ownable {\n    struct HashRecord {\n        uint8 c;\n        uint32 m;\n        uint8 t;\n        uint8 v;\n        bytes32 k;\n        bytes s;\n    }\n\n    uint256 public constant TARGET_BLOCK_TIME_S = 1;\n    uint256 public constant DIFFICULTY_ADJUSTMENT = 2_000;\n\n    // hash ID => hash record\n    mapping(uint256 => bytes) public hashRecords;\n    // address => idx => hash ID\n    mapping(address => mapping(uint256 => uint256)) public hashIdsByAddress;\n    // address => record counter\n    mapping(address => uint256) public recordCount;\n    // hash ID => account address\n    mapping(uint256 => address) public addressesByHashId;\n    // key => account address\n    mapping(bytes32 => address) public addressesByKey;\n    // hourly timestamp => hash ID => account address\n    // mapping(uint256 => mapping(uint256 => address)) public hourlyRecords;\n\n    uint256 public variance = 20;               // is set in constructor\n    uint256 public epochDurationSec = 600;      // is set by authority\n    // uint256 public epochDurationSec = 3_600;       // is set by authority\n    uint256 public targetDifficulty = 100_000;  // is set by authority\n    uint256 public currentHashId;               // increments with each new Hash\n    uint256 public currentEpoch;                // increments every epoch\n    uint256 public currentEpochTs;              // is set every epoch\n    uint256 public difficulty;                  // ie set every epoch\n    uint256 public epochHashCounter;            // resets every epoch\n\n    constructor(uint256 _currentEpoch, uint256 _difficulty, uint256 _variance) {\n        currentEpoch = _currentEpoch > 0 ? _currentEpoch : 1;\n        difficulty = _difficulty > 0 ? _difficulty : targetDifficulty;\n        currentEpochTs = block.timestamp;\n        variance = _variance > 0 ? _variance : variance;\n    }\n\n    event NewHash(uint256 indexed hashId, uint256 indexed epoch, address indexed account, uint256 ts, bytes _bytes);\n    event NewEpoch(uint256 indexed epoch, uint256 difficulty, uint256 ts);\n    event EpochDurationSet(uint256 indexed epoch, uint256 indexed duration);\n    event TargetDifficultySet(uint256 indexed epoch, uint256 indexed difficulty);\n\n    function setEpochDurationSec(uint256 _epochDurationSec) external onlyOwner {\n        require(_epochDurationSec > 0, 'X1: Illegal Epoch Duration');\n        epochDurationSec = _epochDurationSec;\n        emit EpochDurationSet(currentEpoch, _epochDurationSec);\n    }\n\n    function setTargetDifficulty(uint256 _targetDifficulty) external onlyOwner {\n        require(_targetDifficulty > 0, 'X1: Illegal Difficulty');\n        targetDifficulty = _targetDifficulty;\n    }\n\n    function doHousekeeping() public {\n        if (block.timestamp - currentEpochTs > epochDurationSec) {\n            currentEpochTs = block.timestamp;\n            currentEpoch++;\n            uint256 targetHashCount = epochDurationSec / TARGET_BLOCK_TIME_S;\n            uint256 lowerBound = targetHashCount * (100 - variance) / 100;\n            uint256 upperBound = targetHashCount * (100 + variance) / 100;\n            if (epochHashCounter < lowerBound) {\n                difficulty -= DIFFICULTY_ADJUSTMENT;\n            } else if (epochHashCounter > upperBound) {\n                difficulty += DIFFICULTY_ADJUSTMENT;\n            }\n            epochHashCounter = 0;\n            emit NewEpoch(currentEpoch, difficulty, currentEpochTs);\n        }\n    }\n\n    function _storeRecord(address _address, uint256 _hashId, bytes memory _bytes) internal {\n        require(addressesByHashId[_hashId] == address(0), 'X1: Hash Record Exists');\n        ( , , , , bytes32 k, ) = decodeRecordBytes(_bytes);\n        require(addressesByKey[k] == address(0), 'X1: Key Exists');\n\n        hashRecords[_hashId] = _bytes;\n        hashIdsByAddress[_address][++recordCount[_address]] = _hashId;\n        addressesByHashId[_hashId] = _address;\n        addressesByKey[k] = _address;\n    }\n\n    function _storeNewRecord(address _address, uint256 _hashId, bytes memory _bytes) internal {\n        _storeRecord(_address, _hashId, _bytes);\n        emit NewHash(_hashId, currentEpoch, _address, block.timestamp, _bytes);\n        epochHashCounter++;\n        // this is done as the last step to avoid using new epoch values\n        doHousekeeping();   // check / start new epoch if required\n    }\n\n    function storeNewRecord(address _address, HashRecord calldata r) external {\n        _storeNewRecord(_address, ++currentHashId, abi.encodePacked(r.c, r.m, r.t, r.v, r.k, r.s));\n    }\n\n    function storeNewRecordData(address _address, uint8 c, uint32 m, uint8 t, uint8 v, bytes32 k, bytes calldata s) external {\n        _storeNewRecord(_address, ++currentHashId, abi.encodePacked(c, m, t, v, k, s));\n    }\n\n    function storeNewRecordBytes(address _address, bytes calldata _bytes) external {\n        _storeNewRecord(_address, ++currentHashId, _bytes);\n    }\n\n    function bulkStoreRecordsInc(address _address, HashRecord[] calldata hh) external {\n        for (uint i = 0; i < hh.length; i++) {\n            _storeRecord(_address, ++currentHashId, abi.encodePacked(hh[i].c, hh[i].m, hh[i].t, hh[i].v, hh[i].k, hh[i].s));\n        }\n    }\n\n    function bulkStoreFullRecordsInc(address[] calldata addresses, bytes[] calldata bb) external {\n        require(addresses.length == bb.length, 'X1: Array Length Mismatch');\n        require(addresses.length > 0, 'X1: Empty Array');\n        for (uint i = 0; i < bb.length; i++) {\n            _storeRecord(addresses[i], ++currentHashId, bb[i]);\n        }\n    }\n\n    function bulkStoreRecordBytesInc(address _address, bytes[] calldata bb) external {\n        for (uint i = 0; i < bb.length; i++) {\n            _storeRecord(_address, ++currentHashId, bb[i]);\n        }\n    }\n\n    function bulkStoreRecords(address _address, uint256[] calldata _hasIds, HashRecord[] calldata hh) external {\n        for (uint i = 0; i < hh.length; i++) {\n            _storeRecord(_address, _hasIds[i], abi.encodePacked(hh[i].c, hh[i].m, hh[i].t, hh[i].v, hh[i].k, hh[i].s));\n        }\n    }\n\n    function bulkStoreRecordBytes(address _address, uint256[] calldata _hasIds, bytes[] calldata bb) external {\n        for (uint i = 0; i < bb.length; i++) {\n            _storeRecord(_address, _hasIds[i], bb[i]);\n        }\n    }\n\n    function getBytesLen(address _address, uint256 _index) external view returns (uint len) {\n        bytes memory _data = hashRecords[hashIdsByAddress[_address][_index]];\n        assembly {\n            len := mload(_data)\n        }\n    }\n\n    function decodeRecordBytes(bytes memory _data)\n        public\n        pure\n        returns (uint8 c, uint32 m, uint8 t, uint8 v, bytes32 k, bytes memory s)\n    {\n        uint len;\n        assembly {\n            len := mload(_data)\n            c := mload(add(_data, 1))\n            m := mload(add(_data, 5))\n            t := mload(add(_data, 6))\n            v := mload(add(_data, 7))\n            k := mload(add(_data, 39))\n        }\n        s = new bytes(len - 39);\n        assembly {\n        // Skip the first 32 bytes reserved for the length of the memory array\n            let offset := add(s, 0x20)\n            let count := sub(len, 39)\n            for { let i := 0} lt(i, count) { i := add(i, 1) } {\n                mstore8(add(offset, i), mload(add(_data, add(40, i))))\n            }\n        }\n    }\n\n    function decodeRecordBytes(uint256 _hashId)\n        public\n        view\n        returns (uint8 c, uint32 m, uint8 t, uint8 v, bytes32 k, bytes memory s)\n    {\n        return decodeRecordBytes(hashRecords[_hashId]);\n    }\n\n    function decodeRecordBytes(address _address, uint256 _idx)\n        public\n        view\n        returns (uint8 c, uint32 m, uint8 t, uint8 v, bytes32 k, bytes memory s)\n    {\n        return decodeRecordBytes(hashIdsByAddress[_address][_idx]);\n    }\n\n    function getHashIdsByAddress(address _address) public view returns (uint256[] memory ids) {\n        uint256 count = recordCount[_address];\n        ids = new uint256[](count);\n        for (uint i = 0; i < count; i++) {\n            ids[i] = hashIdsByAddress[_address][i+1];\n        }\n    }\n\n    function getRecordsByAddress(address _address) public view returns (HashRecord[] memory recs) {\n        uint256 count = recordCount[_address];\n        recs = new HashRecord[](count);\n        for (uint i = 0; i < count; i++) {\n            uint256 hashId = hashIdsByAddress[_address][i+1];\n            (recs[i].c, recs[i].m, recs[i].t, recs[i].v, recs[i].k, recs[i].s) = decodeRecordBytes(hashId);\n        }\n    }\n}\n",
  "sourcePath": "/Users/lbelyaev/dev/x1-block-storage/contracts/BlockStorage.sol",
  "compiler": {
    "name": "solc",
    "version": "0.8.20+commit.a1b79de6.Emscripten.clang"
  },
  "schemaVersion": "3.4.16",
  "updatedAt": "2023-12-15T00:26:43.572Z",
  "networkType": "ethereum",
  "devdoc": {
    "kind": "dev",
    "methods": {
      "owner()": {
        "details": "Returns the address of the current owner."
      },
      "renounceOwnership()": {
        "details": "Leaves the contract without owner. It will not be possible to call `onlyOwner` functions. Can only be called by the current owner. NOTE: Renouncing ownership will leave the contract without an owner, thereby disabling any functionality that is only available to the owner."
      },
      "transferOwnership(address)": {
        "details": "Transfers ownership of the contract to a new account (`newOwner`). Can only be called by the current owner."
      }
    },
    "version": 1
  },
  "userdoc": {
    "kind": "user",
    "methods": {},
    "version": 1
  }
}