{
  "contractName": "BlockStorage",
  "abi": [
    {
      "inputs": [
        {
          "internalType": "uint256",
          "name": "_difficulty",
          "type": "uint256"
        }
      ],
      "stateMutability": "nonpayable",
      "type": "constructor"
    },
    {
      "anonymous": false,
      "inputs": [
        {
          "indexed": false,
          "internalType": "uint256",
          "name": "reward",
          "type": "uint256"
        },
        {
          "indexed": false,
          "internalType": "uint256",
          "name": "ts",
          "type": "uint256"
        }
      ],
      "name": "BaseRewardSet",
      "type": "event"
    },
    {
      "anonymous": false,
      "inputs": [
        {
          "indexed": true,
          "internalType": "uint256",
          "name": "adjustment",
          "type": "uint256"
        },
        {
          "indexed": false,
          "internalType": "uint256",
          "name": "ts",
          "type": "uint256"
        }
      ],
      "name": "DifficultyAdjustmentSet",
      "type": "event"
    },
    {
      "anonymous": false,
      "inputs": [
        {
          "indexed": true,
          "internalType": "uint256",
          "name": "difficulty",
          "type": "uint256"
        },
        {
          "indexed": false,
          "internalType": "uint256",
          "name": "ts",
          "type": "uint256"
        }
      ],
      "name": "DifficultySet",
      "type": "event"
    },
    {
      "anonymous": false,
      "inputs": [
        {
          "indexed": true,
          "internalType": "uint256",
          "name": "recordType",
          "type": "uint256"
        },
        {
          "indexed": false,
          "internalType": "uint256",
          "name": "tsStart",
          "type": "uint256"
        },
        {
          "indexed": false,
          "internalType": "uint256",
          "name": "tsEnd",
          "type": "uint256"
        },
        {
          "indexed": false,
          "internalType": "uint256",
          "name": "count",
          "type": "uint256"
        },
        {
          "indexed": false,
          "internalType": "bytes32",
          "name": "hash",
          "type": "bytes32"
        }
      ],
      "name": "HashLog",
      "type": "event"
    },
    {
      "anonymous": false,
      "inputs": [
        {
          "indexed": true,
          "internalType": "uint256",
          "name": "difficulty",
          "type": "uint256"
        },
        {
          "indexed": false,
          "internalType": "uint256",
          "name": "tsStart",
          "type": "uint256"
        },
        {
          "indexed": false,
          "internalType": "uint256",
          "name": "tsEnd",
          "type": "uint256"
        }
      ],
      "name": "NewDifficulty",
      "type": "event"
    },
    {
      "anonymous": false,
      "inputs": [
        {
          "indexed": true,
          "internalType": "uint256",
          "name": "recordType",
          "type": "uint256"
        },
        {
          "indexed": false,
          "internalType": "uint256",
          "name": "tsStart",
          "type": "uint256"
        },
        {
          "indexed": false,
          "internalType": "uint256",
          "name": "tsEnd",
          "type": "uint256"
        },
        {
          "indexed": false,
          "internalType": "uint256",
          "name": "count",
          "type": "uint256"
        },
        {
          "indexed": false,
          "internalType": "bytes32",
          "name": "hash",
          "type": "bytes32"
        }
      ],
      "name": "NewHashLog",
      "type": "event"
    },
    {
      "anonymous": false,
      "inputs": [
        {
          "indexed": true,
          "internalType": "address",
          "name": "previousOwner",
          "type": "address"
        },
        {
          "indexed": true,
          "internalType": "address",
          "name": "newOwner",
          "type": "address"
        }
      ],
      "name": "OwnershipTransferred",
      "type": "event"
    },
    {
      "anonymous": false,
      "inputs": [
        {
          "indexed": false,
          "internalType": "address",
          "name": "account",
          "type": "address"
        }
      ],
      "name": "Paused",
      "type": "event"
    },
    {
      "anonymous": false,
      "inputs": [
        {
          "indexed": false,
          "internalType": "address",
          "name": "account",
          "type": "address"
        }
      ],
      "name": "Unpaused",
      "type": "event"
    },
    {
      "anonymous": false,
      "inputs": [
        {
          "indexed": true,
          "internalType": "uint256",
          "name": "variance",
          "type": "uint256"
        },
        {
          "indexed": false,
          "internalType": "uint256",
          "name": "ts",
          "type": "uint256"
        }
      ],
      "name": "VarianceSet",
      "type": "event"
    },
    {
      "inputs": [],
      "name": "AUTHORS",
      "outputs": [
        {
          "internalType": "string",
          "name": "",
          "type": "string"
        }
      ],
      "stateMutability": "view",
      "type": "function"
    },
    {
      "inputs": [],
      "name": "BASE_REWARD",
      "outputs": [
        {
          "internalType": "uint256",
          "name": "",
          "type": "uint256"
        }
      ],
      "stateMutability": "view",
      "type": "function"
    },
    {
      "inputs": [],
      "name": "BASE_REWARD_INTERVAL_S",
      "outputs": [
        {
          "internalType": "uint256",
          "name": "",
          "type": "uint256"
        }
      ],
      "stateMutability": "view",
      "type": "function"
    },
    {
      "inputs": [],
      "name": "DEFAULT_DIFFICULTY",
      "outputs": [
        {
          "internalType": "uint256",
          "name": "",
          "type": "uint256"
        }
      ],
      "stateMutability": "view",
      "type": "function"
    },
    {
      "inputs": [],
      "name": "GENESIS_TS",
      "outputs": [
        {
          "internalType": "uint256",
          "name": "",
          "type": "uint256"
        }
      ],
      "stateMutability": "view",
      "type": "function"
    },
    {
      "inputs": [],
      "name": "GENESIS_TWEET",
      "outputs": [
        {
          "internalType": "string",
          "name": "",
          "type": "string"
        }
      ],
      "stateMutability": "view",
      "type": "function"
    },
    {
      "inputs": [],
      "name": "TARGET_BLOCK_TIME_S",
      "outputs": [
        {
          "internalType": "uint256",
          "name": "",
          "type": "uint256"
        }
      ],
      "stateMutability": "view",
      "type": "function"
    },
    {
      "inputs": [],
      "name": "currentReward",
      "outputs": [
        {
          "internalType": "uint256",
          "name": "",
          "type": "uint256"
        }
      ],
      "stateMutability": "view",
      "type": "function"
    },
    {
      "inputs": [],
      "name": "currentRewardTs",
      "outputs": [
        {
          "internalType": "uint256",
          "name": "",
          "type": "uint256"
        }
      ],
      "stateMutability": "view",
      "type": "function"
    },
    {
      "inputs": [],
      "name": "difficulty",
      "outputs": [
        {
          "internalType": "uint256",
          "name": "",
          "type": "uint256"
        }
      ],
      "stateMutability": "view",
      "type": "function"
    },
    {
      "inputs": [],
      "name": "difficultyAdjustment",
      "outputs": [
        {
          "internalType": "uint256",
          "name": "",
          "type": "uint256"
        }
      ],
      "stateMutability": "view",
      "type": "function"
    },
    {
      "inputs": [],
      "name": "owner",
      "outputs": [
        {
          "internalType": "address",
          "name": "",
          "type": "address"
        }
      ],
      "stateMutability": "view",
      "type": "function"
    },
    {
      "inputs": [],
      "name": "paused",
      "outputs": [
        {
          "internalType": "bool",
          "name": "",
          "type": "bool"
        }
      ],
      "stateMutability": "view",
      "type": "function"
    },
    {
      "inputs": [],
      "name": "renounceOwnership",
      "outputs": [],
      "stateMutability": "nonpayable",
      "type": "function"
    },
    {
      "inputs": [
        {
          "internalType": "address",
          "name": "newOwner",
          "type": "address"
        }
      ],
      "name": "transferOwnership",
      "outputs": [],
      "stateMutability": "nonpayable",
      "type": "function"
    },
    {
      "inputs": [],
      "name": "variance",
      "outputs": [
        {
          "internalType": "uint256",
          "name": "",
          "type": "uint256"
        }
      ],
      "stateMutability": "view",
      "type": "function"
    },
    {
      "inputs": [
        {
          "internalType": "uint256",
          "name": "_variance",
          "type": "uint256"
        }
      ],
      "name": "setVariance",
      "outputs": [],
      "stateMutability": "nonpayable",
      "type": "function"
    },
    {
      "inputs": [
        {
          "internalType": "uint256",
          "name": "_difficulty",
          "type": "uint256"
        }
      ],
      "name": "setDifficulty",
      "outputs": [],
      "stateMutability": "nonpayable",
      "type": "function"
    },
    {
      "inputs": [
        {
          "internalType": "uint256",
          "name": "_difficultyAdjustment",
          "type": "uint256"
        }
      ],
      "name": "setDifficultyAdjustment",
      "outputs": [],
      "stateMutability": "nonpayable",
      "type": "function"
    },
    {
      "inputs": [],
      "name": "lockDifficulty",
      "outputs": [],
      "stateMutability": "nonpayable",
      "type": "function"
    },
    {
      "inputs": [],
      "name": "unlockDifficulty",
      "outputs": [],
      "stateMutability": "nonpayable",
      "type": "function"
    },
    {
      "inputs": [],
      "name": "doHousekeeping",
      "outputs": [],
      "stateMutability": "nonpayable",
      "type": "function"
    },
    {
      "inputs": [
        {
          "internalType": "uint256",
          "name": "recordType",
          "type": "uint256"
        },
        {
          "internalType": "uint256",
          "name": "tsStart",
          "type": "uint256"
        },
        {
          "internalType": "uint256",
          "name": "tsEnd",
          "type": "uint256"
        },
        {
          "internalType": "uint256",
          "name": "count",
          "type": "uint256"
        },
        {
          "internalType": "bytes",
          "name": "blob",
          "type": "bytes"
        }
      ],
      "name": "logStoreRecords",
      "outputs": [],
      "stateMutability": "nonpayable",
      "type": "function"
    },
    {
      "inputs": [
        {
          "internalType": "uint256",
          "name": "recordType",
          "type": "uint256"
        },
        {
          "internalType": "uint256",
          "name": "tsStart",
          "type": "uint256"
        },
        {
          "internalType": "uint256",
          "name": "tsEnd",
          "type": "uint256"
        },
        {
          "internalType": "uint256",
          "name": "count",
          "type": "uint256"
        },
        {
          "internalType": "bytes",
          "name": "blob",
          "type": "bytes"
        }
      ],
      "name": "logStoreNewRecords",
      "outputs": [],
      "stateMutability": "nonpayable",
      "type": "function"
    },
    {
      "inputs": [
        {
          "internalType": "bytes",
          "name": "_data",
          "type": "bytes"
        }
      ],
      "name": "decodeRecordBytes",
      "outputs": [
        {
          "internalType": "uint8",
          "name": "c",
          "type": "uint8"
        },
        {
          "internalType": "uint32",
          "name": "m",
          "type": "uint32"
        },
        {
          "internalType": "uint8",
          "name": "t",
          "type": "uint8"
        },
        {
          "internalType": "uint8",
          "name": "v",
          "type": "uint8"
        },
        {
          "internalType": "bytes32",
          "name": "k",
          "type": "bytes32"
        },
        {
          "internalType": "bytes",
          "name": "s",
          "type": "bytes"
        }
      ],
      "stateMutability": "pure",
      "type": "function"
    }
  ],
  "bytecode": "0x608060405260146001556107d0600255678ac7230489e800006003556364facf5a60045534801561002f57600080fd5b50604051610fff380380610fff83398101604081905261004e916100cd565b6100573361007d565b6000805460ff60a01b191690558061007257620186a0610074565b805b600555506100e6565b600080546001600160a01b038381166001600160a01b0319831681178455604051919092169283917f8be0079c531659141344cd1fd0a4f28419497f9722a3daafe3b4186f6b6457e09190a35050565b6000602082840312156100df57600080fd5b5051919050565b610f0a806100f56000396000f3fe608060405234801561001057600080fd5b50600436106101335760003560e01c806301595fa61461013857806307621eca146101425780630ff99d591461015e57806315d934ce1461016657806319cae4621461017157806322009af61461017a5780634d376aee14610189578063575758261461019e5780635c975abb146101b1578063602512e1146101c9578063609be203146101dc578063646e1c4f146101e6578063715018a6146101ee5780637aa79bbb146101f657806385ae2fb7146102095780638da5cb5b146102115780639573b00514610226578063a23c0f5014610239578063b61e88781461024c578063ba3ec74114610257578063d7580ce914610282578063ebce4b73146102a7578063f1d46f37146102b0578063f2fde38b146102b9578063f6a19765146102cc575b600080fd5b6101406102d5565b005b61014b60035481565b6040519081526020015b60405180910390f35b61014b600181565b61014b6301e1338081565b61014b60055481565b61014b678ac7230489e8000081565b6101916102e7565b6040516101559190610b5f565b6101406101ac366004610b79565b610303565b6101b96103b5565b6040519015158152602001610155565b6101406101d7366004610b79565b6103c5565b61014b620186a081565b61014061044d565b61014061045d565b610140610204366004610b92565b61046f565b610140610548565b6102196105c7565b6040516101559190610c29565b610140610234366004610b92565b6105d6565b610140610247366004610b79565b61068e565b61014b6364facf5a81565b6101916040518060400160405280600c81526020016b2036b92530b1b5a632bb34b760a11b81525081565b610295610290366004610c53565b610720565b60405161015596959493929190610d03565b61014b60025481565b61014b60015481565b6101406102c7366004610d4f565b6107c9565b61014b60045481565b6102dd610842565b6102e56108a1565b565b6040518060600160405280603a8152602001610e9b603a913981565b61030b610842565b60008111801561031c575060055481105b6103775760405162461bcd60e51b815260206004820152602160248201527f58313a20496c6c6567616c20446966666963756c74792041646a7573746d656e6044820152601d60fa1b60648201526084015b60405180910390fd5b600281905560405142815281907f2386d27d6c3a89c92557fca46ac41c3a131e71b99e04908acdde2bbb0ab17f9a906020015b60405180910390a250565b600054600160a01b900460ff1690565b6103cd610842565b600081116104165760405162461bcd60e51b815260206004820152601660248201527558313a20496c6c6567616c20446966666963756c747960501b604482015260640161036e565b600581905560405142815281907f2086182ef482268c2e7f9aed67ed5399338ff8b1404f76c15e9da3bd531a77cd906020016103aa565b610455610842565b6102e56108f1565b610465610842565b6102e5600061092d565b6000831161048f5760405162461bcd60e51b815260040161036e90610d78565b806104ac5760405162461bcd60e51b815260040161036e90610daf565b84841180156104bb5750600085115b6104d75760405162461bcd60e51b815260040161036e90610ddf565b6104df610548565b857f40f74fc6098533cf12c25f841c390e43f1c7cd67c50e6c5b384c476030716dcb8686868686604051610514929190610e0f565b60408051918290038220948252602082019390935291820152606081019190915260800160405180910390a2505050505050565b6301e133806004544261055b9190610e35565b11156102e5574260048190555060026003600082825461057b9190610e4e565b90915550506003546004546040517fad8979134e7bc97d37f4e08ab2bca56084023a703c155aec67f879e0322f29c6926105bd92908252602082015260400190565b60405180910390a1565b6000546001600160a01b031690565b600083116105f65760405162461bcd60e51b815260040161036e90610d78565b806106135760405162461bcd60e51b815260040161036e90610daf565b84841180156106225750600085115b61063e5760405162461bcd60e51b815260040161036e90610ddf565b856000036106515761065185858561097d565b610659610548565b857fde994ebfa230df436f856f02bf9cde2b55deca02f024be1726481bfcaeb6d1958686868686604051610514929190610e0f565b610696610842565b6000811180156106a65750606481105b6106e95760405162461bcd60e51b815260206004820152601460248201527358313a20496c6c6567616c2056617269616e636560601b604482015260640161036e565b600181905560405142815281907f4c117fcbe5db4ee332d07bd8d92745c661603d8acac907ce8ec800ca225789f2906020016103aa565b805160018201516005830151600684015160078501516027808701519495939492939192916060916107529082610e35565b6001600160401b0381111561076957610769610c3d565b6040519080825280601f01601f191660200182016040528015610793576020820181803683370190505b509150602082016027820360005b818110156107bc57806028018b0151818401536001016107a1565b5050505091939550919395565b6107d1610842565b6001600160a01b0381166108365760405162461bcd60e51b815260206004820152602660248201527f4f776e61626c653a206e6577206f776e657220697320746865207a65726f206160448201526564647265737360d01b606482015260840161036e565b61083f8161092d565b50565b3361084b6105c7565b6001600160a01b0316146102e55760405162461bcd60e51b815260206004820181905260248201527f4f776e61626c653a2063616c6c6572206973206e6f7420746865206f776e6572604482015260640161036e565b6108a9610a86565b6000805460ff60a01b1916600160a01b1790557f62e78cea01bee320cd4e420270b5ea74000d11b0c9f74754ebdbfc544b05a2586108e43390565b6040516105bd9190610c29565b6108f9610ace565b6000805460ff60a01b191690557f5db9ee0a495bf2e6ff9c91a7834c1ba4fdd244a5e8aa4e537bd38aeae4b073aa336108e4565b600080546001600160a01b038381166001600160a01b0319831681178455604051919092169283917f8be0079c531659141344cd1fd0a4f28419497f9722a3daafe3b4186f6b6457e09190a35050565b6109856103b5565b1561098f57505050565b600061099c600183610e70565b6109a68585610e35565b6005546109b39190610e70565b6109bd9190610e4e565b90506002546005546109cf9190610e35565b8110156109f557600254600560008282546109ea9190610e35565b90915550610a449050565b600554811015610a09576005819055610a44565b600254600554610a199190610e87565b811115610a3457600254600560008282546109ea9190610e87565b600554811115610a445760058190555b60055460408051868152602081018690527fcbd000265073361704b1b035e0727cbb1eaa5cdbac6aa9e911325949d8eab733910160405180910390a250505050565b610a8e6103b5565b156102e55760405162461bcd60e51b815260206004820152601060248201526f14185d5cd8589b194e881c185d5cd95960821b604482015260640161036e565b610ad66103b5565b6102e55760405162461bcd60e51b815260206004820152601460248201527314185d5cd8589b194e881b9bdd081c185d5cd95960621b604482015260640161036e565b6000815180845260005b81811015610b3f57602081850181015186830182015201610b23565b506000602082860101526020601f19601f83011685010191505092915050565b602081526000610b726020830184610b19565b9392505050565b600060208284031215610b8b57600080fd5b5035919050565b60008060008060008060a08789031215610bab57600080fd5b8635955060208701359450604087013593506060870135925060808701356001600160401b0380821115610bde57600080fd5b818901915089601f830112610bf257600080fd5b813581811115610c0157600080fd5b8a6020828501011115610c1357600080fd5b6020830194508093505050509295509295509295565b6001600160a01b0391909116815260200190565b634e487b7160e01b600052604160045260246000fd5b600060208284031215610c6557600080fd5b81356001600160401b0380821115610c7c57600080fd5b818401915084601f830112610c9057600080fd5b813581811115610ca257610ca2610c3d565b604051601f8201601f19908116603f01168101908382118183101715610cca57610cca610c3d565b81604052828152876020848701011115610ce357600080fd5b826020860160208301376000928101602001929092525095945050505050565b60ff8716815263ffffffff8616602082015260ff8516604082015260ff8416606082015282608082015260c060a08201526000610d4360c0830184610b19565b98975050505050505050565b600060208284031215610d6157600080fd5b81356001600160a01b0381168114610b7257600080fd5b6020808252601f908201527f58313a205265636f726420636f756e742063616e6e6f74206265207a65726f00604082015260600190565b60208082526016908201527558313a205265636f726420627974657320656d70747960501b604082015260600190565b60208082526016908201527558313a20496c6c6567616c2054696d657374616d707360501b604082015260600190565b8183823760009101908152919050565b634e487b7160e01b600052601160045260246000fd5b81810381811115610e4857610e48610e1f565b92915050565b600082610e6b57634e487b7160e01b600052601260045260246000fd5b500490565b8082028115828204841417610e4857610e48610e1f565b80820180821115610e4857610e48610e1f56fe68747470733a2f2f747769747465722e636f6d2f6d724a61636b4c6576696e2f7374617475732f31373030303530383435353632353135353137a2646970667358221220892cb92b5975e5ff154707f11ec4f890f3f0f3013e0a05c6350aea5b04aac3cc64736f6c63430008140033",
  "immutableReferences": {},
  "source": "// SPDX-License-Identifier: MIT\npragma solidity ^0.8.20;\npragma abicoder v2;  // Enable ABI coder v2\n\nimport \"@openzeppelin/contracts/access/Ownable.sol\";\nimport \"@openzeppelin/contracts/security/Pausable.sol\";\n\ncontract BlockStorage is Ownable, Pausable {\n    struct HashRecord {\n        uint8 c;\n        uint32 m;\n        uint8 t;\n        uint8 v;\n        bytes32 k;\n        bytes s;\n    }\n\n    uint256 public constant BASE_REWARD = 10 ether;\n    uint256 public constant BASE_REWARD_INTERVAL_S = 365 * 24 * 60 * 60;\n    uint256 public constant TARGET_BLOCK_TIME_S = 1;\n    uint256 public constant DEFAULT_DIFFICULTY = 100_000;\n    uint256 public constant GENESIS_TS = 1694158682; // 2023-09-08T07:38:01.656Z\n    string public constant GENESIS_TWEET = 'https://twitter.com/mrJackLevin/status/1700050845562515517';\n    string public constant AUTHORS = '@mrJackLevin';\n\n    // params settable by the authority\n    uint256 public variance = 20;\n    uint256 public difficultyAdjustment = 2_000;\n\n    uint256 public currentReward = BASE_REWARD;     // halves every 365 days\n    uint256 public currentRewardTs = GENESIS_TS;    // is set every 365 days\n    uint256 public difficulty;                      // is adjusted with every new batch\n\n    constructor(uint256 _difficulty) {\n        difficulty = _difficulty > 0 ? _difficulty : DEFAULT_DIFFICULTY;\n    }\n\n    event HashLog(uint256 indexed recordType, uint256 tsStart, uint256 tsEnd, uint256 count, bytes32 hash);\n    event NewHashLog(uint256 indexed recordType, uint256 tsStart, uint256 tsEnd, uint256 count, bytes32 hash);\n    event NewDifficulty(uint256 indexed difficulty, uint256 tsStart, uint256 tsEnd);\n\n    event BaseRewardSet(uint256 reward, uint256 ts);\n\n    event VarianceSet(uint256 indexed variance, uint256 ts);\n    event DifficultySet(uint256 indexed difficulty, uint256 ts);\n    event DifficultyAdjustmentSet(uint256 indexed adjustment, uint256 ts);\n\n    function setVariance(uint256 _variance) external onlyOwner {\n        require(_variance > 0 && _variance < 100, 'X1: Illegal Variance');\n        variance = _variance;\n        emit VarianceSet(_variance, block.timestamp);\n    }\n\n    function setDifficulty(uint256 _difficulty) external onlyOwner {\n        require(_difficulty > 0, 'X1: Illegal Difficulty');\n        difficulty = _difficulty;\n        emit DifficultySet(_difficulty, block.timestamp);\n    }\n\n    function setDifficultyAdjustment(uint256 _difficultyAdjustment) external onlyOwner {\n        require(_difficultyAdjustment > 0 && _difficultyAdjustment < difficulty, 'X1: Illegal Difficulty Adjustment');\n        difficultyAdjustment = _difficultyAdjustment;\n        emit DifficultyAdjustmentSet(_difficultyAdjustment, block.timestamp);\n    }\n\n    function lockDifficulty() external onlyOwner {\n        _pause();\n    }\n\n    function unlockDifficulty() external onlyOwner {\n        _unpause();\n    }\n\n    /*\n        @dev Internal utility for adjusting difficulty\n    */\n    function _calcAndAdjustDifficulty(uint256 tsStart, uint256 tsEnd, uint256 count) internal {\n        if (paused()) return;\n\n        uint256 newDifficulty = difficulty * (tsEnd - tsStart) / (count * TARGET_BLOCK_TIME_S);\n        if (newDifficulty < difficulty - difficultyAdjustment) {\n            difficulty -= difficultyAdjustment;\n        } else if (newDifficulty < difficulty) {\n            difficulty = newDifficulty;\n        } else if (newDifficulty > difficulty + difficultyAdjustment) {\n            difficulty += difficultyAdjustment;\n        } else if (newDifficulty > difficulty) {\n            difficulty = newDifficulty;\n        }\n        emit NewDifficulty(difficulty, tsStart, tsEnd);\n    }\n\n    /*\n        @dev Public utility for good housekeeping\n    */\n    function doHousekeeping() public {\n        if (block.timestamp - currentRewardTs > BASE_REWARD_INTERVAL_S) {\n            currentRewardTs = block.timestamp;\n            currentReward /= 2;\n            emit BaseRewardSet(currentReward, currentRewardTs);\n        }\n    }\n\n    /*\n        @dev Submit back-stored records data\n    */\n    function logStoreRecords(\n        uint256 recordType,\n        uint256 tsStart,\n        uint256 tsEnd,\n        uint256 count,\n        bytes calldata blob\n    ) external {\n        require(count > 0, 'X1: Record count cannot be zero');\n        require(blob.length > 0, 'X1: Record bytes empty');\n        require(tsEnd > tsStart && tsStart > 0, 'X1: Illegal Timestamps');\n\n        doHousekeeping();\n        emit HashLog(recordType, tsStart, tsEnd, count, keccak256(blob));\n    }\n\n    function logStoreNewRecords(\n        uint256 recordType,\n        uint256 tsStart,\n        uint256 tsEnd,\n        uint256 count,\n        bytes calldata blob\n    ) external {\n        require(count > 0, 'X1: Record count cannot be zero');\n        require(blob.length > 0, 'X1: Record bytes empty');\n        require(tsEnd > tsStart && tsStart > 0, 'X1: Illegal Timestamps');\n\n        if (recordType == 0) {\n            // only for hashes, not xunis\n            _calcAndAdjustDifficulty(tsStart, tsEnd, count);\n        }\n        doHousekeeping();\n        emit NewHashLog(recordType, tsStart, tsEnd, count, keccak256(blob));\n    }\n\n    /*\n        Public interface\n        @dev decode a record stored as bytes into discrete params\n    */\n    function decodeRecordBytes(bytes memory _data)\n        public\n        pure\n        returns (uint8 c, uint32 m, uint8 t, uint8 v, bytes32 k, bytes memory s)\n    {\n        uint len;\n        assembly {\n            len := mload(_data)\n            c := mload(add(_data, 1))\n            m := mload(add(_data, 5))\n            t := mload(add(_data, 6))\n            v := mload(add(_data, 7))\n            k := mload(add(_data, 39))\n        }\n        s = new bytes(len - 39);\n        assembly {\n            // Skip the first 32 bytes reserved for the length of the memory array\n            let offset := add(s, 0x20)\n            let count := sub(len, 39)\n            for { let i := 0} lt(i, count) { i := add(i, 1) } {\n                mstore8(add(offset, i), mload(add(_data, add(40, i))))\n            }\n        }\n    }\n\n}\n",
  "sourcePath": "/Users/lbelyaev/dev/x1-block-storage/contracts/BlockStorage.sol",
  "compiler": {
    "name": "solc",
    "version": "0.8.20+commit.a1b79de6.Emscripten.clang"
  },
  "schemaVersion": "3.4.16",
  "updatedAt": "2024-01-18T02:11:09.987Z",
  "devdoc": {
    "events": {
      "Paused(address)": {
        "details": "Emitted when the pause is triggered by `account`."
      },
      "Unpaused(address)": {
        "details": "Emitted when the pause is lifted by `account`."
      }
    },
    "kind": "dev",
    "methods": {
      "owner()": {
        "details": "Returns the address of the current owner."
      },
      "paused()": {
        "details": "Returns true if the contract is paused, and false otherwise."
      },
      "renounceOwnership()": {
        "details": "Leaves the contract without owner. It will not be possible to call `onlyOwner` functions. Can only be called by the current owner. NOTE: Renouncing ownership will leave the contract without an owner, thereby disabling any functionality that is only available to the owner."
      },
      "transferOwnership(address)": {
        "details": "Transfers ownership of the contract to a new account (`newOwner`). Can only be called by the current owner."
      }
    },
    "version": 1
  },
  "userdoc": {
    "kind": "user",
    "methods": {},
    "version": 1
  }
}